{
	"contracts/FundMe.sol": {
		"FundMe": {
			"abi": [
				{
					"inputs": [
						{
							"internalType": "address",
							"name": "",
							"type": "address"
						}
					],
					"name": "addressToAmountFunded",
					"outputs": [
						{
							"internalType": "uint256",
							"name": "",
							"type": "uint256"
						}
					],
					"stateMutability": "view",
					"type": "function"
				},
				{
					"inputs": [],
					"name": "fund",
					"outputs": [],
					"stateMutability": "payable",
					"type": "function"
				},
				{
					"inputs": [
						{
							"internalType": "uint256",
							"name": "",
							"type": "uint256"
						}
					],
					"name": "funders",
					"outputs": [
						{
							"internalType": "address",
							"name": "",
							"type": "address"
						}
					],
					"stateMutability": "view",
					"type": "function"
				},
				{
					"inputs": [],
					"name": "minimumUsd",
					"outputs": [
						{
							"internalType": "uint256",
							"name": "",
							"type": "uint256"
						}
					],
					"stateMutability": "view",
					"type": "function"
				},
				{
					"inputs": [],
					"name": "withdraw",
					"outputs": [],
					"stateMutability": "nonpayable",
					"type": "function"
				}
			],
			"devdoc": {
				"kind": "dev",
				"methods": {},
				"version": 1
			},
			"evm": {
				"assembly": "    /* \"contracts/FundMe.sol\":171:1060  contract FundMe {... */\n  mstore(0x40, 0x80)\n    /* \"contracts/FundMe.sol\":259:268  50 * 1e18 */\n  0x02b5e3af16b1880000\n    /* \"contracts/FundMe.sol\":231:268  uint256 public minimumUsd = 50 * 1e18 */\n  0x00\n  sstore\n    /* \"contracts/FundMe.sol\":171:1060  contract FundMe {... */\n  callvalue\n  dup1\n  iszero\n  tag_1\n  jumpi\n  0x00\n  dup1\n  revert\ntag_1:\n  pop\n  dataSize(sub_0)\n  dup1\n  dataOffset(sub_0)\n  0x00\n  codecopy\n  0x00\n  return\nstop\n\nsub_0: assembly {\n        /* \"contracts/FundMe.sol\":171:1060  contract FundMe {... */\n      mstore(0x40, 0x80)\n      jumpi(tag_1, lt(calldatasize, 0x04))\n      shr(0xe0, calldataload(0x00))\n      dup1\n      0x098de820\n      eq\n      tag_2\n      jumpi\n      dup1\n      0x3ccfd60b\n      eq\n      tag_3\n      jumpi\n      dup1\n      0x3e47d6f3\n      eq\n      tag_4\n      jumpi\n      dup1\n      0xb60d4288\n      eq\n      tag_5\n      jumpi\n      dup1\n      0xdc0d3dff\n      eq\n      tag_6\n      jumpi\n    tag_1:\n      0x00\n      dup1\n      revert\n        /* \"contracts/FundMe.sol\":231:268  uint256 public minimumUsd = 50 * 1e18 */\n    tag_2:\n      callvalue\n      dup1\n      iszero\n      tag_7\n      jumpi\n      0x00\n      dup1\n      revert\n    tag_7:\n      pop\n      tag_8\n      tag_9\n      jump\t// in\n    tag_8:\n      mload(0x40)\n      tag_10\n      swap2\n      swap1\n      tag_11\n      jump\t// in\n    tag_10:\n      mload(0x40)\n      dup1\n      swap2\n      sub\n      swap1\n      return\n        /* \"contracts/FundMe.sol\":742:1052  function withdraw() public {... */\n    tag_3:\n      callvalue\n      dup1\n      iszero\n      tag_12\n      jumpi\n      0x00\n      dup1\n      revert\n    tag_12:\n      pop\n      tag_13\n      tag_14\n      jump\t// in\n    tag_13:\n      stop\n        /* \"contracts/FundMe.sol\":306:362  mapping(address => uint256) public addressToAmountFunded */\n    tag_4:\n      callvalue\n      dup1\n      iszero\n      tag_15\n      jumpi\n      0x00\n      dup1\n      revert\n    tag_15:\n      pop\n      tag_16\n      0x04\n      dup1\n      calldatasize\n      sub\n      dup2\n      add\n      swap1\n      tag_17\n      swap2\n      swap1\n      tag_18\n      jump\t// in\n    tag_17:\n      tag_19\n      jump\t// in\n    tag_16:\n      mload(0x40)\n      tag_20\n      swap2\n      swap1\n      tag_11\n      jump\t// in\n    tag_20:\n      mload(0x40)\n      dup1\n      swap2\n      sub\n      swap1\n      return\n        /* \"contracts/FundMe.sol\":369:736  function fund() public payable {... */\n    tag_5:\n      tag_21\n      tag_22\n      jump\t// in\n    tag_21:\n      stop\n        /* \"contracts/FundMe.sol\":275:299  address[] public funders */\n    tag_6:\n      callvalue\n      dup1\n      iszero\n      tag_23\n      jumpi\n      0x00\n      dup1\n      revert\n    tag_23:\n      pop\n      tag_24\n      0x04\n      dup1\n      calldatasize\n      sub\n      dup2\n      add\n      swap1\n      tag_25\n      swap2\n      swap1\n      tag_26\n      jump\t// in\n    tag_25:\n      tag_27\n      jump\t// in\n    tag_24:\n      mload(0x40)\n      tag_28\n      swap2\n      swap1\n      tag_29\n      jump\t// in\n    tag_28:\n      mload(0x40)\n      dup1\n      swap2\n      sub\n      swap1\n      return\n        /* \"contracts/FundMe.sol\":231:268  uint256 public minimumUsd = 50 * 1e18 */\n    tag_9:\n      sload(0x00)\n      dup2\n      jump\t// out\n        /* \"contracts/FundMe.sol\":742:1052  function withdraw() public {... */\n    tag_14:\n        /* \"contracts/FundMe.sol\":783:802  uint256 funderIndex */\n      0x00\n        /* \"contracts/FundMe.sol\":779:962  for(uint256 funderIndex = 0; funderIndex < funders.length; funderIndex++ ){... */\n    tag_31:\n        /* \"contracts/FundMe.sol\":822:829  funders */\n      0x01\n        /* \"contracts/FundMe.sol\":822:836  funders.length */\n      dup1\n      sload\n      swap1\n      pop\n        /* \"contracts/FundMe.sol\":808:819  funderIndex */\n      dup2\n        /* \"contracts/FundMe.sol\":808:836  funderIndex < funders.length */\n      lt\n        /* \"contracts/FundMe.sol\":779:962  for(uint256 funderIndex = 0; funderIndex < funders.length; funderIndex++ ){... */\n      iszero\n      tag_32\n      jumpi\n        /* \"contracts/FundMe.sol\":867:881  address funder */\n      0x00\n        /* \"contracts/FundMe.sol\":884:891  funders */\n      0x01\n        /* \"contracts/FundMe.sol\":892:903  funderIndex */\n      dup3\n        /* \"contracts/FundMe.sol\":884:904  funders[funderIndex] */\n      dup2\n      sload\n      dup2\n      lt\n      tag_34\n      jumpi\n      tag_35\n      tag_36\n      jump\t// in\n    tag_35:\n    tag_34:\n      swap1\n      0x00\n      mstore\n      keccak256(0x00, 0x20)\n      add\n      0x00\n      swap1\n      sload\n      swap1\n      0x0100\n      exp\n      swap1\n      div\n      0xffffffffffffffffffffffffffffffffffffffff\n      and\n        /* \"contracts/FundMe.sol\":867:904  address funder = funders[funderIndex] */\n      swap1\n      pop\n        /* \"contracts/FundMe.sol\":950:951  0 */\n      0x00\n        /* \"contracts/FundMe.sol\":918:939  addressToAmountFunded */\n      0x02\n        /* \"contracts/FundMe.sol\":918:947  addressToAmountFunded[funder] */\n      0x00\n        /* \"contracts/FundMe.sol\":940:946  funder */\n      dup4\n        /* \"contracts/FundMe.sol\":918:947  addressToAmountFunded[funder] */\n      0xffffffffffffffffffffffffffffffffffffffff\n      and\n      0xffffffffffffffffffffffffffffffffffffffff\n      and\n      dup2\n      mstore\n      0x20\n      add\n      swap1\n      dup2\n      mstore\n      0x20\n      add\n      0x00\n      keccak256\n        /* \"contracts/FundMe.sol\":918:951  addressToAmountFunded[funder] = 0 */\n      dup2\n      swap1\n      sstore\n      pop\n        /* \"contracts/FundMe.sol\":853:962  {... */\n      pop\n        /* \"contracts/FundMe.sol\":838:851  funderIndex++ */\n      dup1\n      dup1\n      tag_38\n      swap1\n      tag_39\n      jump\t// in\n    tag_38:\n      swap2\n      pop\n      pop\n        /* \"contracts/FundMe.sol\":779:962  for(uint256 funderIndex = 0; funderIndex < funders.length; funderIndex++ ){... */\n      jump(tag_31)\n    tag_32:\n      pop\n        /* \"contracts/FundMe.sol\":995:996  0 */\n      0x00\n        /* \"contracts/FundMe.sol\":981:997  new address[](0) */\n      0xffffffffffffffff\n      dup2\n      gt\n      iszero\n      tag_40\n      jumpi\n      tag_41\n      tag_42\n      jump\t// in\n    tag_41:\n    tag_40:\n      mload(0x40)\n      swap1\n      dup1\n      dup3\n      mstore\n      dup1\n      0x20\n      mul\n      0x20\n      add\n      dup3\n      add\n      0x40\n      mstore\n      dup1\n      iszero\n      tag_43\n      jumpi\n      dup2\n      0x20\n      add\n      0x20\n      dup3\n      mul\n      dup1\n      calldatasize\n      dup4\n      calldatacopy\n      dup1\n      dup3\n      add\n      swap2\n      pop\n      pop\n      swap1\n      pop\n    tag_43:\n      pop\n        /* \"contracts/FundMe.sol\":971:978  funders */\n      0x01\n        /* \"contracts/FundMe.sol\":971:997  funders = new address[](0) */\n      swap1\n      dup1\n      mload\n      swap1\n      0x20\n      add\n      swap1\n      tag_44\n      swap3\n      swap2\n      swap1\n      tag_45\n      jump\t// in\n    tag_44:\n      pop\n        /* \"contracts/FundMe.sol\":742:1052  function withdraw() public {... */\n      jump\t// out\n        /* \"contracts/FundMe.sol\":306:362  mapping(address => uint256) public addressToAmountFunded */\n    tag_19:\n      mstore(0x20, 0x02)\n      dup1\n      0x00\n      mstore\n      keccak256(0x00, 0x40)\n      0x00\n      swap2\n      pop\n      swap1\n      pop\n      sload\n      dup2\n      jump\t// out\n        /* \"contracts/FundMe.sol\":369:736  function fund() public payable {... */\n    tag_22:\n        /* \"contracts/FundMe.sol\":546:556  minimumUsd */\n      sload(0x00)\n        /* \"contracts/FundMe.sol\":513:542  msg.value.getConversionRate() */\n      tag_47\n        /* \"contracts/FundMe.sol\":513:522  msg.value */\n      callvalue\n        /* \"contracts/FundMe.sol\":513:540  msg.value.getConversionRate */\n      tag_48\n        /* \"contracts/FundMe.sol\":513:542  msg.value.getConversionRate() */\n      jump\t// in\n    tag_47:\n        /* \"contracts/FundMe.sol\":513:556  msg.value.getConversionRate() >= minimumUsd */\n      lt\n      iszero\n        /* \"contracts/FundMe.sol\":492:602  require(... */\n      tag_49\n      jumpi\n      mload(0x40)\n      0x08c379a000000000000000000000000000000000000000000000000000000000\n      dup2\n      mstore\n      0x04\n      add\n      tag_50\n      swap1\n      tag_51\n      jump\t// in\n    tag_50:\n      mload(0x40)\n      dup1\n      swap2\n      sub\n      swap1\n      revert\n    tag_49:\n        /* \"contracts/FundMe.sol\":650:657  funders */\n      0x01\n        /* \"contracts/FundMe.sol\":663:673  msg.sender */\n      caller\n        /* \"contracts/FundMe.sol\":650:674  funders.push(msg.sender) */\n      swap1\n      dup1\n      0x01\n      dup2\n      sload\n      add\n      dup1\n      dup3\n      sstore\n      dup1\n      swap2\n      pop\n      pop\n      0x01\n      swap1\n      sub\n      swap1\n      0x00\n      mstore\n      keccak256(0x00, 0x20)\n      add\n      0x00\n      swap1\n      swap2\n      swap1\n      swap2\n      swap1\n      swap2\n      0x0100\n      exp\n      dup2\n      sload\n      dup2\n      0xffffffffffffffffffffffffffffffffffffffff\n      mul\n      not\n      and\n      swap1\n      dup4\n      0xffffffffffffffffffffffffffffffffffffffff\n      and\n      mul\n      or\n      swap1\n      sstore\n      pop\n        /* \"contracts/FundMe.sol\":720:729  msg.value */\n      callvalue\n        /* \"contracts/FundMe.sol\":684:705  addressToAmountFunded */\n      0x02\n        /* \"contracts/FundMe.sol\":684:717  addressToAmountFunded[msg.sender] */\n      0x00\n        /* \"contracts/FundMe.sol\":706:716  msg.sender */\n      caller\n        /* \"contracts/FundMe.sol\":684:717  addressToAmountFunded[msg.sender] */\n      0xffffffffffffffffffffffffffffffffffffffff\n      and\n      0xffffffffffffffffffffffffffffffffffffffff\n      and\n      dup2\n      mstore\n      0x20\n      add\n      swap1\n      dup2\n      mstore\n      0x20\n      add\n      0x00\n      keccak256\n        /* \"contracts/FundMe.sol\":684:729  addressToAmountFunded[msg.sender] = msg.value */\n      dup2\n      swap1\n      sstore\n      pop\n        /* \"contracts/FundMe.sol\":369:736  function fund() public payable {... */\n      jump\t// out\n        /* \"contracts/FundMe.sol\":275:299  address[] public funders */\n    tag_27:\n      0x01\n      dup2\n      dup2\n      sload\n      dup2\n      lt\n      tag_53\n      jumpi\n      0x00\n      dup1\n      revert\n    tag_53:\n      swap1\n      0x00\n      mstore\n      keccak256(0x00, 0x20)\n      add\n      0x00\n      swap2\n      pop\n      sload\n      swap1\n      0x0100\n      exp\n      swap1\n      div\n      0xffffffffffffffffffffffffffffffffffffffff\n      and\n      dup2\n      jump\t// out\n        /* \"contracts/PriceConverter.sol\":593:840  function getConversionRate(uint256 ethAmount)... */\n    tag_48:\n        /* \"contracts/PriceConverter.sol\":686:693  uint256 */\n      0x00\n        /* \"contracts/PriceConverter.sol\":709:725  uint256 ethPrice */\n      dup1\n        /* \"contracts/PriceConverter.sol\":728:738  getPrice() */\n      tag_56\n        /* \"contracts/PriceConverter.sol\":728:736  getPrice */\n      tag_57\n        /* \"contracts/PriceConverter.sol\":728:738  getPrice() */\n      jump\t// in\n    tag_56:\n        /* \"contracts/PriceConverter.sol\":709:738  uint256 ethPrice = getPrice() */\n      swap1\n      pop\n        /* \"contracts/PriceConverter.sol\":748:770  uint256 ethAmountInUsd */\n      0x00\n        /* \"contracts/PriceConverter.sol\":798:802  1e18 */\n      0x0de0b6b3a7640000\n        /* \"contracts/PriceConverter.sol\":785:794  ethAmount */\n      dup5\n        /* \"contracts/PriceConverter.sol\":774:782  ethPrice */\n      dup4\n        /* \"contracts/PriceConverter.sol\":774:794  ethPrice * ethAmount */\n      tag_58\n      swap2\n      swap1\n      tag_59\n      jump\t// in\n    tag_58:\n        /* \"contracts/PriceConverter.sol\":773:802  (ethPrice * ethAmount) / 1e18 */\n      tag_60\n      swap2\n      swap1\n      tag_61\n      jump\t// in\n    tag_60:\n        /* \"contracts/PriceConverter.sol\":748:802  uint256 ethAmountInUsd = (ethPrice * ethAmount) / 1e18 */\n      swap1\n      pop\n        /* \"contracts/PriceConverter.sol\":819:833  ethAmountInUsd */\n      dup1\n        /* \"contracts/PriceConverter.sol\":812:833  return ethAmountInUsd */\n      swap3\n      pop\n      pop\n      pop\n        /* \"contracts/PriceConverter.sol\":593:840  function getConversionRate(uint256 ethAmount)... */\n      swap2\n      swap1\n      pop\n      jump\t// out\n        /* \"contracts/PriceConverter.sol\":164:587  function getPrice() internal view returns (uint256) {... */\n    tag_57:\n        /* \"contracts/PriceConverter.sol\":207:214  uint256 */\n      0x00\n        /* \"contracts/PriceConverter.sol\":303:334  AggregatorV3Interface priceFeed */\n      dup1\n        /* \"contracts/PriceConverter.sol\":372:414  0x8A753747A1Fa494EC906cE90E9f37563A8AF630e */\n      0x8a753747a1fa494ec906ce90e9f37563a8af630e\n        /* \"contracts/PriceConverter.sol\":303:424  AggregatorV3Interface priceFeed = AggregatorV3Interface(... */\n      swap1\n      pop\n        /* \"contracts/PriceConverter.sol\":437:449  int256 price */\n      0x00\n        /* \"contracts/PriceConverter.sol\":459:468  priceFeed */\n      dup2\n        /* \"contracts/PriceConverter.sol\":459:484  priceFeed.latestRoundData */\n      0xffffffffffffffffffffffffffffffffffffffff\n      and\n      0xfeaf968c\n        /* \"contracts/PriceConverter.sol\":459:486  priceFeed.latestRoundData() */\n      mload(0x40)\n      dup2\n      0xffffffff\n      and\n      0xe0\n      shl\n      dup2\n      mstore\n      0x04\n      add\n      0xa0\n      mload(0x40)\n      dup1\n      dup4\n      sub\n      dup2\n      dup7\n      dup1\n      extcodesize\n      iszero\n      dup1\n      iszero\n      tag_63\n      jumpi\n      0x00\n      dup1\n      revert\n    tag_63:\n      pop\n      gas\n      staticcall\n      iszero\n      dup1\n      iszero\n      tag_65\n      jumpi\n      returndatasize\n      0x00\n      dup1\n      returndatacopy\n      revert(0x00, returndatasize)\n    tag_65:\n      pop\n      pop\n      pop\n      pop\n      mload(0x40)\n      returndatasize\n      not(0x1f)\n      0x1f\n      dup3\n      add\n      and\n      dup3\n      add\n      dup1\n      0x40\n      mstore\n      pop\n      dup2\n      add\n      swap1\n      tag_66\n      swap2\n      swap1\n      tag_67\n      jump\t// in\n    tag_66:\n        /* \"contracts/PriceConverter.sol\":434:486  (, int256 price, , , ) = priceFeed.latestRoundData() */\n      pop\n      pop\n      pop\n      swap2\n      pop\n      pop\n        /* \"contracts/PriceConverter.sol\":575:579  1e10 */\n      0x02540be400\n        /* \"contracts/PriceConverter.sol\":567:572  price */\n      dup2\n        /* \"contracts/PriceConverter.sol\":567:579  price * 1e10 */\n      tag_68\n      swap2\n      swap1\n      tag_69\n      jump\t// in\n    tag_68:\n        /* \"contracts/PriceConverter.sol\":552:580  return uint256(price * 1e10) */\n      swap3\n      pop\n      pop\n      pop\n        /* \"contracts/PriceConverter.sol\":164:587  function getPrice() internal view returns (uint256) {... */\n      swap1\n      jump\t// out\n    tag_45:\n      dup3\n      dup1\n      sload\n      dup3\n      dup3\n      sstore\n      swap1\n      0x00\n      mstore\n      keccak256(0x00, 0x20)\n      swap1\n      dup2\n      add\n      swap3\n      dup3\n      iszero\n      tag_70\n      jumpi\n      swap2\n      0x20\n      mul\n      dup3\n      add\n    tag_71:\n      dup3\n      dup2\n      gt\n      iszero\n      tag_72\n      jumpi\n      dup3\n      mload\n      dup3\n      exp(0x0100, 0x00)\n      dup2\n      sload\n      dup2\n      0xffffffffffffffffffffffffffffffffffffffff\n      mul\n      not\n      and\n      swap1\n      dup4\n      0xffffffffffffffffffffffffffffffffffffffff\n      and\n      mul\n      or\n      swap1\n      sstore\n      pop\n      swap2\n      0x20\n      add\n      swap2\n      swap1\n      0x01\n      add\n      swap1\n      jump(tag_71)\n    tag_72:\n    tag_70:\n      pop\n      swap1\n      pop\n      tag_73\n      swap2\n      swap1\n      tag_74\n      jump\t// in\n    tag_73:\n      pop\n      swap1\n      jump\t// out\n    tag_74:\n    tag_75:\n      dup1\n      dup3\n      gt\n      iszero\n      tag_76\n      jumpi\n      0x00\n      dup2\n      0x00\n      swap1\n      sstore\n      pop\n      0x01\n      add\n      jump(tag_75)\n    tag_76:\n      pop\n      swap1\n      jump\t// out\n        /* \"#utility.yul\":7:84   */\n    tag_77:\n        /* \"#utility.yul\":44:51   */\n      0x00\n        /* \"#utility.yul\":73:78   */\n      dup2\n        /* \"#utility.yul\":62:78   */\n      swap1\n      pop\n        /* \"#utility.yul\":7:84   */\n      swap2\n      swap1\n      pop\n      jump\t// out\n        /* \"#utility.yul\":90:208   */\n    tag_78:\n        /* \"#utility.yul\":177:201   */\n      tag_104\n        /* \"#utility.yul\":195:200   */\n      dup2\n        /* \"#utility.yul\":177:201   */\n      tag_77\n      jump\t// in\n    tag_104:\n        /* \"#utility.yul\":172:175   */\n      dup3\n        /* \"#utility.yul\":165:202   */\n      mstore\n        /* \"#utility.yul\":90:208   */\n      pop\n      pop\n      jump\t// out\n        /* \"#utility.yul\":214:436   */\n    tag_11:\n        /* \"#utility.yul\":307:311   */\n      0x00\n        /* \"#utility.yul\":345:347   */\n      0x20\n        /* \"#utility.yul\":334:343   */\n      dup3\n        /* \"#utility.yul\":330:348   */\n      add\n        /* \"#utility.yul\":322:348   */\n      swap1\n      pop\n        /* \"#utility.yul\":358:429   */\n      tag_106\n        /* \"#utility.yul\":426:427   */\n      0x00\n        /* \"#utility.yul\":415:424   */\n      dup4\n        /* \"#utility.yul\":411:428   */\n      add\n        /* \"#utility.yul\":402:408   */\n      dup5\n        /* \"#utility.yul\":358:429   */\n      tag_78\n      jump\t// in\n    tag_106:\n        /* \"#utility.yul\":214:436   */\n      swap3\n      swap2\n      pop\n      pop\n      jump\t// out\n        /* \"#utility.yul\":523:640   */\n    tag_80:\n        /* \"#utility.yul\":632:633   */\n      0x00\n        /* \"#utility.yul\":629:630   */\n      dup1\n        /* \"#utility.yul\":622:634   */\n      revert\n        /* \"#utility.yul\":769:895   */\n    tag_82:\n        /* \"#utility.yul\":806:813   */\n      0x00\n        /* \"#utility.yul\":846:888   */\n      0xffffffffffffffffffffffffffffffffffffffff\n        /* \"#utility.yul\":839:844   */\n      dup3\n        /* \"#utility.yul\":835:889   */\n      and\n        /* \"#utility.yul\":824:889   */\n      swap1\n      pop\n        /* \"#utility.yul\":769:895   */\n      swap2\n      swap1\n      pop\n      jump\t// out\n        /* \"#utility.yul\":901:997   */\n    tag_83:\n        /* \"#utility.yul\":938:945   */\n      0x00\n        /* \"#utility.yul\":967:991   */\n      tag_112\n        /* \"#utility.yul\":985:990   */\n      dup3\n        /* \"#utility.yul\":967:991   */\n      tag_82\n      jump\t// in\n    tag_112:\n        /* \"#utility.yul\":956:991   */\n      swap1\n      pop\n        /* \"#utility.yul\":901:997   */\n      swap2\n      swap1\n      pop\n      jump\t// out\n        /* \"#utility.yul\":1003:1125   */\n    tag_84:\n        /* \"#utility.yul\":1076:1100   */\n      tag_114\n        /* \"#utility.yul\":1094:1099   */\n      dup2\n        /* \"#utility.yul\":1076:1100   */\n      tag_83\n      jump\t// in\n    tag_114:\n        /* \"#utility.yul\":1069:1074   */\n      dup2\n        /* \"#utility.yul\":1066:1101   */\n      eq\n        /* \"#utility.yul\":1056:1119   */\n      tag_115\n      jumpi\n        /* \"#utility.yul\":1115:1116   */\n      0x00\n        /* \"#utility.yul\":1112:1113   */\n      dup1\n        /* \"#utility.yul\":1105:1117   */\n      revert\n        /* \"#utility.yul\":1056:1119   */\n    tag_115:\n        /* \"#utility.yul\":1003:1125   */\n      pop\n      jump\t// out\n        /* \"#utility.yul\":1131:1270   */\n    tag_85:\n        /* \"#utility.yul\":1177:1182   */\n      0x00\n        /* \"#utility.yul\":1215:1221   */\n      dup2\n        /* \"#utility.yul\":1202:1222   */\n      calldataload\n        /* \"#utility.yul\":1193:1222   */\n      swap1\n      pop\n        /* \"#utility.yul\":1231:1264   */\n      tag_117\n        /* \"#utility.yul\":1258:1263   */\n      dup2\n        /* \"#utility.yul\":1231:1264   */\n      tag_84\n      jump\t// in\n    tag_117:\n        /* \"#utility.yul\":1131:1270   */\n      swap3\n      swap2\n      pop\n      pop\n      jump\t// out\n        /* \"#utility.yul\":1276:1605   */\n    tag_18:\n        /* \"#utility.yul\":1335:1341   */\n      0x00\n        /* \"#utility.yul\":1384:1386   */\n      0x20\n        /* \"#utility.yul\":1372:1381   */\n      dup3\n        /* \"#utility.yul\":1363:1370   */\n      dup5\n        /* \"#utility.yul\":1359:1382   */\n      sub\n        /* \"#utility.yul\":1355:1387   */\n      slt\n        /* \"#utility.yul\":1352:1471   */\n      iszero\n      tag_119\n      jumpi\n        /* \"#utility.yul\":1390:1469   */\n      tag_120\n      tag_80\n      jump\t// in\n    tag_120:\n        /* \"#utility.yul\":1352:1471   */\n    tag_119:\n        /* \"#utility.yul\":1510:1511   */\n      0x00\n        /* \"#utility.yul\":1535:1588   */\n      tag_121\n        /* \"#utility.yul\":1580:1587   */\n      dup5\n        /* \"#utility.yul\":1571:1577   */\n      dup3\n        /* \"#utility.yul\":1560:1569   */\n      dup6\n        /* \"#utility.yul\":1556:1578   */\n      add\n        /* \"#utility.yul\":1535:1588   */\n      tag_85\n      jump\t// in\n    tag_121:\n        /* \"#utility.yul\":1525:1588   */\n      swap2\n      pop\n        /* \"#utility.yul\":1481:1598   */\n      pop\n        /* \"#utility.yul\":1276:1605   */\n      swap3\n      swap2\n      pop\n      pop\n      jump\t// out\n        /* \"#utility.yul\":1611:1733   */\n    tag_86:\n        /* \"#utility.yul\":1684:1708   */\n      tag_123\n        /* \"#utility.yul\":1702:1707   */\n      dup2\n        /* \"#utility.yul\":1684:1708   */\n      tag_77\n      jump\t// in\n    tag_123:\n        /* \"#utility.yul\":1677:1682   */\n      dup2\n        /* \"#utility.yul\":1674:1709   */\n      eq\n        /* \"#utility.yul\":1664:1727   */\n      tag_124\n      jumpi\n        /* \"#utility.yul\":1723:1724   */\n      0x00\n        /* \"#utility.yul\":1720:1721   */\n      dup1\n        /* \"#utility.yul\":1713:1725   */\n      revert\n        /* \"#utility.yul\":1664:1727   */\n    tag_124:\n        /* \"#utility.yul\":1611:1733   */\n      pop\n      jump\t// out\n        /* \"#utility.yul\":1739:1878   */\n    tag_87:\n        /* \"#utility.yul\":1785:1790   */\n      0x00\n        /* \"#utility.yul\":1823:1829   */\n      dup2\n        /* \"#utility.yul\":1810:1830   */\n      calldataload\n        /* \"#utility.yul\":1801:1830   */\n      swap1\n      pop\n        /* \"#utility.yul\":1839:1872   */\n      tag_126\n        /* \"#utility.yul\":1866:1871   */\n      dup2\n        /* \"#utility.yul\":1839:1872   */\n      tag_86\n      jump\t// in\n    tag_126:\n        /* \"#utility.yul\":1739:1878   */\n      swap3\n      swap2\n      pop\n      pop\n      jump\t// out\n        /* \"#utility.yul\":1884:2213   */\n    tag_26:\n        /* \"#utility.yul\":1943:1949   */\n      0x00\n        /* \"#utility.yul\":1992:1994   */\n      0x20\n        /* \"#utility.yul\":1980:1989   */\n      dup3\n        /* \"#utility.yul\":1971:1978   */\n      dup5\n        /* \"#utility.yul\":1967:1990   */\n      sub\n        /* \"#utility.yul\":1963:1995   */\n      slt\n        /* \"#utility.yul\":1960:2079   */\n      iszero\n      tag_128\n      jumpi\n        /* \"#utility.yul\":1998:2077   */\n      tag_129\n      tag_80\n      jump\t// in\n    tag_129:\n        /* \"#utility.yul\":1960:2079   */\n    tag_128:\n        /* \"#utility.yul\":2118:2119   */\n      0x00\n        /* \"#utility.yul\":2143:2196   */\n      tag_130\n        /* \"#utility.yul\":2188:2195   */\n      dup5\n        /* \"#utility.yul\":2179:2185   */\n      dup3\n        /* \"#utility.yul\":2168:2177   */\n      dup6\n        /* \"#utility.yul\":2164:2186   */\n      add\n        /* \"#utility.yul\":2143:2196   */\n      tag_87\n      jump\t// in\n    tag_130:\n        /* \"#utility.yul\":2133:2196   */\n      swap2\n      pop\n        /* \"#utility.yul\":2089:2206   */\n      pop\n        /* \"#utility.yul\":1884:2213   */\n      swap3\n      swap2\n      pop\n      pop\n      jump\t// out\n        /* \"#utility.yul\":2219:2337   */\n    tag_88:\n        /* \"#utility.yul\":2306:2330   */\n      tag_132\n        /* \"#utility.yul\":2324:2329   */\n      dup2\n        /* \"#utility.yul\":2306:2330   */\n      tag_83\n      jump\t// in\n    tag_132:\n        /* \"#utility.yul\":2301:2304   */\n      dup3\n        /* \"#utility.yul\":2294:2331   */\n      mstore\n        /* \"#utility.yul\":2219:2337   */\n      pop\n      pop\n      jump\t// out\n        /* \"#utility.yul\":2343:2565   */\n    tag_29:\n        /* \"#utility.yul\":2436:2440   */\n      0x00\n        /* \"#utility.yul\":2474:2476   */\n      0x20\n        /* \"#utility.yul\":2463:2472   */\n      dup3\n        /* \"#utility.yul\":2459:2477   */\n      add\n        /* \"#utility.yul\":2451:2477   */\n      swap1\n      pop\n        /* \"#utility.yul\":2487:2558   */\n      tag_134\n        /* \"#utility.yul\":2555:2556   */\n      0x00\n        /* \"#utility.yul\":2544:2553   */\n      dup4\n        /* \"#utility.yul\":2540:2557   */\n      add\n        /* \"#utility.yul\":2531:2537   */\n      dup5\n        /* \"#utility.yul\":2487:2558   */\n      tag_88\n      jump\t// in\n    tag_134:\n        /* \"#utility.yul\":2343:2565   */\n      swap3\n      swap2\n      pop\n      pop\n      jump\t// out\n        /* \"#utility.yul\":2571:2751   */\n    tag_36:\n        /* \"#utility.yul\":2619:2696   */\n      0x4e487b7100000000000000000000000000000000000000000000000000000000\n        /* \"#utility.yul\":2616:2617   */\n      0x00\n        /* \"#utility.yul\":2609:2697   */\n      mstore\n        /* \"#utility.yul\":2716:2720   */\n      0x32\n        /* \"#utility.yul\":2713:2714   */\n      0x04\n        /* \"#utility.yul\":2706:2721   */\n      mstore\n        /* \"#utility.yul\":2740:2744   */\n      0x24\n        /* \"#utility.yul\":2737:2738   */\n      0x00\n        /* \"#utility.yul\":2730:2745   */\n      revert\n        /* \"#utility.yul\":2757:2937   */\n    tag_89:\n        /* \"#utility.yul\":2805:2882   */\n      0x4e487b7100000000000000000000000000000000000000000000000000000000\n        /* \"#utility.yul\":2802:2803   */\n      0x00\n        /* \"#utility.yul\":2795:2883   */\n      mstore\n        /* \"#utility.yul\":2902:2906   */\n      0x11\n        /* \"#utility.yul\":2899:2900   */\n      0x04\n        /* \"#utility.yul\":2892:2907   */\n      mstore\n        /* \"#utility.yul\":2926:2930   */\n      0x24\n        /* \"#utility.yul\":2923:2924   */\n      0x00\n        /* \"#utility.yul\":2916:2931   */\n      revert\n        /* \"#utility.yul\":2943:3176   */\n    tag_39:\n        /* \"#utility.yul\":2982:2985   */\n      0x00\n        /* \"#utility.yul\":3005:3029   */\n      tag_138\n        /* \"#utility.yul\":3023:3028   */\n      dup3\n        /* \"#utility.yul\":3005:3029   */\n      tag_77\n      jump\t// in\n    tag_138:\n        /* \"#utility.yul\":2996:3029   */\n      swap2\n      pop\n        /* \"#utility.yul\":3051:3117   */\n      0xffffffffffffffffffffffffffffffffffffffffffffffffffffffffffffffff\n        /* \"#utility.yul\":3044:3049   */\n      dup3\n        /* \"#utility.yul\":3041:3118   */\n      eq\n        /* \"#utility.yul\":3038:3141   */\n      iszero\n      tag_139\n      jumpi\n        /* \"#utility.yul\":3121:3139   */\n      tag_140\n      tag_89\n      jump\t// in\n    tag_140:\n        /* \"#utility.yul\":3038:3141   */\n    tag_139:\n        /* \"#utility.yul\":3168:3169   */\n      0x01\n        /* \"#utility.yul\":3161:3166   */\n      dup3\n        /* \"#utility.yul\":3157:3170   */\n      add\n        /* \"#utility.yul\":3150:3170   */\n      swap1\n      pop\n        /* \"#utility.yul\":2943:3176   */\n      swap2\n      swap1\n      pop\n      jump\t// out\n        /* \"#utility.yul\":3182:3362   */\n    tag_42:\n        /* \"#utility.yul\":3230:3307   */\n      0x4e487b7100000000000000000000000000000000000000000000000000000000\n        /* \"#utility.yul\":3227:3228   */\n      0x00\n        /* \"#utility.yul\":3220:3308   */\n      mstore\n        /* \"#utility.yul\":3327:3331   */\n      0x41\n        /* \"#utility.yul\":3324:3325   */\n      0x04\n        /* \"#utility.yul\":3317:3332   */\n      mstore\n        /* \"#utility.yul\":3351:3355   */\n      0x24\n        /* \"#utility.yul\":3348:3349   */\n      0x00\n        /* \"#utility.yul\":3341:3356   */\n      revert\n        /* \"#utility.yul\":3368:3537   */\n    tag_90:\n        /* \"#utility.yul\":3452:3463   */\n      0x00\n        /* \"#utility.yul\":3486:3492   */\n      dup3\n        /* \"#utility.yul\":3481:3484   */\n      dup3\n        /* \"#utility.yul\":3474:3493   */\n      mstore\n        /* \"#utility.yul\":3526:3530   */\n      0x20\n        /* \"#utility.yul\":3521:3524   */\n      dup3\n        /* \"#utility.yul\":3517:3531   */\n      add\n        /* \"#utility.yul\":3502:3531   */\n      swap1\n      pop\n        /* \"#utility.yul\":3368:3537   */\n      swap3\n      swap2\n      pop\n      pop\n      jump\t// out\n        /* \"#utility.yul\":3543:3713   */\n    tag_91:\n        /* \"#utility.yul\":3683:3705   */\n      0x446964206e6f742073656e6420656e6f75676821000000000000000000000000\n        /* \"#utility.yul\":3679:3680   */\n      0x00\n        /* \"#utility.yul\":3671:3677   */\n      dup3\n        /* \"#utility.yul\":3667:3681   */\n      add\n        /* \"#utility.yul\":3660:3706   */\n      mstore\n        /* \"#utility.yul\":3543:3713   */\n      pop\n      jump\t// out\n        /* \"#utility.yul\":3719:4085   */\n    tag_92:\n        /* \"#utility.yul\":3861:3864   */\n      0x00\n        /* \"#utility.yul\":3882:3949   */\n      tag_145\n        /* \"#utility.yul\":3946:3948   */\n      0x14\n        /* \"#utility.yul\":3941:3944   */\n      dup4\n        /* \"#utility.yul\":3882:3949   */\n      tag_90\n      jump\t// in\n    tag_145:\n        /* \"#utility.yul\":3875:3949   */\n      swap2\n      pop\n        /* \"#utility.yul\":3958:4051   */\n      tag_146\n        /* \"#utility.yul\":4047:4050   */\n      dup3\n        /* \"#utility.yul\":3958:4051   */\n      tag_91\n      jump\t// in\n    tag_146:\n        /* \"#utility.yul\":4076:4078   */\n      0x20\n        /* \"#utility.yul\":4071:4074   */\n      dup3\n        /* \"#utility.yul\":4067:4079   */\n      add\n        /* \"#utility.yul\":4060:4079   */\n      swap1\n      pop\n        /* \"#utility.yul\":3719:4085   */\n      swap2\n      swap1\n      pop\n      jump\t// out\n        /* \"#utility.yul\":4091:4510   */\n    tag_51:\n        /* \"#utility.yul\":4257:4261   */\n      0x00\n        /* \"#utility.yul\":4295:4297   */\n      0x20\n        /* \"#utility.yul\":4284:4293   */\n      dup3\n        /* \"#utility.yul\":4280:4298   */\n      add\n        /* \"#utility.yul\":4272:4298   */\n      swap1\n      pop\n        /* \"#utility.yul\":4344:4353   */\n      dup2\n        /* \"#utility.yul\":4338:4342   */\n      dup2\n        /* \"#utility.yul\":4334:4354   */\n      sub\n        /* \"#utility.yul\":4330:4331   */\n      0x00\n        /* \"#utility.yul\":4319:4328   */\n      dup4\n        /* \"#utility.yul\":4315:4332   */\n      add\n        /* \"#utility.yul\":4308:4355   */\n      mstore\n        /* \"#utility.yul\":4372:4503   */\n      tag_148\n        /* \"#utility.yul\":4498:4502   */\n      dup2\n        /* \"#utility.yul\":4372:4503   */\n      tag_92\n      jump\t// in\n    tag_148:\n        /* \"#utility.yul\":4364:4503   */\n      swap1\n      pop\n        /* \"#utility.yul\":4091:4510   */\n      swap2\n      swap1\n      pop\n      jump\t// out\n        /* \"#utility.yul\":4516:4864   */\n    tag_59:\n        /* \"#utility.yul\":4556:4563   */\n      0x00\n        /* \"#utility.yul\":4579:4599   */\n      tag_150\n        /* \"#utility.yul\":4597:4598   */\n      dup3\n        /* \"#utility.yul\":4579:4599   */\n      tag_77\n      jump\t// in\n    tag_150:\n        /* \"#utility.yul\":4574:4599   */\n      swap2\n      pop\n        /* \"#utility.yul\":4613:4633   */\n      tag_151\n        /* \"#utility.yul\":4631:4632   */\n      dup4\n        /* \"#utility.yul\":4613:4633   */\n      tag_77\n      jump\t// in\n    tag_151:\n        /* \"#utility.yul\":4608:4633   */\n      swap3\n      pop\n        /* \"#utility.yul\":4801:4802   */\n      dup2\n        /* \"#utility.yul\":4733:4799   */\n      0xffffffffffffffffffffffffffffffffffffffffffffffffffffffffffffffff\n        /* \"#utility.yul\":4729:4803   */\n      div\n        /* \"#utility.yul\":4726:4727   */\n      dup4\n        /* \"#utility.yul\":4723:4804   */\n      gt\n        /* \"#utility.yul\":4718:4719   */\n      dup3\n        /* \"#utility.yul\":4711:4720   */\n      iszero\n        /* \"#utility.yul\":4704:4721   */\n      iszero\n        /* \"#utility.yul\":4700:4805   */\n      and\n        /* \"#utility.yul\":4697:4828   */\n      iszero\n      tag_152\n      jumpi\n        /* \"#utility.yul\":4808:4826   */\n      tag_153\n      tag_89\n      jump\t// in\n    tag_153:\n        /* \"#utility.yul\":4697:4828   */\n    tag_152:\n        /* \"#utility.yul\":4856:4857   */\n      dup3\n        /* \"#utility.yul\":4853:4854   */\n      dup3\n        /* \"#utility.yul\":4849:4858   */\n      mul\n        /* \"#utility.yul\":4838:4858   */\n      swap1\n      pop\n        /* \"#utility.yul\":4516:4864   */\n      swap3\n      swap2\n      pop\n      pop\n      jump\t// out\n        /* \"#utility.yul\":4870:5050   */\n    tag_93:\n        /* \"#utility.yul\":4918:4995   */\n      0x4e487b7100000000000000000000000000000000000000000000000000000000\n        /* \"#utility.yul\":4915:4916   */\n      0x00\n        /* \"#utility.yul\":4908:4996   */\n      mstore\n        /* \"#utility.yul\":5015:5019   */\n      0x12\n        /* \"#utility.yul\":5012:5013   */\n      0x04\n        /* \"#utility.yul\":5005:5020   */\n      mstore\n        /* \"#utility.yul\":5039:5043   */\n      0x24\n        /* \"#utility.yul\":5036:5037   */\n      0x00\n        /* \"#utility.yul\":5029:5044   */\n      revert\n        /* \"#utility.yul\":5056:5241   */\n    tag_61:\n        /* \"#utility.yul\":5096:5097   */\n      0x00\n        /* \"#utility.yul\":5113:5133   */\n      tag_156\n        /* \"#utility.yul\":5131:5132   */\n      dup3\n        /* \"#utility.yul\":5113:5133   */\n      tag_77\n      jump\t// in\n    tag_156:\n        /* \"#utility.yul\":5108:5133   */\n      swap2\n      pop\n        /* \"#utility.yul\":5147:5167   */\n      tag_157\n        /* \"#utility.yul\":5165:5166   */\n      dup4\n        /* \"#utility.yul\":5147:5167   */\n      tag_77\n      jump\t// in\n    tag_157:\n        /* \"#utility.yul\":5142:5167   */\n      swap3\n      pop\n        /* \"#utility.yul\":5186:5187   */\n      dup3\n        /* \"#utility.yul\":5176:5211   */\n      tag_158\n      jumpi\n        /* \"#utility.yul\":5191:5209   */\n      tag_159\n      tag_93\n      jump\t// in\n    tag_159:\n        /* \"#utility.yul\":5176:5211   */\n    tag_158:\n        /* \"#utility.yul\":5233:5234   */\n      dup3\n        /* \"#utility.yul\":5230:5231   */\n      dup3\n        /* \"#utility.yul\":5226:5235   */\n      div\n        /* \"#utility.yul\":5221:5235   */\n      swap1\n      pop\n        /* \"#utility.yul\":5056:5241   */\n      swap3\n      swap2\n      pop\n      pop\n      jump\t// out\n        /* \"#utility.yul\":5247:5352   */\n    tag_94:\n        /* \"#utility.yul\":5283:5290   */\n      0x00\n        /* \"#utility.yul\":5323:5345   */\n      0xffffffffffffffffffff\n        /* \"#utility.yul\":5316:5321   */\n      dup3\n        /* \"#utility.yul\":5312:5346   */\n      and\n        /* \"#utility.yul\":5301:5346   */\n      swap1\n      pop\n        /* \"#utility.yul\":5247:5352   */\n      swap2\n      swap1\n      pop\n      jump\t// out\n        /* \"#utility.yul\":5358:5478   */\n    tag_95:\n        /* \"#utility.yul\":5430:5453   */\n      tag_162\n        /* \"#utility.yul\":5447:5452   */\n      dup2\n        /* \"#utility.yul\":5430:5453   */\n      tag_94\n      jump\t// in\n    tag_162:\n        /* \"#utility.yul\":5423:5428   */\n      dup2\n        /* \"#utility.yul\":5420:5454   */\n      eq\n        /* \"#utility.yul\":5410:5472   */\n      tag_163\n      jumpi\n        /* \"#utility.yul\":5468:5469   */\n      0x00\n        /* \"#utility.yul\":5465:5466   */\n      dup1\n        /* \"#utility.yul\":5458:5470   */\n      revert\n        /* \"#utility.yul\":5410:5472   */\n    tag_163:\n        /* \"#utility.yul\":5358:5478   */\n      pop\n      jump\t// out\n        /* \"#utility.yul\":5484:5625   */\n    tag_96:\n        /* \"#utility.yul\":5540:5545   */\n      0x00\n        /* \"#utility.yul\":5571:5577   */\n      dup2\n        /* \"#utility.yul\":5565:5578   */\n      mload\n        /* \"#utility.yul\":5556:5578   */\n      swap1\n      pop\n        /* \"#utility.yul\":5587:5619   */\n      tag_165\n        /* \"#utility.yul\":5613:5618   */\n      dup2\n        /* \"#utility.yul\":5587:5619   */\n      tag_95\n      jump\t// in\n    tag_165:\n        /* \"#utility.yul\":5484:5625   */\n      swap3\n      swap2\n      pop\n      pop\n      jump\t// out\n        /* \"#utility.yul\":5631:5707   */\n    tag_97:\n        /* \"#utility.yul\":5667:5674   */\n      0x00\n        /* \"#utility.yul\":5696:5701   */\n      dup2\n        /* \"#utility.yul\":5685:5701   */\n      swap1\n      pop\n        /* \"#utility.yul\":5631:5707   */\n      swap2\n      swap1\n      pop\n      jump\t// out\n        /* \"#utility.yul\":5713:5833   */\n    tag_98:\n        /* \"#utility.yul\":5785:5808   */\n      tag_168\n        /* \"#utility.yul\":5802:5807   */\n      dup2\n        /* \"#utility.yul\":5785:5808   */\n      tag_97\n      jump\t// in\n    tag_168:\n        /* \"#utility.yul\":5778:5783   */\n      dup2\n        /* \"#utility.yul\":5775:5809   */\n      eq\n        /* \"#utility.yul\":5765:5827   */\n      tag_169\n      jumpi\n        /* \"#utility.yul\":5823:5824   */\n      0x00\n        /* \"#utility.yul\":5820:5821   */\n      dup1\n        /* \"#utility.yul\":5813:5825   */\n      revert\n        /* \"#utility.yul\":5765:5827   */\n    tag_169:\n        /* \"#utility.yul\":5713:5833   */\n      pop\n      jump\t// out\n        /* \"#utility.yul\":5839:5980   */\n    tag_99:\n        /* \"#utility.yul\":5895:5900   */\n      0x00\n        /* \"#utility.yul\":5926:5932   */\n      dup2\n        /* \"#utility.yul\":5920:5933   */\n      mload\n        /* \"#utility.yul\":5911:5933   */\n      swap1\n      pop\n        /* \"#utility.yul\":5942:5974   */\n      tag_171\n        /* \"#utility.yul\":5968:5973   */\n      dup2\n        /* \"#utility.yul\":5942:5974   */\n      tag_98\n      jump\t// in\n    tag_171:\n        /* \"#utility.yul\":5839:5980   */\n      swap3\n      swap2\n      pop\n      pop\n      jump\t// out\n        /* \"#utility.yul\":5986:6129   */\n    tag_100:\n        /* \"#utility.yul\":6043:6048   */\n      0x00\n        /* \"#utility.yul\":6074:6080   */\n      dup2\n        /* \"#utility.yul\":6068:6081   */\n      mload\n        /* \"#utility.yul\":6059:6081   */\n      swap1\n      pop\n        /* \"#utility.yul\":6090:6123   */\n      tag_173\n        /* \"#utility.yul\":6117:6122   */\n      dup2\n        /* \"#utility.yul\":6090:6123   */\n      tag_86\n      jump\t// in\n    tag_173:\n        /* \"#utility.yul\":5986:6129   */\n      swap3\n      swap2\n      pop\n      pop\n      jump\t// out\n        /* \"#utility.yul\":6135:7106   */\n    tag_67:\n        /* \"#utility.yul\":6238:6244   */\n      0x00\n        /* \"#utility.yul\":6246:6252   */\n      dup1\n        /* \"#utility.yul\":6254:6260   */\n      0x00\n        /* \"#utility.yul\":6262:6268   */\n      dup1\n        /* \"#utility.yul\":6270:6276   */\n      0x00\n        /* \"#utility.yul\":6319:6322   */\n      0xa0\n        /* \"#utility.yul\":6307:6316   */\n      dup7\n        /* \"#utility.yul\":6298:6305   */\n      dup9\n        /* \"#utility.yul\":6294:6317   */\n      sub\n        /* \"#utility.yul\":6290:6323   */\n      slt\n        /* \"#utility.yul\":6287:6407   */\n      iszero\n      tag_175\n      jumpi\n        /* \"#utility.yul\":6326:6405   */\n      tag_176\n      tag_80\n      jump\t// in\n    tag_176:\n        /* \"#utility.yul\":6287:6407   */\n    tag_175:\n        /* \"#utility.yul\":6446:6447   */\n      0x00\n        /* \"#utility.yul\":6471:6534   */\n      tag_177\n        /* \"#utility.yul\":6526:6533   */\n      dup9\n        /* \"#utility.yul\":6517:6523   */\n      dup3\n        /* \"#utility.yul\":6506:6515   */\n      dup10\n        /* \"#utility.yul\":6502:6524   */\n      add\n        /* \"#utility.yul\":6471:6534   */\n      tag_96\n      jump\t// in\n    tag_177:\n        /* \"#utility.yul\":6461:6534   */\n      swap6\n      pop\n        /* \"#utility.yul\":6417:6544   */\n      pop\n        /* \"#utility.yul\":6583:6585   */\n      0x20\n        /* \"#utility.yul\":6609:6672   */\n      tag_178\n        /* \"#utility.yul\":6664:6671   */\n      dup9\n        /* \"#utility.yul\":6655:6661   */\n      dup3\n        /* \"#utility.yul\":6644:6653   */\n      dup10\n        /* \"#utility.yul\":6640:6662   */\n      add\n        /* \"#utility.yul\":6609:6672   */\n      tag_99\n      jump\t// in\n    tag_178:\n        /* \"#utility.yul\":6599:6672   */\n      swap5\n      pop\n        /* \"#utility.yul\":6554:6682   */\n      pop\n        /* \"#utility.yul\":6721:6723   */\n      0x40\n        /* \"#utility.yul\":6747:6811   */\n      tag_179\n        /* \"#utility.yul\":6803:6810   */\n      dup9\n        /* \"#utility.yul\":6794:6800   */\n      dup3\n        /* \"#utility.yul\":6783:6792   */\n      dup10\n        /* \"#utility.yul\":6779:6801   */\n      add\n        /* \"#utility.yul\":6747:6811   */\n      tag_100\n      jump\t// in\n    tag_179:\n        /* \"#utility.yul\":6737:6811   */\n      swap4\n      pop\n        /* \"#utility.yul\":6692:6821   */\n      pop\n        /* \"#utility.yul\":6860:6862   */\n      0x60\n        /* \"#utility.yul\":6886:6950   */\n      tag_180\n        /* \"#utility.yul\":6942:6949   */\n      dup9\n        /* \"#utility.yul\":6933:6939   */\n      dup3\n        /* \"#utility.yul\":6922:6931   */\n      dup10\n        /* \"#utility.yul\":6918:6940   */\n      add\n        /* \"#utility.yul\":6886:6950   */\n      tag_100\n      jump\t// in\n    tag_180:\n        /* \"#utility.yul\":6876:6950   */\n      swap3\n      pop\n        /* \"#utility.yul\":6831:6960   */\n      pop\n        /* \"#utility.yul\":6999:7002   */\n      0x80\n        /* \"#utility.yul\":7026:7089   */\n      tag_181\n        /* \"#utility.yul\":7081:7088   */\n      dup9\n        /* \"#utility.yul\":7072:7078   */\n      dup3\n        /* \"#utility.yul\":7061:7070   */\n      dup10\n        /* \"#utility.yul\":7057:7079   */\n      add\n        /* \"#utility.yul\":7026:7089   */\n      tag_96\n      jump\t// in\n    tag_181:\n        /* \"#utility.yul\":7016:7089   */\n      swap2\n      pop\n        /* \"#utility.yul\":6970:7099   */\n      pop\n        /* \"#utility.yul\":6135:7106   */\n      swap3\n      swap6\n      pop\n      swap3\n      swap6\n      swap1\n      swap4\n      pop\n      jump\t// out\n        /* \"#utility.yul\":7112:8103   */\n    tag_69:\n        /* \"#utility.yul\":7151:7158   */\n      0x00\n        /* \"#utility.yul\":7174:7193   */\n      tag_183\n        /* \"#utility.yul\":7191:7192   */\n      dup3\n        /* \"#utility.yul\":7174:7193   */\n      tag_97\n      jump\t// in\n    tag_183:\n        /* \"#utility.yul\":7169:7193   */\n      swap2\n      pop\n        /* \"#utility.yul\":7207:7226   */\n      tag_184\n        /* \"#utility.yul\":7224:7225   */\n      dup4\n        /* \"#utility.yul\":7207:7226   */\n      tag_97\n      jump\t// in\n    tag_184:\n        /* \"#utility.yul\":7202:7226   */\n      swap3\n      pop\n        /* \"#utility.yul\":7408:7409   */\n      dup3\n        /* \"#utility.yul\":7340:7406   */\n      0x7fffffffffffffffffffffffffffffffffffffffffffffffffffffffffffffff\n        /* \"#utility.yul\":7336:7410   */\n      div\n        /* \"#utility.yul\":7333:7334   */\n      dup3\n        /* \"#utility.yul\":7330:7411   */\n      gt\n        /* \"#utility.yul\":7325:7326   */\n      0x00\n        /* \"#utility.yul\":7322:7323   */\n      dup5\n        /* \"#utility.yul\":7318:7327   */\n      sgt\n        /* \"#utility.yul\":7314:7315   */\n      0x00\n        /* \"#utility.yul\":7311:7312   */\n      dup5\n        /* \"#utility.yul\":7307:7316   */\n      sgt\n        /* \"#utility.yul\":7303:7328   */\n      and\n        /* \"#utility.yul\":7299:7412   */\n      and\n        /* \"#utility.yul\":7296:7435   */\n      iszero\n      tag_185\n      jumpi\n        /* \"#utility.yul\":7415:7433   */\n      tag_186\n      tag_89\n      jump\t// in\n    tag_186:\n        /* \"#utility.yul\":7296:7435   */\n    tag_185:\n        /* \"#utility.yul\":7619:7620   */\n      dup2\n        /* \"#utility.yul\":7551:7617   */\n      0x8000000000000000000000000000000000000000000000000000000000000000\n        /* \"#utility.yul\":7546:7621   */\n      sdiv\n        /* \"#utility.yul\":7543:7544   */\n      dup4\n        /* \"#utility.yul\":7539:7622   */\n      slt\n        /* \"#utility.yul\":7534:7535   */\n      0x00\n        /* \"#utility.yul\":7531:7532   */\n      dup5\n        /* \"#utility.yul\":7527:7536   */\n      slt\n        /* \"#utility.yul\":7523:7524   */\n      0x00\n        /* \"#utility.yul\":7520:7521   */\n      dup5\n        /* \"#utility.yul\":7516:7525   */\n      sgt\n        /* \"#utility.yul\":7512:7537   */\n      and\n        /* \"#utility.yul\":7508:7623   */\n      and\n        /* \"#utility.yul\":7505:7646   */\n      iszero\n      tag_187\n      jumpi\n        /* \"#utility.yul\":7626:7644   */\n      tag_188\n      tag_89\n      jump\t// in\n    tag_188:\n        /* \"#utility.yul\":7505:7646   */\n    tag_187:\n        /* \"#utility.yul\":7830:7831   */\n      dup3\n        /* \"#utility.yul\":7762:7828   */\n      0x8000000000000000000000000000000000000000000000000000000000000000\n        /* \"#utility.yul\":7757:7832   */\n      sdiv\n        /* \"#utility.yul\":7754:7755   */\n      dup3\n        /* \"#utility.yul\":7750:7833   */\n      slt\n        /* \"#utility.yul\":7745:7746   */\n      0x00\n        /* \"#utility.yul\":7742:7743   */\n      dup5\n        /* \"#utility.yul\":7738:7747   */\n      sgt\n        /* \"#utility.yul\":7734:7735   */\n      0x00\n        /* \"#utility.yul\":7731:7732   */\n      dup5\n        /* \"#utility.yul\":7727:7736   */\n      slt\n        /* \"#utility.yul\":7723:7748   */\n      and\n        /* \"#utility.yul\":7719:7834   */\n      and\n        /* \"#utility.yul\":7716:7857   */\n      iszero\n      tag_189\n      jumpi\n        /* \"#utility.yul\":7837:7855   */\n      tag_190\n      tag_89\n      jump\t// in\n    tag_190:\n        /* \"#utility.yul\":7716:7857   */\n    tag_189:\n        /* \"#utility.yul\":8040:8041   */\n      dup3\n        /* \"#utility.yul\":7972:8038   */\n      0x7fffffffffffffffffffffffffffffffffffffffffffffffffffffffffffffff\n        /* \"#utility.yul\":7967:8042   */\n      sdiv\n        /* \"#utility.yul\":7964:7965   */\n      dup3\n        /* \"#utility.yul\":7960:8043   */\n      slt\n        /* \"#utility.yul\":7955:7956   */\n      0x00\n        /* \"#utility.yul\":7952:7953   */\n      dup5\n        /* \"#utility.yul\":7948:7957   */\n      slt\n        /* \"#utility.yul\":7944:7945   */\n      0x00\n        /* \"#utility.yul\":7941:7942   */\n      dup5\n        /* \"#utility.yul\":7937:7946   */\n      slt\n        /* \"#utility.yul\":7933:7958   */\n      and\n        /* \"#utility.yul\":7929:8044   */\n      and\n        /* \"#utility.yul\":7926:8067   */\n      iszero\n      tag_191\n      jumpi\n        /* \"#utility.yul\":8047:8065   */\n      tag_192\n      tag_89\n      jump\t// in\n    tag_192:\n        /* \"#utility.yul\":7926:8067   */\n    tag_191:\n        /* \"#utility.yul\":8095:8096   */\n      dup3\n        /* \"#utility.yul\":8092:8093   */\n      dup3\n        /* \"#utility.yul\":8088:8097   */\n      mul\n        /* \"#utility.yul\":8077:8097   */\n      swap1\n      pop\n        /* \"#utility.yul\":7112:8103   */\n      swap3\n      swap2\n      pop\n      pop\n      jump\t// out\n\n    auxdata: 0xa264697066735822122038dcbad7a71559861536494ffdbaa07a0020863b27835dd3885e6b4815ae7d3164736f6c63430008080033\n}\n",
				"bytecode": {
					"linkReferences": {},
					"object": "60806040526802b5e3af16b188000060005534801561001d57600080fd5b50610ab98061002d6000396000f3fe60806040526004361061004a5760003560e01c8063098de8201461004f5780633ccfd60b1461007a5780633e47d6f314610091578063b60d4288146100ce578063dc0d3dff146100d8575b600080fd5b34801561005b57600080fd5b50610064610115565b6040516100719190610529565b60405180910390f35b34801561008657600080fd5b5061008f61011b565b005b34801561009d57600080fd5b506100b860048036038101906100b391906105a7565b61022a565b6040516100c59190610529565b60405180910390f35b6100d6610242565b005b3480156100e457600080fd5b506100ff60048036038101906100fa9190610600565b610338565b60405161010c919061063c565b60405180910390f35b60005481565b60005b6001805490508110156101c75760006001828154811061014157610140610657565b5b9060005260206000200160009054906101000a900473ffffffffffffffffffffffffffffffffffffffff1690506000600260008373ffffffffffffffffffffffffffffffffffffffff1673ffffffffffffffffffffffffffffffffffffffff168152602001908152602001600020819055505080806101bf906106b5565b91505061011e565b50600067ffffffffffffffff8111156101e3576101e26106fe565b5b6040519080825280602002602001820160405280156102115781602001602082028036833780820191505090505b5060019080519060200190610227929190610469565b50565b60026020528060005260406000206000915090505481565b60005461024e34610377565b101561028f576040517f08c379a00000000000000000000000000000000000000000000000000000000081526004016102869061078a565b60405180910390fd5b6001339080600181540180825580915050600190039060005260206000200160009091909190916101000a81548173ffffffffffffffffffffffffffffffffffffffff021916908373ffffffffffffffffffffffffffffffffffffffff16021790555034600260003373ffffffffffffffffffffffffffffffffffffffff1673ffffffffffffffffffffffffffffffffffffffff16815260200190815260200160002081905550565b6001818154811061034857600080fd5b906000526020600020016000915054906101000a900473ffffffffffffffffffffffffffffffffffffffff1681565b6000806103826103b1565b90506000670de0b6b3a7640000848361039b91906107aa565b6103a59190610833565b90508092505050919050565b600080738a753747a1fa494ec906ce90e9f37563a8af630e905060008173ffffffffffffffffffffffffffffffffffffffff1663feaf968c6040518163ffffffff1660e01b815260040160a06040518083038186803b15801561041357600080fd5b505afa158015610427573d6000803e3d6000fd5b505050506040513d601f19601f8201168201806040525081019061044b91906108f1565b5050509150506402540be40081610462919061096c565b9250505090565b8280548282559060005260206000209081019282156104e2579160200282015b828111156104e15782518260006101000a81548173ffffffffffffffffffffffffffffffffffffffff021916908373ffffffffffffffffffffffffffffffffffffffff16021790555091602001919060010190610489565b5b5090506104ef91906104f3565b5090565b5b8082111561050c5760008160009055506001016104f4565b5090565b6000819050919050565b61052381610510565b82525050565b600060208201905061053e600083018461051a565b92915050565b600080fd5b600073ffffffffffffffffffffffffffffffffffffffff82169050919050565b600061057482610549565b9050919050565b61058481610569565b811461058f57600080fd5b50565b6000813590506105a18161057b565b92915050565b6000602082840312156105bd576105bc610544565b5b60006105cb84828501610592565b91505092915050565b6105dd81610510565b81146105e857600080fd5b50565b6000813590506105fa816105d4565b92915050565b60006020828403121561061657610615610544565b5b6000610624848285016105eb565b91505092915050565b61063681610569565b82525050565b6000602082019050610651600083018461062d565b92915050565b7f4e487b7100000000000000000000000000000000000000000000000000000000600052603260045260246000fd5b7f4e487b7100000000000000000000000000000000000000000000000000000000600052601160045260246000fd5b60006106c082610510565b91507fffffffffffffffffffffffffffffffffffffffffffffffffffffffffffffffff8214156106f3576106f2610686565b5b600182019050919050565b7f4e487b7100000000000000000000000000000000000000000000000000000000600052604160045260246000fd5b600082825260208201905092915050565b7f446964206e6f742073656e6420656e6f75676821000000000000000000000000600082015250565b600061077460148361072d565b915061077f8261073e565b602082019050919050565b600060208201905081810360008301526107a381610767565b9050919050565b60006107b582610510565b91506107c083610510565b9250817fffffffffffffffffffffffffffffffffffffffffffffffffffffffffffffffff04831182151516156107f9576107f8610686565b5b828202905092915050565b7f4e487b7100000000000000000000000000000000000000000000000000000000600052601260045260246000fd5b600061083e82610510565b915061084983610510565b92508261085957610858610804565b5b828204905092915050565b600069ffffffffffffffffffff82169050919050565b61088381610864565b811461088e57600080fd5b50565b6000815190506108a08161087a565b92915050565b6000819050919050565b6108b9816108a6565b81146108c457600080fd5b50565b6000815190506108d6816108b0565b92915050565b6000815190506108eb816105d4565b92915050565b600080600080600060a0868803121561090d5761090c610544565b5b600061091b88828901610891565b955050602061092c888289016108c7565b945050604061093d888289016108dc565b935050606061094e888289016108dc565b925050608061095f88828901610891565b9150509295509295909350565b6000610977826108a6565b9150610982836108a6565b9250827f7fffffffffffffffffffffffffffffffffffffffffffffffffffffffffffffff04821160008413600084131616156109c1576109c0610686565b5b817f800000000000000000000000000000000000000000000000000000000000000005831260008412600084131616156109fe576109fd610686565b5b827f80000000000000000000000000000000000000000000000000000000000000000582126000841360008412161615610a3b57610a3a610686565b5b827f7fffffffffffffffffffffffffffffffffffffffffffffffffffffffffffffff0582126000841260008412161615610a7857610a77610686565b5b82820290509291505056fea264697066735822122038dcbad7a71559861536494ffdbaa07a0020863b27835dd3885e6b4815ae7d3164736f6c63430008080033",
					"opcodes": "PUSH1 0x80 PUSH1 0x40 MSTORE PUSH9 0x2B5E3AF16B1880000 PUSH1 0x0 SSTORE CALLVALUE DUP1 ISZERO PUSH2 0x1D JUMPI PUSH1 0x0 DUP1 REVERT JUMPDEST POP PUSH2 0xAB9 DUP1 PUSH2 0x2D PUSH1 0x0 CODECOPY PUSH1 0x0 RETURN INVALID PUSH1 0x80 PUSH1 0x40 MSTORE PUSH1 0x4 CALLDATASIZE LT PUSH2 0x4A JUMPI PUSH1 0x0 CALLDATALOAD PUSH1 0xE0 SHR DUP1 PUSH4 0x98DE820 EQ PUSH2 0x4F JUMPI DUP1 PUSH4 0x3CCFD60B EQ PUSH2 0x7A JUMPI DUP1 PUSH4 0x3E47D6F3 EQ PUSH2 0x91 JUMPI DUP1 PUSH4 0xB60D4288 EQ PUSH2 0xCE JUMPI DUP1 PUSH4 0xDC0D3DFF EQ PUSH2 0xD8 JUMPI JUMPDEST PUSH1 0x0 DUP1 REVERT JUMPDEST CALLVALUE DUP1 ISZERO PUSH2 0x5B JUMPI PUSH1 0x0 DUP1 REVERT JUMPDEST POP PUSH2 0x64 PUSH2 0x115 JUMP JUMPDEST PUSH1 0x40 MLOAD PUSH2 0x71 SWAP2 SWAP1 PUSH2 0x529 JUMP JUMPDEST PUSH1 0x40 MLOAD DUP1 SWAP2 SUB SWAP1 RETURN JUMPDEST CALLVALUE DUP1 ISZERO PUSH2 0x86 JUMPI PUSH1 0x0 DUP1 REVERT JUMPDEST POP PUSH2 0x8F PUSH2 0x11B JUMP JUMPDEST STOP JUMPDEST CALLVALUE DUP1 ISZERO PUSH2 0x9D JUMPI PUSH1 0x0 DUP1 REVERT JUMPDEST POP PUSH2 0xB8 PUSH1 0x4 DUP1 CALLDATASIZE SUB DUP2 ADD SWAP1 PUSH2 0xB3 SWAP2 SWAP1 PUSH2 0x5A7 JUMP JUMPDEST PUSH2 0x22A JUMP JUMPDEST PUSH1 0x40 MLOAD PUSH2 0xC5 SWAP2 SWAP1 PUSH2 0x529 JUMP JUMPDEST PUSH1 0x40 MLOAD DUP1 SWAP2 SUB SWAP1 RETURN JUMPDEST PUSH2 0xD6 PUSH2 0x242 JUMP JUMPDEST STOP JUMPDEST CALLVALUE DUP1 ISZERO PUSH2 0xE4 JUMPI PUSH1 0x0 DUP1 REVERT JUMPDEST POP PUSH2 0xFF PUSH1 0x4 DUP1 CALLDATASIZE SUB DUP2 ADD SWAP1 PUSH2 0xFA SWAP2 SWAP1 PUSH2 0x600 JUMP JUMPDEST PUSH2 0x338 JUMP JUMPDEST PUSH1 0x40 MLOAD PUSH2 0x10C SWAP2 SWAP1 PUSH2 0x63C JUMP JUMPDEST PUSH1 0x40 MLOAD DUP1 SWAP2 SUB SWAP1 RETURN JUMPDEST PUSH1 0x0 SLOAD DUP2 JUMP JUMPDEST PUSH1 0x0 JUMPDEST PUSH1 0x1 DUP1 SLOAD SWAP1 POP DUP2 LT ISZERO PUSH2 0x1C7 JUMPI PUSH1 0x0 PUSH1 0x1 DUP3 DUP2 SLOAD DUP2 LT PUSH2 0x141 JUMPI PUSH2 0x140 PUSH2 0x657 JUMP JUMPDEST JUMPDEST SWAP1 PUSH1 0x0 MSTORE PUSH1 0x20 PUSH1 0x0 KECCAK256 ADD PUSH1 0x0 SWAP1 SLOAD SWAP1 PUSH2 0x100 EXP SWAP1 DIV PUSH20 0xFFFFFFFFFFFFFFFFFFFFFFFFFFFFFFFFFFFFFFFF AND SWAP1 POP PUSH1 0x0 PUSH1 0x2 PUSH1 0x0 DUP4 PUSH20 0xFFFFFFFFFFFFFFFFFFFFFFFFFFFFFFFFFFFFFFFF AND PUSH20 0xFFFFFFFFFFFFFFFFFFFFFFFFFFFFFFFFFFFFFFFF AND DUP2 MSTORE PUSH1 0x20 ADD SWAP1 DUP2 MSTORE PUSH1 0x20 ADD PUSH1 0x0 KECCAK256 DUP2 SWAP1 SSTORE POP POP DUP1 DUP1 PUSH2 0x1BF SWAP1 PUSH2 0x6B5 JUMP JUMPDEST SWAP2 POP POP PUSH2 0x11E JUMP JUMPDEST POP PUSH1 0x0 PUSH8 0xFFFFFFFFFFFFFFFF DUP2 GT ISZERO PUSH2 0x1E3 JUMPI PUSH2 0x1E2 PUSH2 0x6FE JUMP JUMPDEST JUMPDEST PUSH1 0x40 MLOAD SWAP1 DUP1 DUP3 MSTORE DUP1 PUSH1 0x20 MUL PUSH1 0x20 ADD DUP3 ADD PUSH1 0x40 MSTORE DUP1 ISZERO PUSH2 0x211 JUMPI DUP2 PUSH1 0x20 ADD PUSH1 0x20 DUP3 MUL DUP1 CALLDATASIZE DUP4 CALLDATACOPY DUP1 DUP3 ADD SWAP2 POP POP SWAP1 POP JUMPDEST POP PUSH1 0x1 SWAP1 DUP1 MLOAD SWAP1 PUSH1 0x20 ADD SWAP1 PUSH2 0x227 SWAP3 SWAP2 SWAP1 PUSH2 0x469 JUMP JUMPDEST POP JUMP JUMPDEST PUSH1 0x2 PUSH1 0x20 MSTORE DUP1 PUSH1 0x0 MSTORE PUSH1 0x40 PUSH1 0x0 KECCAK256 PUSH1 0x0 SWAP2 POP SWAP1 POP SLOAD DUP2 JUMP JUMPDEST PUSH1 0x0 SLOAD PUSH2 0x24E CALLVALUE PUSH2 0x377 JUMP JUMPDEST LT ISZERO PUSH2 0x28F JUMPI PUSH1 0x40 MLOAD PUSH32 0x8C379A000000000000000000000000000000000000000000000000000000000 DUP2 MSTORE PUSH1 0x4 ADD PUSH2 0x286 SWAP1 PUSH2 0x78A JUMP JUMPDEST PUSH1 0x40 MLOAD DUP1 SWAP2 SUB SWAP1 REVERT JUMPDEST PUSH1 0x1 CALLER SWAP1 DUP1 PUSH1 0x1 DUP2 SLOAD ADD DUP1 DUP3 SSTORE DUP1 SWAP2 POP POP PUSH1 0x1 SWAP1 SUB SWAP1 PUSH1 0x0 MSTORE PUSH1 0x20 PUSH1 0x0 KECCAK256 ADD PUSH1 0x0 SWAP1 SWAP2 SWAP1 SWAP2 SWAP1 SWAP2 PUSH2 0x100 EXP DUP2 SLOAD DUP2 PUSH20 0xFFFFFFFFFFFFFFFFFFFFFFFFFFFFFFFFFFFFFFFF MUL NOT AND SWAP1 DUP4 PUSH20 0xFFFFFFFFFFFFFFFFFFFFFFFFFFFFFFFFFFFFFFFF AND MUL OR SWAP1 SSTORE POP CALLVALUE PUSH1 0x2 PUSH1 0x0 CALLER PUSH20 0xFFFFFFFFFFFFFFFFFFFFFFFFFFFFFFFFFFFFFFFF AND PUSH20 0xFFFFFFFFFFFFFFFFFFFFFFFFFFFFFFFFFFFFFFFF AND DUP2 MSTORE PUSH1 0x20 ADD SWAP1 DUP2 MSTORE PUSH1 0x20 ADD PUSH1 0x0 KECCAK256 DUP2 SWAP1 SSTORE POP JUMP JUMPDEST PUSH1 0x1 DUP2 DUP2 SLOAD DUP2 LT PUSH2 0x348 JUMPI PUSH1 0x0 DUP1 REVERT JUMPDEST SWAP1 PUSH1 0x0 MSTORE PUSH1 0x20 PUSH1 0x0 KECCAK256 ADD PUSH1 0x0 SWAP2 POP SLOAD SWAP1 PUSH2 0x100 EXP SWAP1 DIV PUSH20 0xFFFFFFFFFFFFFFFFFFFFFFFFFFFFFFFFFFFFFFFF AND DUP2 JUMP JUMPDEST PUSH1 0x0 DUP1 PUSH2 0x382 PUSH2 0x3B1 JUMP JUMPDEST SWAP1 POP PUSH1 0x0 PUSH8 0xDE0B6B3A7640000 DUP5 DUP4 PUSH2 0x39B SWAP2 SWAP1 PUSH2 0x7AA JUMP JUMPDEST PUSH2 0x3A5 SWAP2 SWAP1 PUSH2 0x833 JUMP JUMPDEST SWAP1 POP DUP1 SWAP3 POP POP POP SWAP2 SWAP1 POP JUMP JUMPDEST PUSH1 0x0 DUP1 PUSH20 0x8A753747A1FA494EC906CE90E9F37563A8AF630E SWAP1 POP PUSH1 0x0 DUP2 PUSH20 0xFFFFFFFFFFFFFFFFFFFFFFFFFFFFFFFFFFFFFFFF AND PUSH4 0xFEAF968C PUSH1 0x40 MLOAD DUP2 PUSH4 0xFFFFFFFF AND PUSH1 0xE0 SHL DUP2 MSTORE PUSH1 0x4 ADD PUSH1 0xA0 PUSH1 0x40 MLOAD DUP1 DUP4 SUB DUP2 DUP7 DUP1 EXTCODESIZE ISZERO DUP1 ISZERO PUSH2 0x413 JUMPI PUSH1 0x0 DUP1 REVERT JUMPDEST POP GAS STATICCALL ISZERO DUP1 ISZERO PUSH2 0x427 JUMPI RETURNDATASIZE PUSH1 0x0 DUP1 RETURNDATACOPY RETURNDATASIZE PUSH1 0x0 REVERT JUMPDEST POP POP POP POP PUSH1 0x40 MLOAD RETURNDATASIZE PUSH1 0x1F NOT PUSH1 0x1F DUP3 ADD AND DUP3 ADD DUP1 PUSH1 0x40 MSTORE POP DUP2 ADD SWAP1 PUSH2 0x44B SWAP2 SWAP1 PUSH2 0x8F1 JUMP JUMPDEST POP POP POP SWAP2 POP POP PUSH5 0x2540BE400 DUP2 PUSH2 0x462 SWAP2 SWAP1 PUSH2 0x96C JUMP JUMPDEST SWAP3 POP POP POP SWAP1 JUMP JUMPDEST DUP3 DUP1 SLOAD DUP3 DUP3 SSTORE SWAP1 PUSH1 0x0 MSTORE PUSH1 0x20 PUSH1 0x0 KECCAK256 SWAP1 DUP2 ADD SWAP3 DUP3 ISZERO PUSH2 0x4E2 JUMPI SWAP2 PUSH1 0x20 MUL DUP3 ADD JUMPDEST DUP3 DUP2 GT ISZERO PUSH2 0x4E1 JUMPI DUP3 MLOAD DUP3 PUSH1 0x0 PUSH2 0x100 EXP DUP2 SLOAD DUP2 PUSH20 0xFFFFFFFFFFFFFFFFFFFFFFFFFFFFFFFFFFFFFFFF MUL NOT AND SWAP1 DUP4 PUSH20 0xFFFFFFFFFFFFFFFFFFFFFFFFFFFFFFFFFFFFFFFF AND MUL OR SWAP1 SSTORE POP SWAP2 PUSH1 0x20 ADD SWAP2 SWAP1 PUSH1 0x1 ADD SWAP1 PUSH2 0x489 JUMP JUMPDEST JUMPDEST POP SWAP1 POP PUSH2 0x4EF SWAP2 SWAP1 PUSH2 0x4F3 JUMP JUMPDEST POP SWAP1 JUMP JUMPDEST JUMPDEST DUP1 DUP3 GT ISZERO PUSH2 0x50C JUMPI PUSH1 0x0 DUP2 PUSH1 0x0 SWAP1 SSTORE POP PUSH1 0x1 ADD PUSH2 0x4F4 JUMP JUMPDEST POP SWAP1 JUMP JUMPDEST PUSH1 0x0 DUP2 SWAP1 POP SWAP2 SWAP1 POP JUMP JUMPDEST PUSH2 0x523 DUP2 PUSH2 0x510 JUMP JUMPDEST DUP3 MSTORE POP POP JUMP JUMPDEST PUSH1 0x0 PUSH1 0x20 DUP3 ADD SWAP1 POP PUSH2 0x53E PUSH1 0x0 DUP4 ADD DUP5 PUSH2 0x51A JUMP JUMPDEST SWAP3 SWAP2 POP POP JUMP JUMPDEST PUSH1 0x0 DUP1 REVERT JUMPDEST PUSH1 0x0 PUSH20 0xFFFFFFFFFFFFFFFFFFFFFFFFFFFFFFFFFFFFFFFF DUP3 AND SWAP1 POP SWAP2 SWAP1 POP JUMP JUMPDEST PUSH1 0x0 PUSH2 0x574 DUP3 PUSH2 0x549 JUMP JUMPDEST SWAP1 POP SWAP2 SWAP1 POP JUMP JUMPDEST PUSH2 0x584 DUP2 PUSH2 0x569 JUMP JUMPDEST DUP2 EQ PUSH2 0x58F JUMPI PUSH1 0x0 DUP1 REVERT JUMPDEST POP JUMP JUMPDEST PUSH1 0x0 DUP2 CALLDATALOAD SWAP1 POP PUSH2 0x5A1 DUP2 PUSH2 0x57B JUMP JUMPDEST SWAP3 SWAP2 POP POP JUMP JUMPDEST PUSH1 0x0 PUSH1 0x20 DUP3 DUP5 SUB SLT ISZERO PUSH2 0x5BD JUMPI PUSH2 0x5BC PUSH2 0x544 JUMP JUMPDEST JUMPDEST PUSH1 0x0 PUSH2 0x5CB DUP5 DUP3 DUP6 ADD PUSH2 0x592 JUMP JUMPDEST SWAP2 POP POP SWAP3 SWAP2 POP POP JUMP JUMPDEST PUSH2 0x5DD DUP2 PUSH2 0x510 JUMP JUMPDEST DUP2 EQ PUSH2 0x5E8 JUMPI PUSH1 0x0 DUP1 REVERT JUMPDEST POP JUMP JUMPDEST PUSH1 0x0 DUP2 CALLDATALOAD SWAP1 POP PUSH2 0x5FA DUP2 PUSH2 0x5D4 JUMP JUMPDEST SWAP3 SWAP2 POP POP JUMP JUMPDEST PUSH1 0x0 PUSH1 0x20 DUP3 DUP5 SUB SLT ISZERO PUSH2 0x616 JUMPI PUSH2 0x615 PUSH2 0x544 JUMP JUMPDEST JUMPDEST PUSH1 0x0 PUSH2 0x624 DUP5 DUP3 DUP6 ADD PUSH2 0x5EB JUMP JUMPDEST SWAP2 POP POP SWAP3 SWAP2 POP POP JUMP JUMPDEST PUSH2 0x636 DUP2 PUSH2 0x569 JUMP JUMPDEST DUP3 MSTORE POP POP JUMP JUMPDEST PUSH1 0x0 PUSH1 0x20 DUP3 ADD SWAP1 POP PUSH2 0x651 PUSH1 0x0 DUP4 ADD DUP5 PUSH2 0x62D JUMP JUMPDEST SWAP3 SWAP2 POP POP JUMP JUMPDEST PUSH32 0x4E487B7100000000000000000000000000000000000000000000000000000000 PUSH1 0x0 MSTORE PUSH1 0x32 PUSH1 0x4 MSTORE PUSH1 0x24 PUSH1 0x0 REVERT JUMPDEST PUSH32 0x4E487B7100000000000000000000000000000000000000000000000000000000 PUSH1 0x0 MSTORE PUSH1 0x11 PUSH1 0x4 MSTORE PUSH1 0x24 PUSH1 0x0 REVERT JUMPDEST PUSH1 0x0 PUSH2 0x6C0 DUP3 PUSH2 0x510 JUMP JUMPDEST SWAP2 POP PUSH32 0xFFFFFFFFFFFFFFFFFFFFFFFFFFFFFFFFFFFFFFFFFFFFFFFFFFFFFFFFFFFFFFFF DUP3 EQ ISZERO PUSH2 0x6F3 JUMPI PUSH2 0x6F2 PUSH2 0x686 JUMP JUMPDEST JUMPDEST PUSH1 0x1 DUP3 ADD SWAP1 POP SWAP2 SWAP1 POP JUMP JUMPDEST PUSH32 0x4E487B7100000000000000000000000000000000000000000000000000000000 PUSH1 0x0 MSTORE PUSH1 0x41 PUSH1 0x4 MSTORE PUSH1 0x24 PUSH1 0x0 REVERT JUMPDEST PUSH1 0x0 DUP3 DUP3 MSTORE PUSH1 0x20 DUP3 ADD SWAP1 POP SWAP3 SWAP2 POP POP JUMP JUMPDEST PUSH32 0x446964206E6F742073656E6420656E6F75676821000000000000000000000000 PUSH1 0x0 DUP3 ADD MSTORE POP JUMP JUMPDEST PUSH1 0x0 PUSH2 0x774 PUSH1 0x14 DUP4 PUSH2 0x72D JUMP JUMPDEST SWAP2 POP PUSH2 0x77F DUP3 PUSH2 0x73E JUMP JUMPDEST PUSH1 0x20 DUP3 ADD SWAP1 POP SWAP2 SWAP1 POP JUMP JUMPDEST PUSH1 0x0 PUSH1 0x20 DUP3 ADD SWAP1 POP DUP2 DUP2 SUB PUSH1 0x0 DUP4 ADD MSTORE PUSH2 0x7A3 DUP2 PUSH2 0x767 JUMP JUMPDEST SWAP1 POP SWAP2 SWAP1 POP JUMP JUMPDEST PUSH1 0x0 PUSH2 0x7B5 DUP3 PUSH2 0x510 JUMP JUMPDEST SWAP2 POP PUSH2 0x7C0 DUP4 PUSH2 0x510 JUMP JUMPDEST SWAP3 POP DUP2 PUSH32 0xFFFFFFFFFFFFFFFFFFFFFFFFFFFFFFFFFFFFFFFFFFFFFFFFFFFFFFFFFFFFFFFF DIV DUP4 GT DUP3 ISZERO ISZERO AND ISZERO PUSH2 0x7F9 JUMPI PUSH2 0x7F8 PUSH2 0x686 JUMP JUMPDEST JUMPDEST DUP3 DUP3 MUL SWAP1 POP SWAP3 SWAP2 POP POP JUMP JUMPDEST PUSH32 0x4E487B7100000000000000000000000000000000000000000000000000000000 PUSH1 0x0 MSTORE PUSH1 0x12 PUSH1 0x4 MSTORE PUSH1 0x24 PUSH1 0x0 REVERT JUMPDEST PUSH1 0x0 PUSH2 0x83E DUP3 PUSH2 0x510 JUMP JUMPDEST SWAP2 POP PUSH2 0x849 DUP4 PUSH2 0x510 JUMP JUMPDEST SWAP3 POP DUP3 PUSH2 0x859 JUMPI PUSH2 0x858 PUSH2 0x804 JUMP JUMPDEST JUMPDEST DUP3 DUP3 DIV SWAP1 POP SWAP3 SWAP2 POP POP JUMP JUMPDEST PUSH1 0x0 PUSH10 0xFFFFFFFFFFFFFFFFFFFF DUP3 AND SWAP1 POP SWAP2 SWAP1 POP JUMP JUMPDEST PUSH2 0x883 DUP2 PUSH2 0x864 JUMP JUMPDEST DUP2 EQ PUSH2 0x88E JUMPI PUSH1 0x0 DUP1 REVERT JUMPDEST POP JUMP JUMPDEST PUSH1 0x0 DUP2 MLOAD SWAP1 POP PUSH2 0x8A0 DUP2 PUSH2 0x87A JUMP JUMPDEST SWAP3 SWAP2 POP POP JUMP JUMPDEST PUSH1 0x0 DUP2 SWAP1 POP SWAP2 SWAP1 POP JUMP JUMPDEST PUSH2 0x8B9 DUP2 PUSH2 0x8A6 JUMP JUMPDEST DUP2 EQ PUSH2 0x8C4 JUMPI PUSH1 0x0 DUP1 REVERT JUMPDEST POP JUMP JUMPDEST PUSH1 0x0 DUP2 MLOAD SWAP1 POP PUSH2 0x8D6 DUP2 PUSH2 0x8B0 JUMP JUMPDEST SWAP3 SWAP2 POP POP JUMP JUMPDEST PUSH1 0x0 DUP2 MLOAD SWAP1 POP PUSH2 0x8EB DUP2 PUSH2 0x5D4 JUMP JUMPDEST SWAP3 SWAP2 POP POP JUMP JUMPDEST PUSH1 0x0 DUP1 PUSH1 0x0 DUP1 PUSH1 0x0 PUSH1 0xA0 DUP7 DUP9 SUB SLT ISZERO PUSH2 0x90D JUMPI PUSH2 0x90C PUSH2 0x544 JUMP JUMPDEST JUMPDEST PUSH1 0x0 PUSH2 0x91B DUP9 DUP3 DUP10 ADD PUSH2 0x891 JUMP JUMPDEST SWAP6 POP POP PUSH1 0x20 PUSH2 0x92C DUP9 DUP3 DUP10 ADD PUSH2 0x8C7 JUMP JUMPDEST SWAP5 POP POP PUSH1 0x40 PUSH2 0x93D DUP9 DUP3 DUP10 ADD PUSH2 0x8DC JUMP JUMPDEST SWAP4 POP POP PUSH1 0x60 PUSH2 0x94E DUP9 DUP3 DUP10 ADD PUSH2 0x8DC JUMP JUMPDEST SWAP3 POP POP PUSH1 0x80 PUSH2 0x95F DUP9 DUP3 DUP10 ADD PUSH2 0x891 JUMP JUMPDEST SWAP2 POP POP SWAP3 SWAP6 POP SWAP3 SWAP6 SWAP1 SWAP4 POP JUMP JUMPDEST PUSH1 0x0 PUSH2 0x977 DUP3 PUSH2 0x8A6 JUMP JUMPDEST SWAP2 POP PUSH2 0x982 DUP4 PUSH2 0x8A6 JUMP JUMPDEST SWAP3 POP DUP3 PUSH32 0x7FFFFFFFFFFFFFFFFFFFFFFFFFFFFFFFFFFFFFFFFFFFFFFFFFFFFFFFFFFFFFFF DIV DUP3 GT PUSH1 0x0 DUP5 SGT PUSH1 0x0 DUP5 SGT AND AND ISZERO PUSH2 0x9C1 JUMPI PUSH2 0x9C0 PUSH2 0x686 JUMP JUMPDEST JUMPDEST DUP2 PUSH32 0x8000000000000000000000000000000000000000000000000000000000000000 SDIV DUP4 SLT PUSH1 0x0 DUP5 SLT PUSH1 0x0 DUP5 SGT AND AND ISZERO PUSH2 0x9FE JUMPI PUSH2 0x9FD PUSH2 0x686 JUMP JUMPDEST JUMPDEST DUP3 PUSH32 0x8000000000000000000000000000000000000000000000000000000000000000 SDIV DUP3 SLT PUSH1 0x0 DUP5 SGT PUSH1 0x0 DUP5 SLT AND AND ISZERO PUSH2 0xA3B JUMPI PUSH2 0xA3A PUSH2 0x686 JUMP JUMPDEST JUMPDEST DUP3 PUSH32 0x7FFFFFFFFFFFFFFFFFFFFFFFFFFFFFFFFFFFFFFFFFFFFFFFFFFFFFFFFFFFFFFF SDIV DUP3 SLT PUSH1 0x0 DUP5 SLT PUSH1 0x0 DUP5 SLT AND AND ISZERO PUSH2 0xA78 JUMPI PUSH2 0xA77 PUSH2 0x686 JUMP JUMPDEST JUMPDEST DUP3 DUP3 MUL SWAP1 POP SWAP3 SWAP2 POP POP JUMP INVALID LOG2 PUSH5 0x6970667358 0x22 SLT KECCAK256 CODESIZE 0xDC 0xBA 0xD7 0xA7 ISZERO MSIZE DUP7 ISZERO CALLDATASIZE 0x49 0x4F REVERT 0xBA LOG0 PUSH27 0x20863B27835DD3885E6B4815AE7D3164736F6C63430008080033 "
				},
				"gasEstimates": {
					"creation": {
						"codeDepositCost": "549000",
						"executionCost": "22687",
						"totalCost": "571687"
					},
					"external": {
						"addressToAmountFunded(address)": "2836",
						"fund()": "infinite",
						"funders(uint256)": "5022",
						"minimumUsd()": "2407",
						"withdraw()": "infinite"
					}
				},
				"methodIdentifiers": {
					"addressToAmountFunded(address)": "3e47d6f3",
					"fund()": "b60d4288",
					"funders(uint256)": "dc0d3dff",
					"minimumUsd()": "098de820",
					"withdraw()": "3ccfd60b"
				}
			},
			"storageLayout": {
				"storage": [
					{
						"astId": 56,
						"contract": "contracts/FundMe.sol:FundMe",
						"label": "minimumUsd",
						"offset": 0,
						"slot": "0",
						"type": "t_uint256"
					},
					{
						"astId": 59,
						"contract": "contracts/FundMe.sol:FundMe",
						"label": "funders",
						"offset": 0,
						"slot": "1",
						"type": "t_array(t_address)dyn_storage"
					},
					{
						"astId": 63,
						"contract": "contracts/FundMe.sol:FundMe",
						"label": "addressToAmountFunded",
						"offset": 0,
						"slot": "2",
						"type": "t_mapping(t_address,t_uint256)"
					}
				],
				"types": {
					"t_address": {
						"encoding": "inplace",
						"label": "address",
						"numberOfBytes": "20"
					},
					"t_array(t_address)dyn_storage": {
						"base": "t_address",
						"encoding": "dynamic_array",
						"label": "address[]",
						"numberOfBytes": "32"
					},
					"t_mapping(t_address,t_uint256)": {
						"encoding": "mapping",
						"key": "t_address",
						"label": "mapping(address => uint256)",
						"numberOfBytes": "32",
						"value": "t_uint256"
					},
					"t_uint256": {
						"encoding": "inplace",
						"label": "uint256",
						"numberOfBytes": "32"
					}
				}
			},
			"userdoc": {
				"kind": "user",
				"methods": {},
				"version": 1
			}
		}
	}
}