{
	"contracts/AllowanceTarget.sol": {
		"AllowanceTarget": {
			"abi": [
				{
					"inputs": [
						{
							"internalType": "address",
							"name": "_spender",
							"type": "address"
						}
					],
					"stateMutability": "nonpayable",
					"type": "constructor"
				},
				{
					"inputs": [],
					"name": "completeSetSpender",
					"outputs": [],
					"stateMutability": "nonpayable",
					"type": "function"
				},
				{
					"inputs": [
						{
							"internalType": "address payable",
							"name": "target",
							"type": "address"
						},
						{
							"internalType": "bytes",
							"name": "callData",
							"type": "bytes"
						}
					],
					"name": "executeCall",
					"outputs": [
						{
							"internalType": "bytes",
							"name": "resultData",
							"type": "bytes"
						}
					],
					"stateMutability": "nonpayable",
					"type": "function"
				},
				{
					"inputs": [],
					"name": "newSpender",
					"outputs": [
						{
							"internalType": "address",
							"name": "",
							"type": "address"
						}
					],
					"stateMutability": "view",
					"type": "function"
				},
				{
					"inputs": [
						{
							"internalType": "address",
							"name": "_newSpender",
							"type": "address"
						}
					],
					"name": "setSpenderWithTimelock",
					"outputs": [],
					"stateMutability": "nonpayable",
					"type": "function"
				},
				{
					"inputs": [],
					"name": "spender",
					"outputs": [
						{
							"internalType": "address",
							"name": "",
							"type": "address"
						}
					],
					"stateMutability": "view",
					"type": "function"
				},
				{
					"inputs": [],
					"name": "teardown",
					"outputs": [],
					"stateMutability": "nonpayable",
					"type": "function"
				},
				{
					"inputs": [],
					"name": "timelockExpirationTime",
					"outputs": [
						{
							"internalType": "uint256",
							"name": "",
							"type": "uint256"
						}
					],
					"stateMutability": "view",
					"type": "function"
				}
			],
			"devdoc": {
				"details": "AllowanceTarget contract",
				"methods": {
					"executeCall(address,bytes)": {
						"details": "Execute an arbitrary call. Only an authority can call this.",
						"params": {
							"callData": "The call data.",
							"target": "The call target."
						},
						"returns": {
							"resultData": "The data returned by the call."
						}
					}
				}
			},
			"evm": {
				"assembly": "    /* \"contracts/AllowanceTarget.sol\":165:2379  contract AllowanceTarget is IAllowanceTarget {... */\n  mstore(0x40, 0x80)\n    /* \"contracts/AllowanceTarget.sol\":534:716  constructor(address _spender) public {... */\n  callvalue\n    /* \"--CODEGEN--\":5:14   */\n  dup1\n    /* \"--CODEGEN--\":2:4   */\n  iszero\n  tag_1\n  jumpi\n    /* \"--CODEGEN--\":27:28   */\n  0x00\n    /* \"--CODEGEN--\":24:25   */\n  dup1\n    /* \"--CODEGEN--\":17:29   */\n  revert\n    /* \"--CODEGEN--\":2:4   */\ntag_1:\n    /* \"contracts/AllowanceTarget.sol\":534:716  constructor(address _spender) public {... */\n  pop\n  mload(0x40)\n  sub(codesize, bytecodeSize)\n  dup1\n  bytecodeSize\n  dup4\n  codecopy\n  dup2\n  dup2\n  add\n  0x40\n  mstore\n    /* \"--CODEGEN--\":15:17   */\n  0x20\n    /* \"--CODEGEN--\":10:13   */\n  dup2\n    /* \"--CODEGEN--\":7:18   */\n  lt\n    /* \"--CODEGEN--\":4:6   */\n  iszero\n  tag_2\n  jumpi\n    /* \"--CODEGEN--\":31:32   */\n  0x00\n    /* \"--CODEGEN--\":28:29   */\n  dup1\n    /* \"--CODEGEN--\":21:33   */\n  revert\n    /* \"--CODEGEN--\":4:6   */\ntag_2:\n    /* \"contracts/AllowanceTarget.sol\":534:716  constructor(address _spender) public {... */\n  dup2\n  add\n  swap1\n  dup1\n  dup1\n  mload\n  swap1\n  0x20\n  add\n  swap1\n  swap3\n  swap2\n  swap1\n  pop\n  pop\n  pop\n    /* \"contracts/AllowanceTarget.sol\":609:610  0 */\n  0x00\n    /* \"contracts/AllowanceTarget.sol\":589:611  _spender != address(0) */\n  0xffffffffffffffffffffffffffffffffffffffff\n  and\n    /* \"contracts/AllowanceTarget.sol\":589:597  _spender */\n  dup2\n    /* \"contracts/AllowanceTarget.sol\":589:611  _spender != address(0) */\n  0xffffffffffffffffffffffffffffffffffffffff\n  and\n  eq\n  iszero\n    /* \"contracts/AllowanceTarget.sol\":581:657  require(_spender != address(0), \"AllowanceTarget: _spender should not be 0\") */\n  tag_5\n  jumpi\n  mload(0x40)\n  0x08c379a000000000000000000000000000000000000000000000000000000000\n  dup2\n  mstore\n  0x04\n  add\n  dup1\n  dup1\n  0x20\n  add\n  dup3\n  dup2\n  sub\n  dup3\n  mstore\n  0x29\n  dup2\n  mstore\n  0x20\n  add\n  dup1\n  data_577fdc48386f3c97303b29c4b8fdbf200adf4e06840c3463255bd7dbaea4fa6f\n  0x29\n  swap2\n  codecopy\n  0x40\n  add\n  swap2\n  pop\n  pop\n  mload(0x40)\n  dup1\n  swap2\n  sub\n  swap1\n  revert\ntag_5:\n    /* \"contracts/AllowanceTarget.sol\":701:709  _spender */\n  dup1\n    /* \"contracts/AllowanceTarget.sol\":691:698  spender */\n  0x00\n  dup1\n    /* \"contracts/AllowanceTarget.sol\":691:709  spender = _spender */\n  0x0100\n  exp\n  dup2\n  sload\n  dup2\n  0xffffffffffffffffffffffffffffffffffffffff\n  mul\n  not\n  and\n  swap1\n  dup4\n  0xffffffffffffffffffffffffffffffffffffffff\n  and\n  mul\n  or\n  swap1\n  sstore\n  pop\n    /* \"contracts/AllowanceTarget.sol\":534:716  constructor(address _spender) public {... */\n  pop\n    /* \"contracts/AllowanceTarget.sol\":165:2379  contract AllowanceTarget is IAllowanceTarget {... */\n  dataSize(sub_0)\n  dup1\n  dataOffset(sub_0)\n  0x00\n  codecopy\n  0x00\n  return\nstop\ndata_577fdc48386f3c97303b29c4b8fdbf200adf4e06840c3463255bd7dbaea4fa6f 416c6c6f77616e63655461726765743a205f7370656e6465722073686f756c64206e6f742062652030\n\nsub_0: assembly {\n        /* \"contracts/AllowanceTarget.sol\":165:2379  contract AllowanceTarget is IAllowanceTarget {... */\n      mstore(0x40, 0x80)\n      callvalue\n        /* \"--CODEGEN--\":5:14   */\n      dup1\n        /* \"--CODEGEN--\":2:4   */\n      iszero\n      tag_1\n      jumpi\n        /* \"--CODEGEN--\":27:28   */\n      0x00\n        /* \"--CODEGEN--\":24:25   */\n      dup1\n        /* \"--CODEGEN--\":17:29   */\n      revert\n        /* \"--CODEGEN--\":2:4   */\n    tag_1:\n        /* \"contracts/AllowanceTarget.sol\":165:2379  contract AllowanceTarget is IAllowanceTarget {... */\n      pop\n      jumpi(tag_2, lt(calldatasize, 0x04))\n      shr(0xe0, calldataload(0x00))\n      dup1\n      0xbca8c7b5\n      gt\n      tag_10\n      jumpi\n      dup1\n      0xbca8c7b5\n      eq\n      tag_6\n      jumpi\n      dup1\n      0xbe6502e9\n      eq\n      tag_7\n      jumpi\n      dup1\n      0xe8edc816\n      eq\n      tag_8\n      jumpi\n      dup1\n      0xf9c7a0d1\n      eq\n      tag_9\n      jumpi\n      jump(tag_2)\n    tag_10:\n      dup1\n      0x48e196d1\n      eq\n      tag_3\n      jumpi\n      dup1\n      0x782a533f\n      eq\n      tag_4\n      jumpi\n      dup1\n      0x8c064e19\n      eq\n      tag_5\n      jumpi\n    tag_2:\n        /* \"--CODEGEN--\":12:13   */\n      0x00\n        /* \"--CODEGEN--\":9:10   */\n      dup1\n        /* \"--CODEGEN--\":2:14   */\n      revert\n        /* \"contracts/AllowanceTarget.sol\":1120:1501  function completeSetSpender() override external {... */\n    tag_3:\n      tag_11\n      tag_12\n      jump\t// in\n    tag_11:\n      stop\n        /* \"contracts/AllowanceTarget.sol\":335:360  address public newSpender */\n    tag_4:\n      tag_13\n      tag_14\n      jump\t// in\n    tag_13:\n      mload(0x40)\n      dup1\n      dup3\n      0xffffffffffffffffffffffffffffffffffffffff\n      and\n      0xffffffffffffffffffffffffffffffffffffffff\n      and\n      dup2\n      mstore\n      0x20\n      add\n      swap2\n      pop\n      pop\n      mload(0x40)\n      dup1\n      swap2\n      sub\n      swap1\n      return\n        /* \"contracts/AllowanceTarget.sol\":723:1114  function setSpenderWithTimelock(address _newSpender) override external onlySpender {... */\n    tag_5:\n      tag_15\n      0x04\n      dup1\n      calldatasize\n      sub\n        /* \"--CODEGEN--\":15:17   */\n      0x20\n        /* \"--CODEGEN--\":10:13   */\n      dup2\n        /* \"--CODEGEN--\":7:18   */\n      lt\n        /* \"--CODEGEN--\":4:6   */\n      iszero\n      tag_16\n      jumpi\n        /* \"--CODEGEN--\":31:32   */\n      0x00\n        /* \"--CODEGEN--\":28:29   */\n      dup1\n        /* \"--CODEGEN--\":21:33   */\n      revert\n        /* \"--CODEGEN--\":4:6   */\n    tag_16:\n        /* \"contracts/AllowanceTarget.sol\":723:1114  function setSpenderWithTimelock(address _newSpender) override external onlySpender {... */\n      dup2\n      add\n      swap1\n      dup1\n      dup1\n      calldataload\n      0xffffffffffffffffffffffffffffffffffffffff\n      and\n      swap1\n      0x20\n      add\n      swap1\n      swap3\n      swap2\n      swap1\n      pop\n      pop\n      pop\n      tag_17\n      jump\t// in\n    tag_15:\n      stop\n        /* \"contracts/AllowanceTarget.sol\":1821:2377  function executeCall(... */\n    tag_6:\n      tag_18\n      0x04\n      dup1\n      calldatasize\n      sub\n        /* \"--CODEGEN--\":15:17   */\n      0x40\n        /* \"--CODEGEN--\":10:13   */\n      dup2\n        /* \"--CODEGEN--\":7:18   */\n      lt\n        /* \"--CODEGEN--\":4:6   */\n      iszero\n      tag_19\n      jumpi\n        /* \"--CODEGEN--\":31:32   */\n      0x00\n        /* \"--CODEGEN--\":28:29   */\n      dup1\n        /* \"--CODEGEN--\":21:33   */\n      revert\n        /* \"--CODEGEN--\":4:6   */\n    tag_19:\n        /* \"contracts/AllowanceTarget.sol\":1821:2377  function executeCall(... */\n      dup2\n      add\n      swap1\n      dup1\n      dup1\n      calldataload\n      0xffffffffffffffffffffffffffffffffffffffff\n      and\n      swap1\n      0x20\n      add\n      swap1\n      swap3\n      swap2\n      swap1\n      dup1\n      calldataload\n      swap1\n      0x20\n      add\n      swap1\n        /* \"--CODEGEN--\":27:38   */\n      0x0100000000\n        /* \"--CODEGEN--\":14:25   */\n      dup2\n        /* \"--CODEGEN--\":11:39   */\n      gt\n        /* \"--CODEGEN--\":8:10   */\n      iszero\n      tag_20\n      jumpi\n        /* \"--CODEGEN--\":52:53   */\n      0x00\n        /* \"--CODEGEN--\":49:50   */\n      dup1\n        /* \"--CODEGEN--\":42:54   */\n      revert\n        /* \"--CODEGEN--\":8:10   */\n    tag_20:\n        /* \"contracts/AllowanceTarget.sol\":1821:2377  function executeCall(... */\n      dup3\n      add\n        /* \"--CODEGEN--\":41:50   */\n      dup4\n        /* \"--CODEGEN--\":34:38   */\n      0x20\n        /* \"--CODEGEN--\":18:32   */\n      dup3\n        /* \"--CODEGEN--\":14:39   */\n      add\n        /* \"--CODEGEN--\":11:51   */\n      gt\n        /* \"--CODEGEN--\":8:10   */\n      iszero\n      tag_21\n      jumpi\n        /* \"--CODEGEN--\":64:65   */\n      0x00\n        /* \"--CODEGEN--\":61:62   */\n      dup1\n        /* \"--CODEGEN--\":54:66   */\n      revert\n        /* \"--CODEGEN--\":8:10   */\n    tag_21:\n        /* \"contracts/AllowanceTarget.sol\":1821:2377  function executeCall(... */\n      dup1\n      calldataload\n      swap1\n      0x20\n      add\n      swap2\n        /* \"--CODEGEN--\":100:109   */\n      dup5\n        /* \"--CODEGEN--\":95:96   */\n      0x01\n        /* \"--CODEGEN--\":81:93   */\n      dup4\n        /* \"--CODEGEN--\":77:97   */\n      mul\n        /* \"--CODEGEN--\":67:75   */\n      dup5\n        /* \"--CODEGEN--\":63:98   */\n      add\n        /* \"--CODEGEN--\":60:110   */\n      gt\n        /* \"--CODEGEN--\":39:50   */\n      0x0100000000\n        /* \"--CODEGEN--\":25:37   */\n      dup4\n        /* \"--CODEGEN--\":22:51   */\n      gt\n        /* \"--CODEGEN--\":11:118   */\n      or\n        /* \"--CODEGEN--\":8:10   */\n      iszero\n      tag_22\n      jumpi\n        /* \"--CODEGEN--\":131:132   */\n      0x00\n        /* \"--CODEGEN--\":128:129   */\n      dup1\n        /* \"--CODEGEN--\":121:133   */\n      revert\n        /* \"--CODEGEN--\":8:10   */\n    tag_22:\n        /* \"contracts/AllowanceTarget.sol\":1821:2377  function executeCall(... */\n      swap1\n      swap2\n      swap3\n      swap4\n      swap2\n      swap3\n      swap4\n      swap1\n      pop\n      pop\n      pop\n      tag_23\n      jump\t// in\n    tag_18:\n      mload(0x40)\n      dup1\n      dup1\n      0x20\n      add\n      dup3\n      dup2\n      sub\n      dup3\n      mstore\n      dup4\n      dup2\n      dup2\n      mload\n      dup2\n      mstore\n      0x20\n      add\n      swap2\n      pop\n      dup1\n      mload\n      swap1\n      0x20\n      add\n      swap1\n      dup1\n      dup4\n      dup4\n        /* \"--CODEGEN--\":23:24   */\n      0x00\n        /* \"--CODEGEN--\":8:108   */\n    tag_24:\n        /* \"--CODEGEN--\":33:36   */\n      dup4\n        /* \"--CODEGEN--\":30:31   */\n      dup2\n        /* \"--CODEGEN--\":27:37   */\n      lt\n        /* \"--CODEGEN--\":8:108   */\n      iszero\n      tag_26\n      jumpi\n        /* \"--CODEGEN--\":99:100   */\n      dup1\n        /* \"--CODEGEN--\":94:97   */\n      dup3\n        /* \"--CODEGEN--\":90:101   */\n      add\n        /* \"--CODEGEN--\":84:102   */\n      mload\n        /* \"--CODEGEN--\":80:81   */\n      dup2\n        /* \"--CODEGEN--\":75:78   */\n      dup5\n        /* \"--CODEGEN--\":71:82   */\n      add\n        /* \"--CODEGEN--\":64:103   */\n      mstore\n        /* \"--CODEGEN--\":52:54   */\n      0x20\n        /* \"--CODEGEN--\":49:50   */\n      dup2\n        /* \"--CODEGEN--\":45:55   */\n      add\n        /* \"--CODEGEN--\":40:55   */\n      swap1\n      pop\n        /* \"--CODEGEN--\":8:108   */\n      jump(tag_24)\n    tag_26:\n        /* \"--CODEGEN--\":12:26   */\n      pop\n        /* \"contracts/AllowanceTarget.sol\":1821:2377  function executeCall(... */\n      pop\n      pop\n      pop\n      swap1\n      pop\n      swap1\n      dup2\n      add\n      swap1\n      0x1f\n      and\n      dup1\n      iszero\n      tag_27\n      jumpi\n      dup1\n      dup3\n      sub\n      dup1\n      mload\n      0x01\n      dup4\n      0x20\n      sub\n      0x0100\n      exp\n      sub\n      not\n      and\n      dup2\n      mstore\n      0x20\n      add\n      swap2\n      pop\n    tag_27:\n      pop\n      swap3\n      pop\n      pop\n      pop\n      mload(0x40)\n      dup1\n      swap2\n      sub\n      swap1\n      return\n        /* \"contracts/AllowanceTarget.sol\":1508:1605  function teardown() override external onlySpender {... */\n    tag_7:\n      tag_28\n      tag_29\n      jump\t// in\n    tag_28:\n      stop\n        /* \"contracts/AllowanceTarget.sol\":307:329  address public spender */\n    tag_8:\n      tag_30\n      tag_31\n      jump\t// in\n    tag_30:\n      mload(0x40)\n      dup1\n      dup3\n      0xffffffffffffffffffffffffffffffffffffffff\n      and\n      0xffffffffffffffffffffffffffffffffffffffff\n      and\n      dup2\n      mstore\n      0x20\n      add\n      swap2\n      pop\n      pop\n      mload(0x40)\n      dup1\n      swap2\n      sub\n      swap1\n      return\n        /* \"contracts/AllowanceTarget.sol\":366:403  uint256 public timelockExpirationTime */\n    tag_9:\n      tag_32\n      tag_33\n      jump\t// in\n    tag_32:\n      mload(0x40)\n      dup1\n      dup3\n      dup2\n      mstore\n      0x20\n      add\n      swap2\n      pop\n      pop\n      mload(0x40)\n      dup1\n      swap2\n      sub\n      swap1\n      return\n        /* \"contracts/AllowanceTarget.sol\":1120:1501  function completeSetSpender() override external {... */\n    tag_12:\n        /* \"contracts/AllowanceTarget.sol\":1212:1213  0 */\n      0x00\n        /* \"contracts/AllowanceTarget.sol\":1186:1208  timelockExpirationTime */\n      sload(0x02)\n        /* \"contracts/AllowanceTarget.sol\":1186:1213  timelockExpirationTime != 0 */\n      eq\n      iszero\n        /* \"contracts/AllowanceTarget.sol\":1178:1256  require(timelockExpirationTime != 0, \"AllowanceTarget: no pending SetSpender\") */\n      tag_35\n      jumpi\n      mload(0x40)\n      0x08c379a000000000000000000000000000000000000000000000000000000000\n      dup2\n      mstore\n      0x04\n      add\n      dup1\n      dup1\n      0x20\n      add\n      dup3\n      dup2\n      sub\n      dup3\n      mstore\n      0x26\n      dup2\n      mstore\n      0x20\n      add\n      dup1\n      data_1cc317600dd6a5d7bbf3184e144ab103ed10764080a317ddd8c3a1d44f4ef9fb\n      0x26\n      swap2\n      codecopy\n      0x40\n      add\n      swap2\n      pop\n      pop\n      mload(0x40)\n      dup1\n      swap2\n      sub\n      swap1\n      revert\n    tag_35:\n        /* \"contracts/AllowanceTarget.sol\":1281:1303  timelockExpirationTime */\n      sload(0x02)\n        /* \"contracts/AllowanceTarget.sol\":1274:1277  now */\n      timestamp\n        /* \"contracts/AllowanceTarget.sol\":1274:1303  now >= timelockExpirationTime */\n      lt\n      iszero\n        /* \"contracts/AllowanceTarget.sol\":1266:1350  require(now >= timelockExpirationTime, \"AllowanceTarget: time lock not expired yet\") */\n      tag_36\n      jumpi\n      mload(0x40)\n      0x08c379a000000000000000000000000000000000000000000000000000000000\n      dup2\n      mstore\n      0x04\n      add\n      dup1\n      dup1\n      0x20\n      add\n      dup3\n      dup2\n      sub\n      dup3\n      mstore\n      0x2a\n      dup2\n      mstore\n      0x20\n      add\n      dup1\n      data_10aa48a6740559c01befee714cbb961aa19e929d3cc300adf18d9bb50dbd547e\n      0x2a\n      swap2\n      codecopy\n      0x40\n      add\n      swap2\n      pop\n      pop\n      mload(0x40)\n      dup1\n      swap2\n      sub\n      swap1\n      revert\n    tag_36:\n        /* \"contracts/AllowanceTarget.sol\":1398:1408  newSpender */\n      0x01\n      0x00\n      swap1\n      sload\n      swap1\n      0x0100\n      exp\n      swap1\n      div\n      0xffffffffffffffffffffffffffffffffffffffff\n      and\n        /* \"contracts/AllowanceTarget.sol\":1388:1395  spender */\n      0x00\n      dup1\n        /* \"contracts/AllowanceTarget.sol\":1388:1408  spender = newSpender */\n      0x0100\n      exp\n      dup2\n      sload\n      dup2\n      0xffffffffffffffffffffffffffffffffffffffff\n      mul\n      not\n      and\n      swap1\n      dup4\n      0xffffffffffffffffffffffffffffffffffffffff\n      and\n      mul\n      or\n      swap1\n      sstore\n      pop\n        /* \"contracts/AllowanceTarget.sol\":1460:1461  0 */\n      0x00\n        /* \"contracts/AllowanceTarget.sol\":1435:1457  timelockExpirationTime */\n      0x02\n        /* \"contracts/AllowanceTarget.sol\":1435:1461  timelockExpirationTime = 0 */\n      dup2\n      swap1\n      sstore\n      pop\n        /* \"contracts/AllowanceTarget.sol\":1492:1493  0 */\n      0x00\n        /* \"contracts/AllowanceTarget.sol\":1471:1481  newSpender */\n      0x01\n      0x00\n        /* \"contracts/AllowanceTarget.sol\":1471:1494  newSpender = address(0) */\n      0x0100\n      exp\n      dup2\n      sload\n      dup2\n      0xffffffffffffffffffffffffffffffffffffffff\n      mul\n      not\n      and\n      swap1\n      dup4\n      0xffffffffffffffffffffffffffffffffffffffff\n      and\n      mul\n      or\n      swap1\n      sstore\n      pop\n        /* \"contracts/AllowanceTarget.sol\":1120:1501  function completeSetSpender() override external {... */\n      jump\t// out\n        /* \"contracts/AllowanceTarget.sol\":335:360  address public newSpender */\n    tag_14:\n      0x01\n      0x00\n      swap1\n      sload\n      swap1\n      0x0100\n      exp\n      swap1\n      div\n      0xffffffffffffffffffffffffffffffffffffffff\n      and\n      dup2\n      jump\t// out\n        /* \"contracts/AllowanceTarget.sol\":723:1114  function setSpenderWithTimelock(address _newSpender) override external onlySpender {... */\n    tag_17:\n        /* \"contracts/AllowanceTarget.sol\":462:472  msg.sender */\n      caller\n        /* \"contracts/AllowanceTarget.sol\":451:472  spender == msg.sender */\n      0xffffffffffffffffffffffffffffffffffffffff\n      and\n        /* \"contracts/AllowanceTarget.sol\":451:458  spender */\n      0x00\n      dup1\n      swap1\n      sload\n      swap1\n      0x0100\n      exp\n      swap1\n      div\n      0xffffffffffffffffffffffffffffffffffffffff\n      and\n        /* \"contracts/AllowanceTarget.sol\":451:472  spender == msg.sender */\n      0xffffffffffffffffffffffffffffffffffffffff\n      and\n      eq\n        /* \"contracts/AllowanceTarget.sol\":443:509  require(spender == msg.sender, \"AllowanceTarget: not the spender\") */\n      tag_38\n      jumpi\n      mload(0x40)\n      0x08c379a000000000000000000000000000000000000000000000000000000000\n      dup2\n      mstore\n      0x04\n      add\n      dup1\n      dup1\n      0x20\n      add\n      dup3\n      dup2\n      sub\n      dup3\n      mstore\n      0x20\n      dup2\n      mstore\n      0x20\n      add\n      dup1\n      0x416c6c6f77616e63655461726765743a206e6f7420746865207370656e646572\n      dup2\n      mstore\n      pop\n      0x20\n      add\n      swap2\n      pop\n      pop\n      mload(0x40)\n      dup1\n      swap2\n      sub\n      swap1\n      revert\n    tag_38:\n        /* \"contracts/AllowanceTarget.sol\":824:848  _newSpender.isContract() */\n      tag_40\n        /* \"contracts/AllowanceTarget.sol\":824:835  _newSpender */\n      dup2\n        /* \"contracts/AllowanceTarget.sol\":824:846  _newSpender.isContract */\n      0xffffffffffffffffffffffffffffffffffffffff\n      and\n      tag_41\n        /* \"contracts/AllowanceTarget.sol\":824:848  _newSpender.isContract() */\n      jump\t// in\n    tag_40:\n        /* \"contracts/AllowanceTarget.sol\":816:896  require(_newSpender.isContract(), \"AllowanceTarget: new spender not a contract\") */\n      tag_42\n      jumpi\n      mload(0x40)\n      0x08c379a000000000000000000000000000000000000000000000000000000000\n      dup2\n      mstore\n      0x04\n      add\n      dup1\n      dup1\n      0x20\n      add\n      dup3\n      dup2\n      sub\n      dup3\n      mstore\n      0x2b\n      dup2\n      mstore\n      0x20\n      add\n      dup1\n      data_3714051aaab2b8ecbd80caf649c0e0d87239616e3e5ed01deacaa0c3bfb3f21e\n      0x2b\n      swap2\n      codecopy\n      0x40\n      add\n      swap2\n      pop\n      pop\n      mload(0x40)\n      dup1\n      swap2\n      sub\n      swap1\n      revert\n    tag_42:\n        /* \"contracts/AllowanceTarget.sol\":936:937  0 */\n      0x00\n        /* \"contracts/AllowanceTarget.sol\":914:938  newSpender == address(0) */\n      0xffffffffffffffffffffffffffffffffffffffff\n      and\n        /* \"contracts/AllowanceTarget.sol\":914:924  newSpender */\n      0x01\n      0x00\n      swap1\n      sload\n      swap1\n      0x0100\n      exp\n      swap1\n      div\n      0xffffffffffffffffffffffffffffffffffffffff\n      and\n        /* \"contracts/AllowanceTarget.sol\":914:938  newSpender == address(0) */\n      0xffffffffffffffffffffffffffffffffffffffff\n      and\n      eq\n        /* \"contracts/AllowanceTarget.sol\":914:969  newSpender == address(0) && timelockExpirationTime == 0 */\n      dup1\n      iszero\n      tag_43\n      jumpi\n      pop\n        /* \"contracts/AllowanceTarget.sol\":968:969  0 */\n      0x00\n        /* \"contracts/AllowanceTarget.sol\":942:964  timelockExpirationTime */\n      sload(0x02)\n        /* \"contracts/AllowanceTarget.sol\":942:969  timelockExpirationTime == 0 */\n      eq\n        /* \"contracts/AllowanceTarget.sol\":914:969  newSpender == address(0) && timelockExpirationTime == 0 */\n    tag_43:\n        /* \"contracts/AllowanceTarget.sol\":906:1013  require(newSpender == address(0) && timelockExpirationTime == 0, \"AllowanceTarget: SetSpender in progress\") */\n      tag_44\n      jumpi\n      mload(0x40)\n      0x08c379a000000000000000000000000000000000000000000000000000000000\n      dup2\n      mstore\n      0x04\n      add\n      dup1\n      dup1\n      0x20\n      add\n      dup3\n      dup2\n      sub\n      dup3\n      mstore\n      0x27\n      dup2\n      mstore\n      0x20\n      add\n      dup1\n      data_a6a9230dd5f075b105b1bc804c8e031d68d9f95fa5a84bc151c915de961756ab\n      0x27\n      swap2\n      codecopy\n      0x40\n      add\n      swap2\n      pop\n      pop\n      mload(0x40)\n      dup1\n      swap2\n      sub\n      swap1\n      revert\n    tag_44:\n        /* \"contracts/AllowanceTarget.sol\":294:300  1 days */\n      0x015180\n        /* \"contracts/AllowanceTarget.sol\":1049:1052  now */\n      timestamp\n        /* \"contracts/AllowanceTarget.sol\":1049:1073  now + TIME_LOCK_DURATION */\n      add\n        /* \"contracts/AllowanceTarget.sol\":1024:1046  timelockExpirationTime */\n      0x02\n        /* \"contracts/AllowanceTarget.sol\":1024:1073  timelockExpirationTime = now + TIME_LOCK_DURATION */\n      dup2\n      swap1\n      sstore\n      pop\n        /* \"contracts/AllowanceTarget.sol\":1096:1107  _newSpender */\n      dup1\n        /* \"contracts/AllowanceTarget.sol\":1083:1093  newSpender */\n      0x01\n      0x00\n        /* \"contracts/AllowanceTarget.sol\":1083:1107  newSpender = _newSpender */\n      0x0100\n      exp\n      dup2\n      sload\n      dup2\n      0xffffffffffffffffffffffffffffffffffffffff\n      mul\n      not\n      and\n      swap1\n      dup4\n      0xffffffffffffffffffffffffffffffffffffffff\n      and\n      mul\n      or\n      swap1\n      sstore\n      pop\n        /* \"contracts/AllowanceTarget.sol\":723:1114  function setSpenderWithTimelock(address _newSpender) override external onlySpender {... */\n      pop\n      jump\t// out\n        /* \"contracts/AllowanceTarget.sol\":1821:2377  function executeCall(... */\n    tag_23:\n        /* \"contracts/AllowanceTarget.sol\":1984:2007  bytes memory resultData */\n      0x60\n        /* \"contracts/AllowanceTarget.sol\":462:472  msg.sender */\n      caller\n        /* \"contracts/AllowanceTarget.sol\":451:472  spender == msg.sender */\n      0xffffffffffffffffffffffffffffffffffffffff\n      and\n        /* \"contracts/AllowanceTarget.sol\":451:458  spender */\n      0x00\n      dup1\n      swap1\n      sload\n      swap1\n      0x0100\n      exp\n      swap1\n      div\n      0xffffffffffffffffffffffffffffffffffffffff\n      and\n        /* \"contracts/AllowanceTarget.sol\":451:472  spender == msg.sender */\n      0xffffffffffffffffffffffffffffffffffffffff\n      and\n      eq\n        /* \"contracts/AllowanceTarget.sol\":443:509  require(spender == msg.sender, \"AllowanceTarget: not the spender\") */\n      tag_46\n      jumpi\n      mload(0x40)\n      0x08c379a000000000000000000000000000000000000000000000000000000000\n      dup2\n      mstore\n      0x04\n      add\n      dup1\n      dup1\n      0x20\n      add\n      dup3\n      dup2\n      sub\n      dup3\n      mstore\n      0x20\n      dup2\n      mstore\n      0x20\n      add\n      dup1\n      0x416c6c6f77616e63655461726765743a206e6f7420746865207370656e646572\n      dup2\n      mstore\n      pop\n      0x20\n      add\n      swap2\n      pop\n      pop\n      mload(0x40)\n      dup1\n      swap2\n      sub\n      swap1\n      revert\n    tag_46:\n        /* \"contracts/AllowanceTarget.sol\":2023:2035  bool success */\n      0x00\n        /* \"contracts/AllowanceTarget.sol\":2069:2075  target */\n      dup5\n        /* \"contracts/AllowanceTarget.sol\":2069:2080  target.call */\n      0xffffffffffffffffffffffffffffffffffffffff\n      and\n        /* \"contracts/AllowanceTarget.sol\":2081:2089  callData */\n      dup5\n      dup5\n        /* \"contracts/AllowanceTarget.sol\":2069:2090  target.call(callData) */\n      mload(0x40)\n      dup1\n      dup4\n      dup4\n        /* \"--CODEGEN--\":30:33   */\n      dup1\n        /* \"--CODEGEN--\":22:28   */\n      dup3\n        /* \"--CODEGEN--\":14:20   */\n      dup5\n        /* \"--CODEGEN--\":1:34   */\n      calldatacopy\n        /* \"--CODEGEN--\":57:60   */\n      dup1\n        /* \"--CODEGEN--\":49:55   */\n      dup4\n        /* \"--CODEGEN--\":45:61   */\n      add\n        /* \"--CODEGEN--\":35:61   */\n      swap3\n      pop\n        /* \"contracts/AllowanceTarget.sol\":2069:2090  target.call(callData) */\n      pop\n      pop\n      swap3\n      pop\n      pop\n      pop\n      0x00\n      mload(0x40)\n      dup1\n      dup4\n      sub\n      dup2\n      0x00\n      dup7\n      gas\n      call\n      swap2\n      pop\n      pop\n      returndatasize\n        /* \"--CODEGEN--\":12:13   */\n      dup1\n        /* \"--CODEGEN--\":19:20   */\n      0x00\n        /* \"--CODEGEN--\":14:41   */\n      dup2\n      eq\n      tag_50\n      jumpi\n        /* \"--CODEGEN--\":67:71   */\n      0x40\n        /* \"--CODEGEN--\":61:72   */\n      mload\n        /* \"--CODEGEN--\":56:72   */\n      swap2\n      pop\n        /* \"--CODEGEN--\":134:138   */\n      0x1f\n        /* \"--CODEGEN--\":130:139   */\n      not\n        /* \"--CODEGEN--\":123:127   */\n      0x3f\n        /* \"--CODEGEN--\":105:121   */\n      returndatasize\n        /* \"--CODEGEN--\":101:128   */\n      add\n        /* \"--CODEGEN--\":97:140   */\n      and\n        /* \"--CODEGEN--\":94:95   */\n      dup3\n        /* \"--CODEGEN--\":90:141   */\n      add\n        /* \"--CODEGEN--\":84:88   */\n      0x40\n        /* \"--CODEGEN--\":77:142   */\n      mstore\n        /* \"--CODEGEN--\":157:173   */\n      returndatasize\n        /* \"--CODEGEN--\":154:155   */\n      dup3\n        /* \"--CODEGEN--\":147:174   */\n      mstore\n        /* \"--CODEGEN--\":211:227   */\n      returndatasize\n        /* \"--CODEGEN--\":208:209   */\n      0x00\n        /* \"--CODEGEN--\":201:205   */\n      0x20\n        /* \"--CODEGEN--\":198:199   */\n      dup5\n        /* \"--CODEGEN--\":194:206   */\n      add\n        /* \"--CODEGEN--\":179:228   */\n      returndatacopy\n        /* \"--CODEGEN--\":5:233   */\n      jump(tag_49)\n        /* \"--CODEGEN--\":14:41   */\n    tag_50:\n        /* \"--CODEGEN--\":32:36   */\n      0x60\n        /* \"--CODEGEN--\":27:36   */\n      swap2\n      pop\n        /* \"--CODEGEN--\":5:233   */\n    tag_49:\n      pop\n        /* \"contracts/AllowanceTarget.sol\":2045:2090  (success, resultData) = target.call(callData) */\n      dup1\n      swap4\n      pop\n      dup2\n      swap3\n      pop\n      pop\n      pop\n        /* \"contracts/AllowanceTarget.sol\":2105:2112  success */\n      dup1\n        /* \"contracts/AllowanceTarget.sol\":2100:2371  if (!success) {... */\n      tag_51\n      jumpi\n        /* \"contracts/AllowanceTarget.sol\":2218:2222  0x40 */\n      0x40\n        /* \"contracts/AllowanceTarget.sol\":2212:2223  mload(0x40) */\n      mload\n        /* \"contracts/AllowanceTarget.sol\":2252:2268  returndatasize() */\n      returndatasize\n        /* \"contracts/AllowanceTarget.sol\":2308:2312  size */\n      dup1\n        /* \"contracts/AllowanceTarget.sol\":2305:2306  0 */\n      0x00\n        /* \"contracts/AllowanceTarget.sol\":2300:2303  ptr */\n      dup4\n        /* \"contracts/AllowanceTarget.sol\":2285:2313  returndatacopy(ptr, 0, size) */\n      returndatacopy\n        /* \"contracts/AllowanceTarget.sol\":2342:2346  size */\n      dup1\n        /* \"contracts/AllowanceTarget.sol\":2337:2340  ptr */\n      dup3\n        /* \"contracts/AllowanceTarget.sol\":2330:2347  revert(ptr, size) */\n      revert\n        /* \"contracts/AllowanceTarget.sol\":2183:2361  {... */\n    tag_51:\n        /* \"contracts/AllowanceTarget.sol\":519:520  _ */\n      pop\n        /* \"contracts/AllowanceTarget.sol\":1821:2377  function executeCall(... */\n      swap4\n      swap3\n      pop\n      pop\n      pop\n      jump\t// out\n        /* \"contracts/AllowanceTarget.sol\":1508:1605  function teardown() override external onlySpender {... */\n    tag_29:\n        /* \"contracts/AllowanceTarget.sol\":462:472  msg.sender */\n      caller\n        /* \"contracts/AllowanceTarget.sol\":451:472  spender == msg.sender */\n      0xffffffffffffffffffffffffffffffffffffffff\n      and\n        /* \"contracts/AllowanceTarget.sol\":451:458  spender */\n      0x00\n      dup1\n      swap1\n      sload\n      swap1\n      0x0100\n      exp\n      swap1\n      div\n      0xffffffffffffffffffffffffffffffffffffffff\n      and\n        /* \"contracts/AllowanceTarget.sol\":451:472  spender == msg.sender */\n      0xffffffffffffffffffffffffffffffffffffffff\n      and\n      eq\n        /* \"contracts/AllowanceTarget.sol\":443:509  require(spender == msg.sender, \"AllowanceTarget: not the spender\") */\n      tag_53\n      jumpi\n      mload(0x40)\n      0x08c379a000000000000000000000000000000000000000000000000000000000\n      dup2\n      mstore\n      0x04\n      add\n      dup1\n      dup1\n      0x20\n      add\n      dup3\n      dup2\n      sub\n      dup3\n      mstore\n      0x20\n      dup2\n      mstore\n      0x20\n      add\n      dup1\n      0x416c6c6f77616e63655461726765743a206e6f7420746865207370656e646572\n      dup2\n      mstore\n      pop\n      0x20\n      add\n      swap2\n      pop\n      pop\n      mload(0x40)\n      dup1\n      swap2\n      sub\n      swap1\n      revert\n    tag_53:\n        /* \"contracts/AllowanceTarget.sol\":1589:1596  spender */\n      0x00\n      dup1\n      swap1\n      sload\n      swap1\n      0x0100\n      exp\n      swap1\n      div\n      0xffffffffffffffffffffffffffffffffffffffff\n      and\n        /* \"contracts/AllowanceTarget.sol\":1568:1598  selfdestruct(payable(spender)) */\n      0xffffffffffffffffffffffffffffffffffffffff\n      and\n      selfdestruct\n        /* \"contracts/AllowanceTarget.sol\":307:329  address public spender */\n    tag_31:\n      0x00\n      dup1\n      swap1\n      sload\n      swap1\n      0x0100\n      exp\n      swap1\n      div\n      0xffffffffffffffffffffffffffffffffffffffff\n      and\n      dup2\n      jump\t// out\n        /* \"contracts/AllowanceTarget.sol\":366:403  uint256 public timelockExpirationTime */\n    tag_33:\n      sload(0x02)\n      dup2\n      jump\t// out\n        /* \"contracts/Address.sol\":837:1250  function isContract(address account) internal view returns (bool) {... */\n    tag_41:\n        /* \"contracts/Address.sol\":897:901  bool */\n      0x00\n        /* \"contracts/Address.sol\":1100:1112  uint256 size */\n      dup1\n        /* \"contracts/Address.sol\":1209:1216  account */\n      dup3\n        /* \"contracts/Address.sol\":1197:1217  extcodesize(account) */\n      extcodesize\n        /* \"contracts/Address.sol\":1189:1217  size := extcodesize(account) */\n      swap1\n      pop\n        /* \"contracts/Address.sol\":1242:1243  0 */\n      0x00\n        /* \"contracts/Address.sol\":1235:1239  size */\n      dup2\n        /* \"contracts/Address.sol\":1235:1243  size > 0 */\n      gt\n        /* \"contracts/Address.sol\":1228:1243  return size > 0 */\n      swap2\n      pop\n      pop\n        /* \"contracts/Address.sol\":837:1250  function isContract(address account) internal view returns (bool) {... */\n      swap2\n      swap1\n      pop\n      jump\t// out\n    stop\n    data_10aa48a6740559c01befee714cbb961aa19e929d3cc300adf18d9bb50dbd547e 416c6c6f77616e63655461726765743a2074696d65206c6f636b206e6f74206578706972656420796574\n    data_1cc317600dd6a5d7bbf3184e144ab103ed10764080a317ddd8c3a1d44f4ef9fb 416c6c6f77616e63655461726765743a206e6f2070656e64696e67205365745370656e646572\n    data_3714051aaab2b8ecbd80caf649c0e0d87239616e3e5ed01deacaa0c3bfb3f21e 416c6c6f77616e63655461726765743a206e6577207370656e646572206e6f74206120636f6e7472616374\n    data_a6a9230dd5f075b105b1bc804c8e031d68d9f95fa5a84bc151c915de961756ab 416c6c6f77616e63655461726765743a205365745370656e64657220696e2070726f6772657373\n\n    auxdata: 0xa2646970667358221220bf857d6eb7ae88688a20fa7f6ea485324d204246db5f79e72176741111fd829a64736f6c63430006050033\n}\n",
				"bytecode": {
					"linkReferences": {},
					"object": "608060405234801561001057600080fd5b50604051610b12380380610b128339818101604052602081101561003357600080fd5b8101908080519060200190929190505050600073ffffffffffffffffffffffffffffffffffffffff168173ffffffffffffffffffffffffffffffffffffffff1614156100ca576040517f08c379a0000000000000000000000000000000000000000000000000000000008152600401808060200182810382526029815260200180610ae96029913960400191505060405180910390fd5b806000806101000a81548173ffffffffffffffffffffffffffffffffffffffff021916908373ffffffffffffffffffffffffffffffffffffffff160217905550506109cf8061011a6000396000f3fe608060405234801561001057600080fd5b506004361061007d5760003560e01c8063bca8c7b51161005b578063bca8c7b51461011a578063be6502e91461022c578063e8edc81614610236578063f9c7a0d1146102805761007d565b806348e196d114610082578063782a533f1461008c5780638c064e19146100d6575b600080fd5b61008a61029e565b005b610094610403565b604051808273ffffffffffffffffffffffffffffffffffffffff1673ffffffffffffffffffffffffffffffffffffffff16815260200191505060405180910390f35b610118600480360360208110156100ec57600080fd5b81019080803573ffffffffffffffffffffffffffffffffffffffff169060200190929190505050610429565b005b6101b16004803603604081101561013057600080fd5b81019080803573ffffffffffffffffffffffffffffffffffffffff1690602001909291908035906020019064010000000081111561016d57600080fd5b82018360208201111561017f57600080fd5b803590602001918460018302840111640100000000831117156101a157600080fd5b9091929391929390505050610664565b6040518080602001828103825283818151815260200191508051906020019080838360005b838110156101f15780820151818401526020810190506101d6565b50505050905090810190601f16801561021e5780820380516001836020036101000a031916815260200191505b509250505060405180910390f35b6102346107bd565b005b61023e6108b9565b604051808273ffffffffffffffffffffffffffffffffffffffff1673ffffffffffffffffffffffffffffffffffffffff16815260200191505060405180910390f35b6102886108de565b6040518082815260200191505060405180910390f35b600060025414156102fa576040517f08c379a00000000000000000000000000000000000000000000000000000000081526004018080602001828103825260268152602001806109226026913960400191505060405180910390fd5b600254421015610355576040517f08c379a000000000000000000000000000000000000000000000000000000000815260040180806020018281038252602a8152602001806108f8602a913960400191505060405180910390fd5b600160009054906101000a900473ffffffffffffffffffffffffffffffffffffffff166000806101000a81548173ffffffffffffffffffffffffffffffffffffffff021916908373ffffffffffffffffffffffffffffffffffffffff16021790555060006002819055506000600160006101000a81548173ffffffffffffffffffffffffffffffffffffffff021916908373ffffffffffffffffffffffffffffffffffffffff160217905550565b600160009054906101000a900473ffffffffffffffffffffffffffffffffffffffff1681565b3373ffffffffffffffffffffffffffffffffffffffff166000809054906101000a900473ffffffffffffffffffffffffffffffffffffffff1673ffffffffffffffffffffffffffffffffffffffff16146104eb576040517f08c379a00000000000000000000000000000000000000000000000000000000081526004018080602001828103825260208152602001807f416c6c6f77616e63655461726765743a206e6f7420746865207370656e64657281525060200191505060405180910390fd5b61050a8173ffffffffffffffffffffffffffffffffffffffff166108e4565b61055f576040517f08c379a000000000000000000000000000000000000000000000000000000000815260040180806020018281038252602b815260200180610948602b913960400191505060405180910390fd5b600073ffffffffffffffffffffffffffffffffffffffff16600160009054906101000a900473ffffffffffffffffffffffffffffffffffffffff1673ffffffffffffffffffffffffffffffffffffffff161480156105bf57506000600254145b610614576040517f08c379a00000000000000000000000000000000000000000000000000000000081526004018080602001828103825260278152602001806109736027913960400191505060405180910390fd5b62015180420160028190555080600160006101000a81548173ffffffffffffffffffffffffffffffffffffffff021916908373ffffffffffffffffffffffffffffffffffffffff16021790555050565b60603373ffffffffffffffffffffffffffffffffffffffff166000809054906101000a900473ffffffffffffffffffffffffffffffffffffffff1673ffffffffffffffffffffffffffffffffffffffff1614610728576040517f08c379a00000000000000000000000000000000000000000000000000000000081526004018080602001828103825260208152602001807f416c6c6f77616e63655461726765743a206e6f7420746865207370656e64657281525060200191505060405180910390fd5b60008473ffffffffffffffffffffffffffffffffffffffff1684846040518083838082843780830192505050925050506000604051808303816000865af19150503d8060008114610795576040519150601f19603f3d011682016040523d82523d6000602084013e61079a565b606091505b508093508192505050806107b5576040513d806000833e8082fd5b509392505050565b3373ffffffffffffffffffffffffffffffffffffffff166000809054906101000a900473ffffffffffffffffffffffffffffffffffffffff1673ffffffffffffffffffffffffffffffffffffffff161461087f576040517f08c379a00000000000000000000000000000000000000000000000000000000081526004018080602001828103825260208152602001807f416c6c6f77616e63655461726765743a206e6f7420746865207370656e64657281525060200191505060405180910390fd5b6000809054906101000a900473ffffffffffffffffffffffffffffffffffffffff1673ffffffffffffffffffffffffffffffffffffffff16ff5b6000809054906101000a900473ffffffffffffffffffffffffffffffffffffffff1681565b60025481565b600080823b90506000811191505091905056fe416c6c6f77616e63655461726765743a2074696d65206c6f636b206e6f74206578706972656420796574416c6c6f77616e63655461726765743a206e6f2070656e64696e67205365745370656e646572416c6c6f77616e63655461726765743a206e6577207370656e646572206e6f74206120636f6e7472616374416c6c6f77616e63655461726765743a205365745370656e64657220696e2070726f6772657373a2646970667358221220bf857d6eb7ae88688a20fa7f6ea485324d204246db5f79e72176741111fd829a64736f6c63430006050033416c6c6f77616e63655461726765743a205f7370656e6465722073686f756c64206e6f742062652030",
					"opcodes": "PUSH1 0x80 PUSH1 0x40 MSTORE CALLVALUE DUP1 ISZERO PUSH2 0x10 JUMPI PUSH1 0x0 DUP1 REVERT JUMPDEST POP PUSH1 0x40 MLOAD PUSH2 0xB12 CODESIZE SUB DUP1 PUSH2 0xB12 DUP4 CODECOPY DUP2 DUP2 ADD PUSH1 0x40 MSTORE PUSH1 0x20 DUP2 LT ISZERO PUSH2 0x33 JUMPI PUSH1 0x0 DUP1 REVERT JUMPDEST DUP2 ADD SWAP1 DUP1 DUP1 MLOAD SWAP1 PUSH1 0x20 ADD SWAP1 SWAP3 SWAP2 SWAP1 POP POP POP PUSH1 0x0 PUSH20 0xFFFFFFFFFFFFFFFFFFFFFFFFFFFFFFFFFFFFFFFF AND DUP2 PUSH20 0xFFFFFFFFFFFFFFFFFFFFFFFFFFFFFFFFFFFFFFFF AND EQ ISZERO PUSH2 0xCA JUMPI PUSH1 0x40 MLOAD PUSH32 0x8C379A000000000000000000000000000000000000000000000000000000000 DUP2 MSTORE PUSH1 0x4 ADD DUP1 DUP1 PUSH1 0x20 ADD DUP3 DUP2 SUB DUP3 MSTORE PUSH1 0x29 DUP2 MSTORE PUSH1 0x20 ADD DUP1 PUSH2 0xAE9 PUSH1 0x29 SWAP2 CODECOPY PUSH1 0x40 ADD SWAP2 POP POP PUSH1 0x40 MLOAD DUP1 SWAP2 SUB SWAP1 REVERT JUMPDEST DUP1 PUSH1 0x0 DUP1 PUSH2 0x100 EXP DUP2 SLOAD DUP2 PUSH20 0xFFFFFFFFFFFFFFFFFFFFFFFFFFFFFFFFFFFFFFFF MUL NOT AND SWAP1 DUP4 PUSH20 0xFFFFFFFFFFFFFFFFFFFFFFFFFFFFFFFFFFFFFFFF AND MUL OR SWAP1 SSTORE POP POP PUSH2 0x9CF DUP1 PUSH2 0x11A PUSH1 0x0 CODECOPY PUSH1 0x0 RETURN INVALID PUSH1 0x80 PUSH1 0x40 MSTORE CALLVALUE DUP1 ISZERO PUSH2 0x10 JUMPI PUSH1 0x0 DUP1 REVERT JUMPDEST POP PUSH1 0x4 CALLDATASIZE LT PUSH2 0x7D JUMPI PUSH1 0x0 CALLDATALOAD PUSH1 0xE0 SHR DUP1 PUSH4 0xBCA8C7B5 GT PUSH2 0x5B JUMPI DUP1 PUSH4 0xBCA8C7B5 EQ PUSH2 0x11A JUMPI DUP1 PUSH4 0xBE6502E9 EQ PUSH2 0x22C JUMPI DUP1 PUSH4 0xE8EDC816 EQ PUSH2 0x236 JUMPI DUP1 PUSH4 0xF9C7A0D1 EQ PUSH2 0x280 JUMPI PUSH2 0x7D JUMP JUMPDEST DUP1 PUSH4 0x48E196D1 EQ PUSH2 0x82 JUMPI DUP1 PUSH4 0x782A533F EQ PUSH2 0x8C JUMPI DUP1 PUSH4 0x8C064E19 EQ PUSH2 0xD6 JUMPI JUMPDEST PUSH1 0x0 DUP1 REVERT JUMPDEST PUSH2 0x8A PUSH2 0x29E JUMP JUMPDEST STOP JUMPDEST PUSH2 0x94 PUSH2 0x403 JUMP JUMPDEST PUSH1 0x40 MLOAD DUP1 DUP3 PUSH20 0xFFFFFFFFFFFFFFFFFFFFFFFFFFFFFFFFFFFFFFFF AND PUSH20 0xFFFFFFFFFFFFFFFFFFFFFFFFFFFFFFFFFFFFFFFF AND DUP2 MSTORE PUSH1 0x20 ADD SWAP2 POP POP PUSH1 0x40 MLOAD DUP1 SWAP2 SUB SWAP1 RETURN JUMPDEST PUSH2 0x118 PUSH1 0x4 DUP1 CALLDATASIZE SUB PUSH1 0x20 DUP2 LT ISZERO PUSH2 0xEC JUMPI PUSH1 0x0 DUP1 REVERT JUMPDEST DUP2 ADD SWAP1 DUP1 DUP1 CALLDATALOAD PUSH20 0xFFFFFFFFFFFFFFFFFFFFFFFFFFFFFFFFFFFFFFFF AND SWAP1 PUSH1 0x20 ADD SWAP1 SWAP3 SWAP2 SWAP1 POP POP POP PUSH2 0x429 JUMP JUMPDEST STOP JUMPDEST PUSH2 0x1B1 PUSH1 0x4 DUP1 CALLDATASIZE SUB PUSH1 0x40 DUP2 LT ISZERO PUSH2 0x130 JUMPI PUSH1 0x0 DUP1 REVERT JUMPDEST DUP2 ADD SWAP1 DUP1 DUP1 CALLDATALOAD PUSH20 0xFFFFFFFFFFFFFFFFFFFFFFFFFFFFFFFFFFFFFFFF AND SWAP1 PUSH1 0x20 ADD SWAP1 SWAP3 SWAP2 SWAP1 DUP1 CALLDATALOAD SWAP1 PUSH1 0x20 ADD SWAP1 PUSH5 0x100000000 DUP2 GT ISZERO PUSH2 0x16D JUMPI PUSH1 0x0 DUP1 REVERT JUMPDEST DUP3 ADD DUP4 PUSH1 0x20 DUP3 ADD GT ISZERO PUSH2 0x17F JUMPI PUSH1 0x0 DUP1 REVERT JUMPDEST DUP1 CALLDATALOAD SWAP1 PUSH1 0x20 ADD SWAP2 DUP5 PUSH1 0x1 DUP4 MUL DUP5 ADD GT PUSH5 0x100000000 DUP4 GT OR ISZERO PUSH2 0x1A1 JUMPI PUSH1 0x0 DUP1 REVERT JUMPDEST SWAP1 SWAP2 SWAP3 SWAP4 SWAP2 SWAP3 SWAP4 SWAP1 POP POP POP PUSH2 0x664 JUMP JUMPDEST PUSH1 0x40 MLOAD DUP1 DUP1 PUSH1 0x20 ADD DUP3 DUP2 SUB DUP3 MSTORE DUP4 DUP2 DUP2 MLOAD DUP2 MSTORE PUSH1 0x20 ADD SWAP2 POP DUP1 MLOAD SWAP1 PUSH1 0x20 ADD SWAP1 DUP1 DUP4 DUP4 PUSH1 0x0 JUMPDEST DUP4 DUP2 LT ISZERO PUSH2 0x1F1 JUMPI DUP1 DUP3 ADD MLOAD DUP2 DUP5 ADD MSTORE PUSH1 0x20 DUP2 ADD SWAP1 POP PUSH2 0x1D6 JUMP JUMPDEST POP POP POP POP SWAP1 POP SWAP1 DUP2 ADD SWAP1 PUSH1 0x1F AND DUP1 ISZERO PUSH2 0x21E JUMPI DUP1 DUP3 SUB DUP1 MLOAD PUSH1 0x1 DUP4 PUSH1 0x20 SUB PUSH2 0x100 EXP SUB NOT AND DUP2 MSTORE PUSH1 0x20 ADD SWAP2 POP JUMPDEST POP SWAP3 POP POP POP PUSH1 0x40 MLOAD DUP1 SWAP2 SUB SWAP1 RETURN JUMPDEST PUSH2 0x234 PUSH2 0x7BD JUMP JUMPDEST STOP JUMPDEST PUSH2 0x23E PUSH2 0x8B9 JUMP JUMPDEST PUSH1 0x40 MLOAD DUP1 DUP3 PUSH20 0xFFFFFFFFFFFFFFFFFFFFFFFFFFFFFFFFFFFFFFFF AND PUSH20 0xFFFFFFFFFFFFFFFFFFFFFFFFFFFFFFFFFFFFFFFF AND DUP2 MSTORE PUSH1 0x20 ADD SWAP2 POP POP PUSH1 0x40 MLOAD DUP1 SWAP2 SUB SWAP1 RETURN JUMPDEST PUSH2 0x288 PUSH2 0x8DE JUMP JUMPDEST PUSH1 0x40 MLOAD DUP1 DUP3 DUP2 MSTORE PUSH1 0x20 ADD SWAP2 POP POP PUSH1 0x40 MLOAD DUP1 SWAP2 SUB SWAP1 RETURN JUMPDEST PUSH1 0x0 PUSH1 0x2 SLOAD EQ ISZERO PUSH2 0x2FA JUMPI PUSH1 0x40 MLOAD PUSH32 0x8C379A000000000000000000000000000000000000000000000000000000000 DUP2 MSTORE PUSH1 0x4 ADD DUP1 DUP1 PUSH1 0x20 ADD DUP3 DUP2 SUB DUP3 MSTORE PUSH1 0x26 DUP2 MSTORE PUSH1 0x20 ADD DUP1 PUSH2 0x922 PUSH1 0x26 SWAP2 CODECOPY PUSH1 0x40 ADD SWAP2 POP POP PUSH1 0x40 MLOAD DUP1 SWAP2 SUB SWAP1 REVERT JUMPDEST PUSH1 0x2 SLOAD TIMESTAMP LT ISZERO PUSH2 0x355 JUMPI PUSH1 0x40 MLOAD PUSH32 0x8C379A000000000000000000000000000000000000000000000000000000000 DUP2 MSTORE PUSH1 0x4 ADD DUP1 DUP1 PUSH1 0x20 ADD DUP3 DUP2 SUB DUP3 MSTORE PUSH1 0x2A DUP2 MSTORE PUSH1 0x20 ADD DUP1 PUSH2 0x8F8 PUSH1 0x2A SWAP2 CODECOPY PUSH1 0x40 ADD SWAP2 POP POP PUSH1 0x40 MLOAD DUP1 SWAP2 SUB SWAP1 REVERT JUMPDEST PUSH1 0x1 PUSH1 0x0 SWAP1 SLOAD SWAP1 PUSH2 0x100 EXP SWAP1 DIV PUSH20 0xFFFFFFFFFFFFFFFFFFFFFFFFFFFFFFFFFFFFFFFF AND PUSH1 0x0 DUP1 PUSH2 0x100 EXP DUP2 SLOAD DUP2 PUSH20 0xFFFFFFFFFFFFFFFFFFFFFFFFFFFFFFFFFFFFFFFF MUL NOT AND SWAP1 DUP4 PUSH20 0xFFFFFFFFFFFFFFFFFFFFFFFFFFFFFFFFFFFFFFFF AND MUL OR SWAP1 SSTORE POP PUSH1 0x0 PUSH1 0x2 DUP2 SWAP1 SSTORE POP PUSH1 0x0 PUSH1 0x1 PUSH1 0x0 PUSH2 0x100 EXP DUP2 SLOAD DUP2 PUSH20 0xFFFFFFFFFFFFFFFFFFFFFFFFFFFFFFFFFFFFFFFF MUL NOT AND SWAP1 DUP4 PUSH20 0xFFFFFFFFFFFFFFFFFFFFFFFFFFFFFFFFFFFFFFFF AND MUL OR SWAP1 SSTORE POP JUMP JUMPDEST PUSH1 0x1 PUSH1 0x0 SWAP1 SLOAD SWAP1 PUSH2 0x100 EXP SWAP1 DIV PUSH20 0xFFFFFFFFFFFFFFFFFFFFFFFFFFFFFFFFFFFFFFFF AND DUP2 JUMP JUMPDEST CALLER PUSH20 0xFFFFFFFFFFFFFFFFFFFFFFFFFFFFFFFFFFFFFFFF AND PUSH1 0x0 DUP1 SWAP1 SLOAD SWAP1 PUSH2 0x100 EXP SWAP1 DIV PUSH20 0xFFFFFFFFFFFFFFFFFFFFFFFFFFFFFFFFFFFFFFFF AND PUSH20 0xFFFFFFFFFFFFFFFFFFFFFFFFFFFFFFFFFFFFFFFF AND EQ PUSH2 0x4EB JUMPI PUSH1 0x40 MLOAD PUSH32 0x8C379A000000000000000000000000000000000000000000000000000000000 DUP2 MSTORE PUSH1 0x4 ADD DUP1 DUP1 PUSH1 0x20 ADD DUP3 DUP2 SUB DUP3 MSTORE PUSH1 0x20 DUP2 MSTORE PUSH1 0x20 ADD DUP1 PUSH32 0x416C6C6F77616E63655461726765743A206E6F7420746865207370656E646572 DUP2 MSTORE POP PUSH1 0x20 ADD SWAP2 POP POP PUSH1 0x40 MLOAD DUP1 SWAP2 SUB SWAP1 REVERT JUMPDEST PUSH2 0x50A DUP2 PUSH20 0xFFFFFFFFFFFFFFFFFFFFFFFFFFFFFFFFFFFFFFFF AND PUSH2 0x8E4 JUMP JUMPDEST PUSH2 0x55F JUMPI PUSH1 0x40 MLOAD PUSH32 0x8C379A000000000000000000000000000000000000000000000000000000000 DUP2 MSTORE PUSH1 0x4 ADD DUP1 DUP1 PUSH1 0x20 ADD DUP3 DUP2 SUB DUP3 MSTORE PUSH1 0x2B DUP2 MSTORE PUSH1 0x20 ADD DUP1 PUSH2 0x948 PUSH1 0x2B SWAP2 CODECOPY PUSH1 0x40 ADD SWAP2 POP POP PUSH1 0x40 MLOAD DUP1 SWAP2 SUB SWAP1 REVERT JUMPDEST PUSH1 0x0 PUSH20 0xFFFFFFFFFFFFFFFFFFFFFFFFFFFFFFFFFFFFFFFF AND PUSH1 0x1 PUSH1 0x0 SWAP1 SLOAD SWAP1 PUSH2 0x100 EXP SWAP1 DIV PUSH20 0xFFFFFFFFFFFFFFFFFFFFFFFFFFFFFFFFFFFFFFFF AND PUSH20 0xFFFFFFFFFFFFFFFFFFFFFFFFFFFFFFFFFFFFFFFF AND EQ DUP1 ISZERO PUSH2 0x5BF JUMPI POP PUSH1 0x0 PUSH1 0x2 SLOAD EQ JUMPDEST PUSH2 0x614 JUMPI PUSH1 0x40 MLOAD PUSH32 0x8C379A000000000000000000000000000000000000000000000000000000000 DUP2 MSTORE PUSH1 0x4 ADD DUP1 DUP1 PUSH1 0x20 ADD DUP3 DUP2 SUB DUP3 MSTORE PUSH1 0x27 DUP2 MSTORE PUSH1 0x20 ADD DUP1 PUSH2 0x973 PUSH1 0x27 SWAP2 CODECOPY PUSH1 0x40 ADD SWAP2 POP POP PUSH1 0x40 MLOAD DUP1 SWAP2 SUB SWAP1 REVERT JUMPDEST PUSH3 0x15180 TIMESTAMP ADD PUSH1 0x2 DUP2 SWAP1 SSTORE POP DUP1 PUSH1 0x1 PUSH1 0x0 PUSH2 0x100 EXP DUP2 SLOAD DUP2 PUSH20 0xFFFFFFFFFFFFFFFFFFFFFFFFFFFFFFFFFFFFFFFF MUL NOT AND SWAP1 DUP4 PUSH20 0xFFFFFFFFFFFFFFFFFFFFFFFFFFFFFFFFFFFFFFFF AND MUL OR SWAP1 SSTORE POP POP JUMP JUMPDEST PUSH1 0x60 CALLER PUSH20 0xFFFFFFFFFFFFFFFFFFFFFFFFFFFFFFFFFFFFFFFF AND PUSH1 0x0 DUP1 SWAP1 SLOAD SWAP1 PUSH2 0x100 EXP SWAP1 DIV PUSH20 0xFFFFFFFFFFFFFFFFFFFFFFFFFFFFFFFFFFFFFFFF AND PUSH20 0xFFFFFFFFFFFFFFFFFFFFFFFFFFFFFFFFFFFFFFFF AND EQ PUSH2 0x728 JUMPI PUSH1 0x40 MLOAD PUSH32 0x8C379A000000000000000000000000000000000000000000000000000000000 DUP2 MSTORE PUSH1 0x4 ADD DUP1 DUP1 PUSH1 0x20 ADD DUP3 DUP2 SUB DUP3 MSTORE PUSH1 0x20 DUP2 MSTORE PUSH1 0x20 ADD DUP1 PUSH32 0x416C6C6F77616E63655461726765743A206E6F7420746865207370656E646572 DUP2 MSTORE POP PUSH1 0x20 ADD SWAP2 POP POP PUSH1 0x40 MLOAD DUP1 SWAP2 SUB SWAP1 REVERT JUMPDEST PUSH1 0x0 DUP5 PUSH20 0xFFFFFFFFFFFFFFFFFFFFFFFFFFFFFFFFFFFFFFFF AND DUP5 DUP5 PUSH1 0x40 MLOAD DUP1 DUP4 DUP4 DUP1 DUP3 DUP5 CALLDATACOPY DUP1 DUP4 ADD SWAP3 POP POP POP SWAP3 POP POP POP PUSH1 0x0 PUSH1 0x40 MLOAD DUP1 DUP4 SUB DUP2 PUSH1 0x0 DUP7 GAS CALL SWAP2 POP POP RETURNDATASIZE DUP1 PUSH1 0x0 DUP2 EQ PUSH2 0x795 JUMPI PUSH1 0x40 MLOAD SWAP2 POP PUSH1 0x1F NOT PUSH1 0x3F RETURNDATASIZE ADD AND DUP3 ADD PUSH1 0x40 MSTORE RETURNDATASIZE DUP3 MSTORE RETURNDATASIZE PUSH1 0x0 PUSH1 0x20 DUP5 ADD RETURNDATACOPY PUSH2 0x79A JUMP JUMPDEST PUSH1 0x60 SWAP2 POP JUMPDEST POP DUP1 SWAP4 POP DUP2 SWAP3 POP POP POP DUP1 PUSH2 0x7B5 JUMPI PUSH1 0x40 MLOAD RETURNDATASIZE DUP1 PUSH1 0x0 DUP4 RETURNDATACOPY DUP1 DUP3 REVERT JUMPDEST POP SWAP4 SWAP3 POP POP POP JUMP JUMPDEST CALLER PUSH20 0xFFFFFFFFFFFFFFFFFFFFFFFFFFFFFFFFFFFFFFFF AND PUSH1 0x0 DUP1 SWAP1 SLOAD SWAP1 PUSH2 0x100 EXP SWAP1 DIV PUSH20 0xFFFFFFFFFFFFFFFFFFFFFFFFFFFFFFFFFFFFFFFF AND PUSH20 0xFFFFFFFFFFFFFFFFFFFFFFFFFFFFFFFFFFFFFFFF AND EQ PUSH2 0x87F JUMPI PUSH1 0x40 MLOAD PUSH32 0x8C379A000000000000000000000000000000000000000000000000000000000 DUP2 MSTORE PUSH1 0x4 ADD DUP1 DUP1 PUSH1 0x20 ADD DUP3 DUP2 SUB DUP3 MSTORE PUSH1 0x20 DUP2 MSTORE PUSH1 0x20 ADD DUP1 PUSH32 0x416C6C6F77616E63655461726765743A206E6F7420746865207370656E646572 DUP2 MSTORE POP PUSH1 0x20 ADD SWAP2 POP POP PUSH1 0x40 MLOAD DUP1 SWAP2 SUB SWAP1 REVERT JUMPDEST PUSH1 0x0 DUP1 SWAP1 SLOAD SWAP1 PUSH2 0x100 EXP SWAP1 DIV PUSH20 0xFFFFFFFFFFFFFFFFFFFFFFFFFFFFFFFFFFFFFFFF AND PUSH20 0xFFFFFFFFFFFFFFFFFFFFFFFFFFFFFFFFFFFFFFFF AND SELFDESTRUCT JUMPDEST PUSH1 0x0 DUP1 SWAP1 SLOAD SWAP1 PUSH2 0x100 EXP SWAP1 DIV PUSH20 0xFFFFFFFFFFFFFFFFFFFFFFFFFFFFFFFFFFFFFFFF AND DUP2 JUMP JUMPDEST PUSH1 0x2 SLOAD DUP2 JUMP JUMPDEST PUSH1 0x0 DUP1 DUP3 EXTCODESIZE SWAP1 POP PUSH1 0x0 DUP2 GT SWAP2 POP POP SWAP2 SWAP1 POP JUMP INVALID COINBASE PUSH13 0x6C6F77616E6365546172676574 GASPRICE KECCAK256 PUSH21 0x696D65206C6F636B206E6F74206578706972656420 PUSH26 0x6574416C6C6F77616E63655461726765743A206E6F2070656E64 PUSH10 0x6E67205365745370656E PUSH5 0x6572416C6C PUSH16 0x77616E63655461726765743A206E6577 KECCAK256 PUSH20 0x70656E646572206E6F74206120636F6E74726163 PUSH21 0x416C6C6F77616E63655461726765743A2053657453 PUSH17 0x656E64657220696E2070726F6772657373 LOG2 PUSH5 0x6970667358 0x22 SLT KECCAK256 0xBF DUP6 PUSH30 0x6EB7AE88688A20FA7F6EA485324D204246DB5F79E72176741111FD829A64 PUSH20 0x6F6C63430006050033416C6C6F77616E63655461 PUSH19 0x6765743A205F7370656E6465722073686F756C PUSH5 0x206E6F7420 PUSH3 0x652030 "
				},
				"gasEstimates": {
					"creation": {
						"codeDepositCost": "502200",
						"executionCost": "infinite",
						"totalCost": "infinite"
					},
					"external": {
						"completeSetSpender()": "infinite",
						"executeCall(address,bytes)": "infinite",
						"newSpender()": "1076",
						"setSpenderWithTimelock(address)": "infinite",
						"spender()": "1097",
						"teardown()": "31872",
						"timelockExpirationTime()": "1071"
					}
				},
				"methodIdentifiers": {
					"completeSetSpender()": "48e196d1",
					"executeCall(address,bytes)": "bca8c7b5",
					"newSpender()": "782a533f",
					"setSpenderWithTimelock(address)": "8c064e19",
					"spender()": "e8edc816",
					"teardown()": "be6502e9",
					"timelockExpirationTime()": "f9c7a0d1"
				}
			},
			"storageLayout": {
				"storage": [
					{
						"astId": 209,
						"contract": "contracts/AllowanceTarget.sol:AllowanceTarget",
						"label": "spender",
						"offset": 0,
						"slot": "0",
						"type": "t_address"
					},
					{
						"astId": 211,
						"contract": "contracts/AllowanceTarget.sol:AllowanceTarget",
						"label": "newSpender",
						"offset": 0,
						"slot": "1",
						"type": "t_address"
					},
					{
						"astId": 213,
						"contract": "contracts/AllowanceTarget.sol:AllowanceTarget",
						"label": "timelockExpirationTime",
						"offset": 0,
						"slot": "2",
						"type": "t_uint256"
					}
				],
				"types": {
					"t_address": {
						"encoding": "inplace",
						"label": "address",
						"numberOfBytes": "20"
					},
					"t_uint256": {
						"encoding": "inplace",
						"label": "uint256",
						"numberOfBytes": "32"
					}
				}
			},
			"userdoc": {
				"methods": {}
			}
		}
	}
}