{
	"contracts/FundMe.sol": {
		"FundMe": {
			"abi": [
				{
					"inputs": [],
					"stateMutability": "nonpayable",
					"type": "constructor"
				},
				{
					"inputs": [
						{
							"internalType": "address",
							"name": "",
							"type": "address"
						}
					],
					"name": "addressToAmountFunded",
					"outputs": [
						{
							"internalType": "uint256",
							"name": "",
							"type": "uint256"
						}
					],
					"stateMutability": "view",
					"type": "function"
				},
				{
					"inputs": [],
					"name": "fund",
					"outputs": [],
					"stateMutability": "payable",
					"type": "function"
				},
				{
					"inputs": [
						{
							"internalType": "uint256",
							"name": "",
							"type": "uint256"
						}
					],
					"name": "funders",
					"outputs": [
						{
							"internalType": "address",
							"name": "",
							"type": "address"
						}
					],
					"stateMutability": "view",
					"type": "function"
				},
				{
					"inputs": [],
					"name": "minimumUsd",
					"outputs": [
						{
							"internalType": "uint256",
							"name": "",
							"type": "uint256"
						}
					],
					"stateMutability": "view",
					"type": "function"
				},
				{
					"inputs": [],
					"name": "owner",
					"outputs": [
						{
							"internalType": "address",
							"name": "",
							"type": "address"
						}
					],
					"stateMutability": "view",
					"type": "function"
				},
				{
					"inputs": [],
					"name": "withdraw",
					"outputs": [],
					"stateMutability": "nonpayable",
					"type": "function"
				}
			],
			"devdoc": {
				"kind": "dev",
				"methods": {},
				"version": 1
			},
			"evm": {
				"assembly": "    /* \"contracts/FundMe.sol\":171:1710  contract FundMe {... */\n  mstore(0x40, 0x80)\n    /* \"contracts/FundMe.sol\":259:268  50 * 1e18 */\n  0x02b5e3af16b1880000\n    /* \"contracts/FundMe.sol\":231:268  uint256 public minimumUsd = 50 * 1e18 */\n  0x00\n  sstore\n    /* \"contracts/FundMe.sol\":396:445  constructor() {... */\n  callvalue\n  dup1\n  iszero\n  tag_1\n  jumpi\n  0x00\n  dup1\n  revert\ntag_1:\n  pop\n    /* \"contracts/FundMe.sol\":428:438  msg.sender */\n  caller\n    /* \"contracts/FundMe.sol\":420:425  owner */\n  0x03\n  0x00\n    /* \"contracts/FundMe.sol\":420:438  owner = msg.sender */\n  0x0100\n  exp\n  dup2\n  sload\n  dup2\n  0xffffffffffffffffffffffffffffffffffffffff\n  mul\n  not\n  and\n  swap1\n  dup4\n  0xffffffffffffffffffffffffffffffffffffffff\n  and\n  mul\n  or\n  swap1\n  sstore\n  pop\n    /* \"contracts/FundMe.sol\":171:1710  contract FundMe {... */\n  dataSize(sub_0)\n  dup1\n  dataOffset(sub_0)\n  0x00\n  codecopy\n  0x00\n  return\nstop\n\nsub_0: assembly {\n        /* \"contracts/FundMe.sol\":171:1710  contract FundMe {... */\n      mstore(0x40, 0x80)\n      jumpi(tag_1, lt(calldatasize, 0x04))\n      shr(0xe0, calldataload(0x00))\n      dup1\n      0x098de820\n      eq\n      tag_2\n      jumpi\n      dup1\n      0x3ccfd60b\n      eq\n      tag_3\n      jumpi\n      dup1\n      0x3e47d6f3\n      eq\n      tag_4\n      jumpi\n      dup1\n      0x8da5cb5b\n      eq\n      tag_5\n      jumpi\n      dup1\n      0xb60d4288\n      eq\n      tag_6\n      jumpi\n      dup1\n      0xdc0d3dff\n      eq\n      tag_7\n      jumpi\n    tag_1:\n      0x00\n      dup1\n      revert\n        /* \"contracts/FundMe.sol\":231:268  uint256 public minimumUsd = 50 * 1e18 */\n    tag_2:\n      callvalue\n      dup1\n      iszero\n      tag_8\n      jumpi\n      0x00\n      dup1\n      revert\n    tag_8:\n      pop\n      tag_9\n      tag_10\n      jump\t// in\n    tag_9:\n      mload(0x40)\n      tag_11\n      swap2\n      swap1\n      tag_12\n      jump\t// in\n    tag_11:\n      mload(0x40)\n      dup1\n      swap2\n      sub\n      swap1\n      return\n        /* \"contracts/FundMe.sol\":824:1504  function withdraw() public onlyOwner balanceRequired {... */\n    tag_3:\n      callvalue\n      dup1\n      iszero\n      tag_13\n      jumpi\n      0x00\n      dup1\n      revert\n    tag_13:\n      pop\n      tag_14\n      tag_15\n      jump\t// in\n    tag_14:\n      stop\n        /* \"contracts/FundMe.sol\":306:362  mapping(address => uint256) public addressToAmountFunded */\n    tag_4:\n      callvalue\n      dup1\n      iszero\n      tag_16\n      jumpi\n      0x00\n      dup1\n      revert\n    tag_16:\n      pop\n      tag_17\n      0x04\n      dup1\n      calldatasize\n      sub\n      dup2\n      add\n      swap1\n      tag_18\n      swap2\n      swap1\n      tag_19\n      jump\t// in\n    tag_18:\n      tag_20\n      jump\t// in\n    tag_17:\n      mload(0x40)\n      tag_21\n      swap2\n      swap1\n      tag_12\n      jump\t// in\n    tag_21:\n      mload(0x40)\n      dup1\n      swap2\n      sub\n      swap1\n      return\n        /* \"contracts/FundMe.sol\":369:389  address public owner */\n    tag_5:\n      callvalue\n      dup1\n      iszero\n      tag_22\n      jumpi\n      0x00\n      dup1\n      revert\n    tag_22:\n      pop\n      tag_23\n      tag_24\n      jump\t// in\n    tag_23:\n      mload(0x40)\n      tag_25\n      swap2\n      swap1\n      tag_26\n      jump\t// in\n    tag_25:\n      mload(0x40)\n      dup1\n      swap2\n      sub\n      swap1\n      return\n        /* \"contracts/FundMe.sol\":451:818  function fund() public payable {... */\n    tag_6:\n      tag_27\n      tag_28\n      jump\t// in\n    tag_27:\n      stop\n        /* \"contracts/FundMe.sol\":275:299  address[] public funders */\n    tag_7:\n      callvalue\n      dup1\n      iszero\n      tag_29\n      jumpi\n      0x00\n      dup1\n      revert\n    tag_29:\n      pop\n      tag_30\n      0x04\n      dup1\n      calldatasize\n      sub\n      dup2\n      add\n      swap1\n      tag_31\n      swap2\n      swap1\n      tag_32\n      jump\t// in\n    tag_31:\n      tag_33\n      jump\t// in\n    tag_30:\n      mload(0x40)\n      tag_34\n      swap2\n      swap1\n      tag_26\n      jump\t// in\n    tag_34:\n      mload(0x40)\n      dup1\n      swap2\n      sub\n      swap1\n      return\n        /* \"contracts/FundMe.sol\":231:268  uint256 public minimumUsd = 50 * 1e18 */\n    tag_10:\n      sload(0x00)\n      dup2\n      jump\t// out\n        /* \"contracts/FundMe.sol\":824:1504  function withdraw() public onlyOwner balanceRequired {... */\n    tag_15:\n        /* \"contracts/FundMe.sol\":1561:1566  owner */\n      0x03\n      0x00\n      swap1\n      sload\n      swap1\n      0x0100\n      exp\n      swap1\n      div\n      0xffffffffffffffffffffffffffffffffffffffff\n      and\n        /* \"contracts/FundMe.sol\":1547:1566  msg.sender == owner */\n      0xffffffffffffffffffffffffffffffffffffffff\n      and\n        /* \"contracts/FundMe.sol\":1547:1557  msg.sender */\n      caller\n        /* \"contracts/FundMe.sol\":1547:1566  msg.sender == owner */\n      0xffffffffffffffffffffffffffffffffffffffff\n      and\n      eq\n        /* \"contracts/FundMe.sol\":1539:1591  require(msg.sender == owner, \"Sender is not owner!\") */\n      tag_36\n      jumpi\n      mload(0x40)\n      0x08c379a000000000000000000000000000000000000000000000000000000000\n      dup2\n      mstore\n      0x04\n      add\n      tag_37\n      swap1\n      tag_38\n      jump\t// in\n    tag_37:\n      mload(0x40)\n      dup1\n      swap2\n      sub\n      swap1\n      revert\n    tag_36:\n        /* \"contracts/FundMe.sol\":1682:1683  0 */\n      0x00\n        /* \"contracts/FundMe.sol\":1658:1679  address(this).balance */\n      selfbalance\n        /* \"contracts/FundMe.sol\":1658:1683  address(this).balance > 0 */\n      gt\n        /* \"contracts/FundMe.sol\":1650:1684  require(address(this).balance > 0) */\n      tag_40\n      jumpi\n      0x00\n      dup1\n      revert\n    tag_40:\n        /* \"contracts/FundMe.sol\":891:910  uint256 funderIndex */\n      0x00\n        /* \"contracts/FundMe.sol\":887:1070  for(uint256 funderIndex = 0; funderIndex < funders.length; funderIndex++ ){... */\n    tag_42:\n        /* \"contracts/FundMe.sol\":930:937  funders */\n      0x01\n        /* \"contracts/FundMe.sol\":930:944  funders.length */\n      dup1\n      sload\n      swap1\n      pop\n        /* \"contracts/FundMe.sol\":916:927  funderIndex */\n      dup2\n        /* \"contracts/FundMe.sol\":916:944  funderIndex < funders.length */\n      lt\n        /* \"contracts/FundMe.sol\":887:1070  for(uint256 funderIndex = 0; funderIndex < funders.length; funderIndex++ ){... */\n      iszero\n      tag_43\n      jumpi\n        /* \"contracts/FundMe.sol\":975:989  address funder */\n      0x00\n        /* \"contracts/FundMe.sol\":992:999  funders */\n      0x01\n        /* \"contracts/FundMe.sol\":1000:1011  funderIndex */\n      dup3\n        /* \"contracts/FundMe.sol\":992:1012  funders[funderIndex] */\n      dup2\n      sload\n      dup2\n      lt\n      tag_45\n      jumpi\n      tag_46\n      tag_47\n      jump\t// in\n    tag_46:\n    tag_45:\n      swap1\n      0x00\n      mstore\n      keccak256(0x00, 0x20)\n      add\n      0x00\n      swap1\n      sload\n      swap1\n      0x0100\n      exp\n      swap1\n      div\n      0xffffffffffffffffffffffffffffffffffffffff\n      and\n        /* \"contracts/FundMe.sol\":975:1012  address funder = funders[funderIndex] */\n      swap1\n      pop\n        /* \"contracts/FundMe.sol\":1058:1059  0 */\n      0x00\n        /* \"contracts/FundMe.sol\":1026:1047  addressToAmountFunded */\n      0x02\n        /* \"contracts/FundMe.sol\":1026:1055  addressToAmountFunded[funder] */\n      0x00\n        /* \"contracts/FundMe.sol\":1048:1054  funder */\n      dup4\n        /* \"contracts/FundMe.sol\":1026:1055  addressToAmountFunded[funder] */\n      0xffffffffffffffffffffffffffffffffffffffff\n      and\n      0xffffffffffffffffffffffffffffffffffffffff\n      and\n      dup2\n      mstore\n      0x20\n      add\n      swap1\n      dup2\n      mstore\n      0x20\n      add\n      0x00\n      keccak256\n        /* \"contracts/FundMe.sol\":1026:1059  addressToAmountFunded[funder] = 0 */\n      dup2\n      swap1\n      sstore\n      pop\n        /* \"contracts/FundMe.sol\":961:1070  {... */\n      pop\n        /* \"contracts/FundMe.sol\":946:959  funderIndex++ */\n      dup1\n      dup1\n      tag_49\n      swap1\n      tag_50\n      jump\t// in\n    tag_49:\n      swap2\n      pop\n      pop\n        /* \"contracts/FundMe.sol\":887:1070  for(uint256 funderIndex = 0; funderIndex < funders.length; funderIndex++ ){... */\n      jump(tag_42)\n    tag_43:\n      pop\n        /* \"contracts/FundMe.sol\":1103:1104  0 */\n      0x00\n        /* \"contracts/FundMe.sol\":1089:1105  new address[](0) */\n      0xffffffffffffffff\n      dup2\n      gt\n      iszero\n      tag_51\n      jumpi\n      tag_52\n      tag_53\n      jump\t// in\n    tag_52:\n    tag_51:\n      mload(0x40)\n      swap1\n      dup1\n      dup3\n      mstore\n      dup1\n      0x20\n      mul\n      0x20\n      add\n      dup3\n      add\n      0x40\n      mstore\n      dup1\n      iszero\n      tag_54\n      jumpi\n      dup2\n      0x20\n      add\n      0x20\n      dup3\n      mul\n      dup1\n      calldatasize\n      dup4\n      calldatacopy\n      dup1\n      dup3\n      add\n      swap2\n      pop\n      pop\n      swap1\n      pop\n    tag_54:\n      pop\n        /* \"contracts/FundMe.sol\":1079:1086  funders */\n      0x01\n        /* \"contracts/FundMe.sol\":1079:1105  funders = new address[](0) */\n      swap1\n      dup1\n      mload\n      swap1\n      0x20\n      add\n      swap1\n      tag_55\n      swap3\n      swap2\n      swap1\n      tag_56\n      jump\t// in\n    tag_55:\n      pop\n        /* \"contracts/FundMe.sol\":1373:1389  bool callSuccess */\n      0x00\n        /* \"contracts/FundMe.sol\":1402:1412  msg.sender */\n      caller\n        /* \"contracts/FundMe.sol\":1394:1418  payable(msg.sender).call */\n      0xffffffffffffffffffffffffffffffffffffffff\n      and\n        /* \"contracts/FundMe.sol\":1426:1447  address(this).balance */\n      selfbalance\n        /* \"contracts/FundMe.sol\":1394:1452  payable(msg.sender).call{value: address(this).balance}(\"\") */\n      mload(0x40)\n      tag_57\n      swap1\n      tag_58\n      jump\t// in\n    tag_57:\n      0x00\n      mload(0x40)\n      dup1\n      dup4\n      sub\n      dup2\n      dup6\n      dup8\n      gas\n      call\n      swap3\n      pop\n      pop\n      pop\n      returndatasize\n      dup1\n      0x00\n      dup2\n      eq\n      tag_61\n      jumpi\n      mload(0x40)\n      swap2\n      pop\n      and(add(returndatasize, 0x3f), not(0x1f))\n      dup3\n      add\n      0x40\n      mstore\n      returndatasize\n      dup3\n      mstore\n      returndatasize\n      0x00\n      0x20\n      dup5\n      add\n      returndatacopy\n      jump(tag_60)\n    tag_61:\n      0x60\n      swap2\n      pop\n    tag_60:\n      pop\n        /* \"contracts/FundMe.sol\":1372:1452  (bool callSuccess,) = payable(msg.sender).call{value: address(this).balance}(\"\") */\n      pop\n      swap1\n      pop\n        /* \"contracts/FundMe.sol\":1470:1481  callSuccess */\n      dup1\n        /* \"contracts/FundMe.sol\":1462:1497  require(callSuccess, \"Send failed\") */\n      tag_62\n      jumpi\n      mload(0x40)\n      0x08c379a000000000000000000000000000000000000000000000000000000000\n      dup2\n      mstore\n      0x04\n      add\n      tag_63\n      swap1\n      tag_64\n      jump\t// in\n    tag_63:\n      mload(0x40)\n      dup1\n      swap2\n      sub\n      swap1\n      revert\n    tag_62:\n        /* \"contracts/FundMe.sol\":877:1504  {... */\n      pop\n        /* \"contracts/FundMe.sol\":824:1504  function withdraw() public onlyOwner balanceRequired {... */\n      jump\t// out\n        /* \"contracts/FundMe.sol\":306:362  mapping(address => uint256) public addressToAmountFunded */\n    tag_20:\n      mstore(0x20, 0x02)\n      dup1\n      0x00\n      mstore\n      keccak256(0x00, 0x40)\n      0x00\n      swap2\n      pop\n      swap1\n      pop\n      sload\n      dup2\n      jump\t// out\n        /* \"contracts/FundMe.sol\":369:389  address public owner */\n    tag_24:\n      0x03\n      0x00\n      swap1\n      sload\n      swap1\n      0x0100\n      exp\n      swap1\n      div\n      0xffffffffffffffffffffffffffffffffffffffff\n      and\n      dup2\n      jump\t// out\n        /* \"contracts/FundMe.sol\":451:818  function fund() public payable {... */\n    tag_28:\n        /* \"contracts/FundMe.sol\":628:638  minimumUsd */\n      sload(0x00)\n        /* \"contracts/FundMe.sol\":595:624  msg.value.getConversionRate() */\n      tag_66\n        /* \"contracts/FundMe.sol\":595:604  msg.value */\n      callvalue\n        /* \"contracts/FundMe.sol\":595:622  msg.value.getConversionRate */\n      tag_67\n        /* \"contracts/FundMe.sol\":595:624  msg.value.getConversionRate() */\n      jump\t// in\n    tag_66:\n        /* \"contracts/FundMe.sol\":595:638  msg.value.getConversionRate() >= minimumUsd */\n      lt\n      iszero\n        /* \"contracts/FundMe.sol\":574:684  require(... */\n      tag_68\n      jumpi\n      mload(0x40)\n      0x08c379a000000000000000000000000000000000000000000000000000000000\n      dup2\n      mstore\n      0x04\n      add\n      tag_69\n      swap1\n      tag_70\n      jump\t// in\n    tag_69:\n      mload(0x40)\n      dup1\n      swap2\n      sub\n      swap1\n      revert\n    tag_68:\n        /* \"contracts/FundMe.sol\":732:739  funders */\n      0x01\n        /* \"contracts/FundMe.sol\":745:755  msg.sender */\n      caller\n        /* \"contracts/FundMe.sol\":732:756  funders.push(msg.sender) */\n      swap1\n      dup1\n      0x01\n      dup2\n      sload\n      add\n      dup1\n      dup3\n      sstore\n      dup1\n      swap2\n      pop\n      pop\n      0x01\n      swap1\n      sub\n      swap1\n      0x00\n      mstore\n      keccak256(0x00, 0x20)\n      add\n      0x00\n      swap1\n      swap2\n      swap1\n      swap2\n      swap1\n      swap2\n      0x0100\n      exp\n      dup2\n      sload\n      dup2\n      0xffffffffffffffffffffffffffffffffffffffff\n      mul\n      not\n      and\n      swap1\n      dup4\n      0xffffffffffffffffffffffffffffffffffffffff\n      and\n      mul\n      or\n      swap1\n      sstore\n      pop\n        /* \"contracts/FundMe.sol\":802:811  msg.value */\n      callvalue\n        /* \"contracts/FundMe.sol\":766:787  addressToAmountFunded */\n      0x02\n        /* \"contracts/FundMe.sol\":766:799  addressToAmountFunded[msg.sender] */\n      0x00\n        /* \"contracts/FundMe.sol\":788:798  msg.sender */\n      caller\n        /* \"contracts/FundMe.sol\":766:799  addressToAmountFunded[msg.sender] */\n      0xffffffffffffffffffffffffffffffffffffffff\n      and\n      0xffffffffffffffffffffffffffffffffffffffff\n      and\n      dup2\n      mstore\n      0x20\n      add\n      swap1\n      dup2\n      mstore\n      0x20\n      add\n      0x00\n      keccak256\n        /* \"contracts/FundMe.sol\":766:811  addressToAmountFunded[msg.sender] = msg.value */\n      dup2\n      swap1\n      sstore\n      pop\n        /* \"contracts/FundMe.sol\":451:818  function fund() public payable {... */\n      jump\t// out\n        /* \"contracts/FundMe.sol\":275:299  address[] public funders */\n    tag_33:\n      0x01\n      dup2\n      dup2\n      sload\n      dup2\n      lt\n      tag_72\n      jumpi\n      0x00\n      dup1\n      revert\n    tag_72:\n      swap1\n      0x00\n      mstore\n      keccak256(0x00, 0x20)\n      add\n      0x00\n      swap2\n      pop\n      sload\n      swap1\n      0x0100\n      exp\n      swap1\n      div\n      0xffffffffffffffffffffffffffffffffffffffff\n      and\n      dup2\n      jump\t// out\n        /* \"contracts/PriceConverter.sol\":593:840  function getConversionRate(uint256 ethAmount)... */\n    tag_67:\n        /* \"contracts/PriceConverter.sol\":686:693  uint256 */\n      0x00\n        /* \"contracts/PriceConverter.sol\":709:725  uint256 ethPrice */\n      dup1\n        /* \"contracts/PriceConverter.sol\":728:738  getPrice() */\n      tag_75\n        /* \"contracts/PriceConverter.sol\":728:736  getPrice */\n      tag_76\n        /* \"contracts/PriceConverter.sol\":728:738  getPrice() */\n      jump\t// in\n    tag_75:\n        /* \"contracts/PriceConverter.sol\":709:738  uint256 ethPrice = getPrice() */\n      swap1\n      pop\n        /* \"contracts/PriceConverter.sol\":748:770  uint256 ethAmountInUsd */\n      0x00\n        /* \"contracts/PriceConverter.sol\":798:802  1e18 */\n      0x0de0b6b3a7640000\n        /* \"contracts/PriceConverter.sol\":785:794  ethAmount */\n      dup5\n        /* \"contracts/PriceConverter.sol\":774:782  ethPrice */\n      dup4\n        /* \"contracts/PriceConverter.sol\":774:794  ethPrice * ethAmount */\n      tag_77\n      swap2\n      swap1\n      tag_78\n      jump\t// in\n    tag_77:\n        /* \"contracts/PriceConverter.sol\":773:802  (ethPrice * ethAmount) / 1e18 */\n      tag_79\n      swap2\n      swap1\n      tag_80\n      jump\t// in\n    tag_79:\n        /* \"contracts/PriceConverter.sol\":748:802  uint256 ethAmountInUsd = (ethPrice * ethAmount) / 1e18 */\n      swap1\n      pop\n        /* \"contracts/PriceConverter.sol\":819:833  ethAmountInUsd */\n      dup1\n        /* \"contracts/PriceConverter.sol\":812:833  return ethAmountInUsd */\n      swap3\n      pop\n      pop\n      pop\n        /* \"contracts/PriceConverter.sol\":593:840  function getConversionRate(uint256 ethAmount)... */\n      swap2\n      swap1\n      pop\n      jump\t// out\n        /* \"contracts/PriceConverter.sol\":164:587  function getPrice() internal view returns (uint256) {... */\n    tag_76:\n        /* \"contracts/PriceConverter.sol\":207:214  uint256 */\n      0x00\n        /* \"contracts/PriceConverter.sol\":303:334  AggregatorV3Interface priceFeed */\n      dup1\n        /* \"contracts/PriceConverter.sol\":372:414  0x8A753747A1Fa494EC906cE90E9f37563A8AF630e */\n      0x8a753747a1fa494ec906ce90e9f37563a8af630e\n        /* \"contracts/PriceConverter.sol\":303:424  AggregatorV3Interface priceFeed = AggregatorV3Interface(... */\n      swap1\n      pop\n        /* \"contracts/PriceConverter.sol\":437:449  int256 price */\n      0x00\n        /* \"contracts/PriceConverter.sol\":459:468  priceFeed */\n      dup2\n        /* \"contracts/PriceConverter.sol\":459:484  priceFeed.latestRoundData */\n      0xffffffffffffffffffffffffffffffffffffffff\n      and\n      0xfeaf968c\n        /* \"contracts/PriceConverter.sol\":459:486  priceFeed.latestRoundData() */\n      mload(0x40)\n      dup2\n      0xffffffff\n      and\n      0xe0\n      shl\n      dup2\n      mstore\n      0x04\n      add\n      0xa0\n      mload(0x40)\n      dup1\n      dup4\n      sub\n      dup2\n      dup7\n      dup1\n      extcodesize\n      iszero\n      dup1\n      iszero\n      tag_82\n      jumpi\n      0x00\n      dup1\n      revert\n    tag_82:\n      pop\n      gas\n      staticcall\n      iszero\n      dup1\n      iszero\n      tag_84\n      jumpi\n      returndatasize\n      0x00\n      dup1\n      returndatacopy\n      revert(0x00, returndatasize)\n    tag_84:\n      pop\n      pop\n      pop\n      pop\n      mload(0x40)\n      returndatasize\n      not(0x1f)\n      0x1f\n      dup3\n      add\n      and\n      dup3\n      add\n      dup1\n      0x40\n      mstore\n      pop\n      dup2\n      add\n      swap1\n      tag_85\n      swap2\n      swap1\n      tag_86\n      jump\t// in\n    tag_85:\n        /* \"contracts/PriceConverter.sol\":434:486  (, int256 price, , , ) = priceFeed.latestRoundData() */\n      pop\n      pop\n      pop\n      swap2\n      pop\n      pop\n        /* \"contracts/PriceConverter.sol\":575:579  1e10 */\n      0x02540be400\n        /* \"contracts/PriceConverter.sol\":567:572  price */\n      dup2\n        /* \"contracts/PriceConverter.sol\":567:579  price * 1e10 */\n      tag_87\n      swap2\n      swap1\n      tag_88\n      jump\t// in\n    tag_87:\n        /* \"contracts/PriceConverter.sol\":552:580  return uint256(price * 1e10) */\n      swap3\n      pop\n      pop\n      pop\n        /* \"contracts/PriceConverter.sol\":164:587  function getPrice() internal view returns (uint256) {... */\n      swap1\n      jump\t// out\n    tag_56:\n      dup3\n      dup1\n      sload\n      dup3\n      dup3\n      sstore\n      swap1\n      0x00\n      mstore\n      keccak256(0x00, 0x20)\n      swap1\n      dup2\n      add\n      swap3\n      dup3\n      iszero\n      tag_89\n      jumpi\n      swap2\n      0x20\n      mul\n      dup3\n      add\n    tag_90:\n      dup3\n      dup2\n      gt\n      iszero\n      tag_91\n      jumpi\n      dup3\n      mload\n      dup3\n      exp(0x0100, 0x00)\n      dup2\n      sload\n      dup2\n      0xffffffffffffffffffffffffffffffffffffffff\n      mul\n      not\n      and\n      swap1\n      dup4\n      0xffffffffffffffffffffffffffffffffffffffff\n      and\n      mul\n      or\n      swap1\n      sstore\n      pop\n      swap2\n      0x20\n      add\n      swap2\n      swap1\n      0x01\n      add\n      swap1\n      jump(tag_90)\n    tag_91:\n    tag_89:\n      pop\n      swap1\n      pop\n      tag_92\n      swap2\n      swap1\n      tag_93\n      jump\t// in\n    tag_92:\n      pop\n      swap1\n      jump\t// out\n    tag_93:\n    tag_94:\n      dup1\n      dup3\n      gt\n      iszero\n      tag_95\n      jumpi\n      0x00\n      dup2\n      0x00\n      swap1\n      sstore\n      pop\n      0x01\n      add\n      jump(tag_94)\n    tag_95:\n      pop\n      swap1\n      jump\t// out\n        /* \"#utility.yul\":7:84   */\n    tag_96:\n        /* \"#utility.yul\":44:51   */\n      0x00\n        /* \"#utility.yul\":73:78   */\n      dup2\n        /* \"#utility.yul\":62:78   */\n      swap1\n      pop\n        /* \"#utility.yul\":7:84   */\n      swap2\n      swap1\n      pop\n      jump\t// out\n        /* \"#utility.yul\":90:208   */\n    tag_97:\n        /* \"#utility.yul\":177:201   */\n      tag_130\n        /* \"#utility.yul\":195:200   */\n      dup2\n        /* \"#utility.yul\":177:201   */\n      tag_96\n      jump\t// in\n    tag_130:\n        /* \"#utility.yul\":172:175   */\n      dup3\n        /* \"#utility.yul\":165:202   */\n      mstore\n        /* \"#utility.yul\":90:208   */\n      pop\n      pop\n      jump\t// out\n        /* \"#utility.yul\":214:436   */\n    tag_12:\n        /* \"#utility.yul\":307:311   */\n      0x00\n        /* \"#utility.yul\":345:347   */\n      0x20\n        /* \"#utility.yul\":334:343   */\n      dup3\n        /* \"#utility.yul\":330:348   */\n      add\n        /* \"#utility.yul\":322:348   */\n      swap1\n      pop\n        /* \"#utility.yul\":358:429   */\n      tag_132\n        /* \"#utility.yul\":426:427   */\n      0x00\n        /* \"#utility.yul\":415:424   */\n      dup4\n        /* \"#utility.yul\":411:428   */\n      add\n        /* \"#utility.yul\":402:408   */\n      dup5\n        /* \"#utility.yul\":358:429   */\n      tag_97\n      jump\t// in\n    tag_132:\n        /* \"#utility.yul\":214:436   */\n      swap3\n      swap2\n      pop\n      pop\n      jump\t// out\n        /* \"#utility.yul\":523:640   */\n    tag_99:\n        /* \"#utility.yul\":632:633   */\n      0x00\n        /* \"#utility.yul\":629:630   */\n      dup1\n        /* \"#utility.yul\":622:634   */\n      revert\n        /* \"#utility.yul\":769:895   */\n    tag_101:\n        /* \"#utility.yul\":806:813   */\n      0x00\n        /* \"#utility.yul\":846:888   */\n      0xffffffffffffffffffffffffffffffffffffffff\n        /* \"#utility.yul\":839:844   */\n      dup3\n        /* \"#utility.yul\":835:889   */\n      and\n        /* \"#utility.yul\":824:889   */\n      swap1\n      pop\n        /* \"#utility.yul\":769:895   */\n      swap2\n      swap1\n      pop\n      jump\t// out\n        /* \"#utility.yul\":901:997   */\n    tag_102:\n        /* \"#utility.yul\":938:945   */\n      0x00\n        /* \"#utility.yul\":967:991   */\n      tag_138\n        /* \"#utility.yul\":985:990   */\n      dup3\n        /* \"#utility.yul\":967:991   */\n      tag_101\n      jump\t// in\n    tag_138:\n        /* \"#utility.yul\":956:991   */\n      swap1\n      pop\n        /* \"#utility.yul\":901:997   */\n      swap2\n      swap1\n      pop\n      jump\t// out\n        /* \"#utility.yul\":1003:1125   */\n    tag_103:\n        /* \"#utility.yul\":1076:1100   */\n      tag_140\n        /* \"#utility.yul\":1094:1099   */\n      dup2\n        /* \"#utility.yul\":1076:1100   */\n      tag_102\n      jump\t// in\n    tag_140:\n        /* \"#utility.yul\":1069:1074   */\n      dup2\n        /* \"#utility.yul\":1066:1101   */\n      eq\n        /* \"#utility.yul\":1056:1119   */\n      tag_141\n      jumpi\n        /* \"#utility.yul\":1115:1116   */\n      0x00\n        /* \"#utility.yul\":1112:1113   */\n      dup1\n        /* \"#utility.yul\":1105:1117   */\n      revert\n        /* \"#utility.yul\":1056:1119   */\n    tag_141:\n        /* \"#utility.yul\":1003:1125   */\n      pop\n      jump\t// out\n        /* \"#utility.yul\":1131:1270   */\n    tag_104:\n        /* \"#utility.yul\":1177:1182   */\n      0x00\n        /* \"#utility.yul\":1215:1221   */\n      dup2\n        /* \"#utility.yul\":1202:1222   */\n      calldataload\n        /* \"#utility.yul\":1193:1222   */\n      swap1\n      pop\n        /* \"#utility.yul\":1231:1264   */\n      tag_143\n        /* \"#utility.yul\":1258:1263   */\n      dup2\n        /* \"#utility.yul\":1231:1264   */\n      tag_103\n      jump\t// in\n    tag_143:\n        /* \"#utility.yul\":1131:1270   */\n      swap3\n      swap2\n      pop\n      pop\n      jump\t// out\n        /* \"#utility.yul\":1276:1605   */\n    tag_19:\n        /* \"#utility.yul\":1335:1341   */\n      0x00\n        /* \"#utility.yul\":1384:1386   */\n      0x20\n        /* \"#utility.yul\":1372:1381   */\n      dup3\n        /* \"#utility.yul\":1363:1370   */\n      dup5\n        /* \"#utility.yul\":1359:1382   */\n      sub\n        /* \"#utility.yul\":1355:1387   */\n      slt\n        /* \"#utility.yul\":1352:1471   */\n      iszero\n      tag_145\n      jumpi\n        /* \"#utility.yul\":1390:1469   */\n      tag_146\n      tag_99\n      jump\t// in\n    tag_146:\n        /* \"#utility.yul\":1352:1471   */\n    tag_145:\n        /* \"#utility.yul\":1510:1511   */\n      0x00\n        /* \"#utility.yul\":1535:1588   */\n      tag_147\n        /* \"#utility.yul\":1580:1587   */\n      dup5\n        /* \"#utility.yul\":1571:1577   */\n      dup3\n        /* \"#utility.yul\":1560:1569   */\n      dup6\n        /* \"#utility.yul\":1556:1578   */\n      add\n        /* \"#utility.yul\":1535:1588   */\n      tag_104\n      jump\t// in\n    tag_147:\n        /* \"#utility.yul\":1525:1588   */\n      swap2\n      pop\n        /* \"#utility.yul\":1481:1598   */\n      pop\n        /* \"#utility.yul\":1276:1605   */\n      swap3\n      swap2\n      pop\n      pop\n      jump\t// out\n        /* \"#utility.yul\":1611:1729   */\n    tag_105:\n        /* \"#utility.yul\":1698:1722   */\n      tag_149\n        /* \"#utility.yul\":1716:1721   */\n      dup2\n        /* \"#utility.yul\":1698:1722   */\n      tag_102\n      jump\t// in\n    tag_149:\n        /* \"#utility.yul\":1693:1696   */\n      dup3\n        /* \"#utility.yul\":1686:1723   */\n      mstore\n        /* \"#utility.yul\":1611:1729   */\n      pop\n      pop\n      jump\t// out\n        /* \"#utility.yul\":1735:1957   */\n    tag_26:\n        /* \"#utility.yul\":1828:1832   */\n      0x00\n        /* \"#utility.yul\":1866:1868   */\n      0x20\n        /* \"#utility.yul\":1855:1864   */\n      dup3\n        /* \"#utility.yul\":1851:1869   */\n      add\n        /* \"#utility.yul\":1843:1869   */\n      swap1\n      pop\n        /* \"#utility.yul\":1879:1950   */\n      tag_151\n        /* \"#utility.yul\":1947:1948   */\n      0x00\n        /* \"#utility.yul\":1936:1945   */\n      dup4\n        /* \"#utility.yul\":1932:1949   */\n      add\n        /* \"#utility.yul\":1923:1929   */\n      dup5\n        /* \"#utility.yul\":1879:1950   */\n      tag_105\n      jump\t// in\n    tag_151:\n        /* \"#utility.yul\":1735:1957   */\n      swap3\n      swap2\n      pop\n      pop\n      jump\t// out\n        /* \"#utility.yul\":1963:2085   */\n    tag_106:\n        /* \"#utility.yul\":2036:2060   */\n      tag_153\n        /* \"#utility.yul\":2054:2059   */\n      dup2\n        /* \"#utility.yul\":2036:2060   */\n      tag_96\n      jump\t// in\n    tag_153:\n        /* \"#utility.yul\":2029:2034   */\n      dup2\n        /* \"#utility.yul\":2026:2061   */\n      eq\n        /* \"#utility.yul\":2016:2079   */\n      tag_154\n      jumpi\n        /* \"#utility.yul\":2075:2076   */\n      0x00\n        /* \"#utility.yul\":2072:2073   */\n      dup1\n        /* \"#utility.yul\":2065:2077   */\n      revert\n        /* \"#utility.yul\":2016:2079   */\n    tag_154:\n        /* \"#utility.yul\":1963:2085   */\n      pop\n      jump\t// out\n        /* \"#utility.yul\":2091:2230   */\n    tag_107:\n        /* \"#utility.yul\":2137:2142   */\n      0x00\n        /* \"#utility.yul\":2175:2181   */\n      dup2\n        /* \"#utility.yul\":2162:2182   */\n      calldataload\n        /* \"#utility.yul\":2153:2182   */\n      swap1\n      pop\n        /* \"#utility.yul\":2191:2224   */\n      tag_156\n        /* \"#utility.yul\":2218:2223   */\n      dup2\n        /* \"#utility.yul\":2191:2224   */\n      tag_106\n      jump\t// in\n    tag_156:\n        /* \"#utility.yul\":2091:2230   */\n      swap3\n      swap2\n      pop\n      pop\n      jump\t// out\n        /* \"#utility.yul\":2236:2565   */\n    tag_32:\n        /* \"#utility.yul\":2295:2301   */\n      0x00\n        /* \"#utility.yul\":2344:2346   */\n      0x20\n        /* \"#utility.yul\":2332:2341   */\n      dup3\n        /* \"#utility.yul\":2323:2330   */\n      dup5\n        /* \"#utility.yul\":2319:2342   */\n      sub\n        /* \"#utility.yul\":2315:2347   */\n      slt\n        /* \"#utility.yul\":2312:2431   */\n      iszero\n      tag_158\n      jumpi\n        /* \"#utility.yul\":2350:2429   */\n      tag_159\n      tag_99\n      jump\t// in\n    tag_159:\n        /* \"#utility.yul\":2312:2431   */\n    tag_158:\n        /* \"#utility.yul\":2470:2471   */\n      0x00\n        /* \"#utility.yul\":2495:2548   */\n      tag_160\n        /* \"#utility.yul\":2540:2547   */\n      dup5\n        /* \"#utility.yul\":2531:2537   */\n      dup3\n        /* \"#utility.yul\":2520:2529   */\n      dup6\n        /* \"#utility.yul\":2516:2538   */\n      add\n        /* \"#utility.yul\":2495:2548   */\n      tag_107\n      jump\t// in\n    tag_160:\n        /* \"#utility.yul\":2485:2548   */\n      swap2\n      pop\n        /* \"#utility.yul\":2441:2558   */\n      pop\n        /* \"#utility.yul\":2236:2565   */\n      swap3\n      swap2\n      pop\n      pop\n      jump\t// out\n        /* \"#utility.yul\":2571:2740   */\n    tag_108:\n        /* \"#utility.yul\":2655:2666   */\n      0x00\n        /* \"#utility.yul\":2689:2695   */\n      dup3\n        /* \"#utility.yul\":2684:2687   */\n      dup3\n        /* \"#utility.yul\":2677:2696   */\n      mstore\n        /* \"#utility.yul\":2729:2733   */\n      0x20\n        /* \"#utility.yul\":2724:2727   */\n      dup3\n        /* \"#utility.yul\":2720:2734   */\n      add\n        /* \"#utility.yul\":2705:2734   */\n      swap1\n      pop\n        /* \"#utility.yul\":2571:2740   */\n      swap3\n      swap2\n      pop\n      pop\n      jump\t// out\n        /* \"#utility.yul\":2746:2916   */\n    tag_109:\n        /* \"#utility.yul\":2886:2908   */\n      0x53656e646572206973206e6f74206f776e657221000000000000000000000000\n        /* \"#utility.yul\":2882:2883   */\n      0x00\n        /* \"#utility.yul\":2874:2880   */\n      dup3\n        /* \"#utility.yul\":2870:2884   */\n      add\n        /* \"#utility.yul\":2863:2909   */\n      mstore\n        /* \"#utility.yul\":2746:2916   */\n      pop\n      jump\t// out\n        /* \"#utility.yul\":2922:3288   */\n    tag_110:\n        /* \"#utility.yul\":3064:3067   */\n      0x00\n        /* \"#utility.yul\":3085:3152   */\n      tag_164\n        /* \"#utility.yul\":3149:3151   */\n      0x14\n        /* \"#utility.yul\":3144:3147   */\n      dup4\n        /* \"#utility.yul\":3085:3152   */\n      tag_108\n      jump\t// in\n    tag_164:\n        /* \"#utility.yul\":3078:3152   */\n      swap2\n      pop\n        /* \"#utility.yul\":3161:3254   */\n      tag_165\n        /* \"#utility.yul\":3250:3253   */\n      dup3\n        /* \"#utility.yul\":3161:3254   */\n      tag_109\n      jump\t// in\n    tag_165:\n        /* \"#utility.yul\":3279:3281   */\n      0x20\n        /* \"#utility.yul\":3274:3277   */\n      dup3\n        /* \"#utility.yul\":3270:3282   */\n      add\n        /* \"#utility.yul\":3263:3282   */\n      swap1\n      pop\n        /* \"#utility.yul\":2922:3288   */\n      swap2\n      swap1\n      pop\n      jump\t// out\n        /* \"#utility.yul\":3294:3713   */\n    tag_38:\n        /* \"#utility.yul\":3460:3464   */\n      0x00\n        /* \"#utility.yul\":3498:3500   */\n      0x20\n        /* \"#utility.yul\":3487:3496   */\n      dup3\n        /* \"#utility.yul\":3483:3501   */\n      add\n        /* \"#utility.yul\":3475:3501   */\n      swap1\n      pop\n        /* \"#utility.yul\":3547:3556   */\n      dup2\n        /* \"#utility.yul\":3541:3545   */\n      dup2\n        /* \"#utility.yul\":3537:3557   */\n      sub\n        /* \"#utility.yul\":3533:3534   */\n      0x00\n        /* \"#utility.yul\":3522:3531   */\n      dup4\n        /* \"#utility.yul\":3518:3535   */\n      add\n        /* \"#utility.yul\":3511:3558   */\n      mstore\n        /* \"#utility.yul\":3575:3706   */\n      tag_167\n        /* \"#utility.yul\":3701:3705   */\n      dup2\n        /* \"#utility.yul\":3575:3706   */\n      tag_110\n      jump\t// in\n    tag_167:\n        /* \"#utility.yul\":3567:3706   */\n      swap1\n      pop\n        /* \"#utility.yul\":3294:3713   */\n      swap2\n      swap1\n      pop\n      jump\t// out\n        /* \"#utility.yul\":3719:3899   */\n    tag_47:\n        /* \"#utility.yul\":3767:3844   */\n      0x4e487b7100000000000000000000000000000000000000000000000000000000\n        /* \"#utility.yul\":3764:3765   */\n      0x00\n        /* \"#utility.yul\":3757:3845   */\n      mstore\n        /* \"#utility.yul\":3864:3868   */\n      0x32\n        /* \"#utility.yul\":3861:3862   */\n      0x04\n        /* \"#utility.yul\":3854:3869   */\n      mstore\n        /* \"#utility.yul\":3888:3892   */\n      0x24\n        /* \"#utility.yul\":3885:3886   */\n      0x00\n        /* \"#utility.yul\":3878:3893   */\n      revert\n        /* \"#utility.yul\":3905:4085   */\n    tag_111:\n        /* \"#utility.yul\":3953:4030   */\n      0x4e487b7100000000000000000000000000000000000000000000000000000000\n        /* \"#utility.yul\":3950:3951   */\n      0x00\n        /* \"#utility.yul\":3943:4031   */\n      mstore\n        /* \"#utility.yul\":4050:4054   */\n      0x11\n        /* \"#utility.yul\":4047:4048   */\n      0x04\n        /* \"#utility.yul\":4040:4055   */\n      mstore\n        /* \"#utility.yul\":4074:4078   */\n      0x24\n        /* \"#utility.yul\":4071:4072   */\n      0x00\n        /* \"#utility.yul\":4064:4079   */\n      revert\n        /* \"#utility.yul\":4091:4324   */\n    tag_50:\n        /* \"#utility.yul\":4130:4133   */\n      0x00\n        /* \"#utility.yul\":4153:4177   */\n      tag_171\n        /* \"#utility.yul\":4171:4176   */\n      dup3\n        /* \"#utility.yul\":4153:4177   */\n      tag_96\n      jump\t// in\n    tag_171:\n        /* \"#utility.yul\":4144:4177   */\n      swap2\n      pop\n        /* \"#utility.yul\":4199:4265   */\n      0xffffffffffffffffffffffffffffffffffffffffffffffffffffffffffffffff\n        /* \"#utility.yul\":4192:4197   */\n      dup3\n        /* \"#utility.yul\":4189:4266   */\n      eq\n        /* \"#utility.yul\":4186:4289   */\n      iszero\n      tag_172\n      jumpi\n        /* \"#utility.yul\":4269:4287   */\n      tag_173\n      tag_111\n      jump\t// in\n    tag_173:\n        /* \"#utility.yul\":4186:4289   */\n    tag_172:\n        /* \"#utility.yul\":4316:4317   */\n      0x01\n        /* \"#utility.yul\":4309:4314   */\n      dup3\n        /* \"#utility.yul\":4305:4318   */\n      add\n        /* \"#utility.yul\":4298:4318   */\n      swap1\n      pop\n        /* \"#utility.yul\":4091:4324   */\n      swap2\n      swap1\n      pop\n      jump\t// out\n        /* \"#utility.yul\":4330:4510   */\n    tag_53:\n        /* \"#utility.yul\":4378:4455   */\n      0x4e487b7100000000000000000000000000000000000000000000000000000000\n        /* \"#utility.yul\":4375:4376   */\n      0x00\n        /* \"#utility.yul\":4368:4456   */\n      mstore\n        /* \"#utility.yul\":4475:4479   */\n      0x41\n        /* \"#utility.yul\":4472:4473   */\n      0x04\n        /* \"#utility.yul\":4465:4480   */\n      mstore\n        /* \"#utility.yul\":4499:4503   */\n      0x24\n        /* \"#utility.yul\":4496:4497   */\n      0x00\n        /* \"#utility.yul\":4489:4504   */\n      revert\n        /* \"#utility.yul\":4516:4663   */\n    tag_112:\n        /* \"#utility.yul\":4617:4628   */\n      0x00\n        /* \"#utility.yul\":4654:4657   */\n      dup2\n        /* \"#utility.yul\":4639:4657   */\n      swap1\n      pop\n        /* \"#utility.yul\":4516:4663   */\n      swap3\n      swap2\n      pop\n      pop\n      jump\t// out\n        /* \"#utility.yul\":4669:4783   */\n    tag_113:\n      pop\n      jump\t// out\n        /* \"#utility.yul\":4789:5187   */\n    tag_114:\n        /* \"#utility.yul\":4948:4951   */\n      0x00\n        /* \"#utility.yul\":4969:5052   */\n      tag_178\n        /* \"#utility.yul\":5050:5051   */\n      0x00\n        /* \"#utility.yul\":5045:5048   */\n      dup4\n        /* \"#utility.yul\":4969:5052   */\n      tag_112\n      jump\t// in\n    tag_178:\n        /* \"#utility.yul\":4962:5052   */\n      swap2\n      pop\n        /* \"#utility.yul\":5061:5154   */\n      tag_179\n        /* \"#utility.yul\":5150:5153   */\n      dup3\n        /* \"#utility.yul\":5061:5154   */\n      tag_113\n      jump\t// in\n    tag_179:\n        /* \"#utility.yul\":5179:5180   */\n      0x00\n        /* \"#utility.yul\":5174:5177   */\n      dup3\n        /* \"#utility.yul\":5170:5181   */\n      add\n        /* \"#utility.yul\":5163:5181   */\n      swap1\n      pop\n        /* \"#utility.yul\":4789:5187   */\n      swap2\n      swap1\n      pop\n      jump\t// out\n        /* \"#utility.yul\":5193:5572   */\n    tag_58:\n        /* \"#utility.yul\":5377:5380   */\n      0x00\n        /* \"#utility.yul\":5399:5546   */\n      tag_181\n        /* \"#utility.yul\":5542:5545   */\n      dup3\n        /* \"#utility.yul\":5399:5546   */\n      tag_114\n      jump\t// in\n    tag_181:\n        /* \"#utility.yul\":5392:5546   */\n      swap2\n      pop\n        /* \"#utility.yul\":5563:5566   */\n      dup2\n        /* \"#utility.yul\":5556:5566   */\n      swap1\n      pop\n        /* \"#utility.yul\":5193:5572   */\n      swap2\n      swap1\n      pop\n      jump\t// out\n        /* \"#utility.yul\":5578:5739   */\n    tag_115:\n        /* \"#utility.yul\":5718:5731   */\n      0x53656e64206661696c6564000000000000000000000000000000000000000000\n        /* \"#utility.yul\":5714:5715   */\n      0x00\n        /* \"#utility.yul\":5706:5712   */\n      dup3\n        /* \"#utility.yul\":5702:5716   */\n      add\n        /* \"#utility.yul\":5695:5732   */\n      mstore\n        /* \"#utility.yul\":5578:5739   */\n      pop\n      jump\t// out\n        /* \"#utility.yul\":5745:6111   */\n    tag_116:\n        /* \"#utility.yul\":5887:5890   */\n      0x00\n        /* \"#utility.yul\":5908:5975   */\n      tag_184\n        /* \"#utility.yul\":5972:5974   */\n      0x0b\n        /* \"#utility.yul\":5967:5970   */\n      dup4\n        /* \"#utility.yul\":5908:5975   */\n      tag_108\n      jump\t// in\n    tag_184:\n        /* \"#utility.yul\":5901:5975   */\n      swap2\n      pop\n        /* \"#utility.yul\":5984:6077   */\n      tag_185\n        /* \"#utility.yul\":6073:6076   */\n      dup3\n        /* \"#utility.yul\":5984:6077   */\n      tag_115\n      jump\t// in\n    tag_185:\n        /* \"#utility.yul\":6102:6104   */\n      0x20\n        /* \"#utility.yul\":6097:6100   */\n      dup3\n        /* \"#utility.yul\":6093:6105   */\n      add\n        /* \"#utility.yul\":6086:6105   */\n      swap1\n      pop\n        /* \"#utility.yul\":5745:6111   */\n      swap2\n      swap1\n      pop\n      jump\t// out\n        /* \"#utility.yul\":6117:6536   */\n    tag_64:\n        /* \"#utility.yul\":6283:6287   */\n      0x00\n        /* \"#utility.yul\":6321:6323   */\n      0x20\n        /* \"#utility.yul\":6310:6319   */\n      dup3\n        /* \"#utility.yul\":6306:6324   */\n      add\n        /* \"#utility.yul\":6298:6324   */\n      swap1\n      pop\n        /* \"#utility.yul\":6370:6379   */\n      dup2\n        /* \"#utility.yul\":6364:6368   */\n      dup2\n        /* \"#utility.yul\":6360:6380   */\n      sub\n        /* \"#utility.yul\":6356:6357   */\n      0x00\n        /* \"#utility.yul\":6345:6354   */\n      dup4\n        /* \"#utility.yul\":6341:6358   */\n      add\n        /* \"#utility.yul\":6334:6381   */\n      mstore\n        /* \"#utility.yul\":6398:6529   */\n      tag_187\n        /* \"#utility.yul\":6524:6528   */\n      dup2\n        /* \"#utility.yul\":6398:6529   */\n      tag_116\n      jump\t// in\n    tag_187:\n        /* \"#utility.yul\":6390:6529   */\n      swap1\n      pop\n        /* \"#utility.yul\":6117:6536   */\n      swap2\n      swap1\n      pop\n      jump\t// out\n        /* \"#utility.yul\":6542:6712   */\n    tag_117:\n        /* \"#utility.yul\":6682:6704   */\n      0x446964206e6f742073656e6420656e6f75676821000000000000000000000000\n        /* \"#utility.yul\":6678:6679   */\n      0x00\n        /* \"#utility.yul\":6670:6676   */\n      dup3\n        /* \"#utility.yul\":6666:6680   */\n      add\n        /* \"#utility.yul\":6659:6705   */\n      mstore\n        /* \"#utility.yul\":6542:6712   */\n      pop\n      jump\t// out\n        /* \"#utility.yul\":6718:7084   */\n    tag_118:\n        /* \"#utility.yul\":6860:6863   */\n      0x00\n        /* \"#utility.yul\":6881:6948   */\n      tag_190\n        /* \"#utility.yul\":6945:6947   */\n      0x14\n        /* \"#utility.yul\":6940:6943   */\n      dup4\n        /* \"#utility.yul\":6881:6948   */\n      tag_108\n      jump\t// in\n    tag_190:\n        /* \"#utility.yul\":6874:6948   */\n      swap2\n      pop\n        /* \"#utility.yul\":6957:7050   */\n      tag_191\n        /* \"#utility.yul\":7046:7049   */\n      dup3\n        /* \"#utility.yul\":6957:7050   */\n      tag_117\n      jump\t// in\n    tag_191:\n        /* \"#utility.yul\":7075:7077   */\n      0x20\n        /* \"#utility.yul\":7070:7073   */\n      dup3\n        /* \"#utility.yul\":7066:7078   */\n      add\n        /* \"#utility.yul\":7059:7078   */\n      swap1\n      pop\n        /* \"#utility.yul\":6718:7084   */\n      swap2\n      swap1\n      pop\n      jump\t// out\n        /* \"#utility.yul\":7090:7509   */\n    tag_70:\n        /* \"#utility.yul\":7256:7260   */\n      0x00\n        /* \"#utility.yul\":7294:7296   */\n      0x20\n        /* \"#utility.yul\":7283:7292   */\n      dup3\n        /* \"#utility.yul\":7279:7297   */\n      add\n        /* \"#utility.yul\":7271:7297   */\n      swap1\n      pop\n        /* \"#utility.yul\":7343:7352   */\n      dup2\n        /* \"#utility.yul\":7337:7341   */\n      dup2\n        /* \"#utility.yul\":7333:7353   */\n      sub\n        /* \"#utility.yul\":7329:7330   */\n      0x00\n        /* \"#utility.yul\":7318:7327   */\n      dup4\n        /* \"#utility.yul\":7314:7331   */\n      add\n        /* \"#utility.yul\":7307:7354   */\n      mstore\n        /* \"#utility.yul\":7371:7502   */\n      tag_193\n        /* \"#utility.yul\":7497:7501   */\n      dup2\n        /* \"#utility.yul\":7371:7502   */\n      tag_118\n      jump\t// in\n    tag_193:\n        /* \"#utility.yul\":7363:7502   */\n      swap1\n      pop\n        /* \"#utility.yul\":7090:7509   */\n      swap2\n      swap1\n      pop\n      jump\t// out\n        /* \"#utility.yul\":7515:7863   */\n    tag_78:\n        /* \"#utility.yul\":7555:7562   */\n      0x00\n        /* \"#utility.yul\":7578:7598   */\n      tag_195\n        /* \"#utility.yul\":7596:7597   */\n      dup3\n        /* \"#utility.yul\":7578:7598   */\n      tag_96\n      jump\t// in\n    tag_195:\n        /* \"#utility.yul\":7573:7598   */\n      swap2\n      pop\n        /* \"#utility.yul\":7612:7632   */\n      tag_196\n        /* \"#utility.yul\":7630:7631   */\n      dup4\n        /* \"#utility.yul\":7612:7632   */\n      tag_96\n      jump\t// in\n    tag_196:\n        /* \"#utility.yul\":7607:7632   */\n      swap3\n      pop\n        /* \"#utility.yul\":7800:7801   */\n      dup2\n        /* \"#utility.yul\":7732:7798   */\n      0xffffffffffffffffffffffffffffffffffffffffffffffffffffffffffffffff\n        /* \"#utility.yul\":7728:7802   */\n      div\n        /* \"#utility.yul\":7725:7726   */\n      dup4\n        /* \"#utility.yul\":7722:7803   */\n      gt\n        /* \"#utility.yul\":7717:7718   */\n      dup3\n        /* \"#utility.yul\":7710:7719   */\n      iszero\n        /* \"#utility.yul\":7703:7720   */\n      iszero\n        /* \"#utility.yul\":7699:7804   */\n      and\n        /* \"#utility.yul\":7696:7827   */\n      iszero\n      tag_197\n      jumpi\n        /* \"#utility.yul\":7807:7825   */\n      tag_198\n      tag_111\n      jump\t// in\n    tag_198:\n        /* \"#utility.yul\":7696:7827   */\n    tag_197:\n        /* \"#utility.yul\":7855:7856   */\n      dup3\n        /* \"#utility.yul\":7852:7853   */\n      dup3\n        /* \"#utility.yul\":7848:7857   */\n      mul\n        /* \"#utility.yul\":7837:7857   */\n      swap1\n      pop\n        /* \"#utility.yul\":7515:7863   */\n      swap3\n      swap2\n      pop\n      pop\n      jump\t// out\n        /* \"#utility.yul\":7869:8049   */\n    tag_119:\n        /* \"#utility.yul\":7917:7994   */\n      0x4e487b7100000000000000000000000000000000000000000000000000000000\n        /* \"#utility.yul\":7914:7915   */\n      0x00\n        /* \"#utility.yul\":7907:7995   */\n      mstore\n        /* \"#utility.yul\":8014:8018   */\n      0x12\n        /* \"#utility.yul\":8011:8012   */\n      0x04\n        /* \"#utility.yul\":8004:8019   */\n      mstore\n        /* \"#utility.yul\":8038:8042   */\n      0x24\n        /* \"#utility.yul\":8035:8036   */\n      0x00\n        /* \"#utility.yul\":8028:8043   */\n      revert\n        /* \"#utility.yul\":8055:8240   */\n    tag_80:\n        /* \"#utility.yul\":8095:8096   */\n      0x00\n        /* \"#utility.yul\":8112:8132   */\n      tag_201\n        /* \"#utility.yul\":8130:8131   */\n      dup3\n        /* \"#utility.yul\":8112:8132   */\n      tag_96\n      jump\t// in\n    tag_201:\n        /* \"#utility.yul\":8107:8132   */\n      swap2\n      pop\n        /* \"#utility.yul\":8146:8166   */\n      tag_202\n        /* \"#utility.yul\":8164:8165   */\n      dup4\n        /* \"#utility.yul\":8146:8166   */\n      tag_96\n      jump\t// in\n    tag_202:\n        /* \"#utility.yul\":8141:8166   */\n      swap3\n      pop\n        /* \"#utility.yul\":8185:8186   */\n      dup3\n        /* \"#utility.yul\":8175:8210   */\n      tag_203\n      jumpi\n        /* \"#utility.yul\":8190:8208   */\n      tag_204\n      tag_119\n      jump\t// in\n    tag_204:\n        /* \"#utility.yul\":8175:8210   */\n    tag_203:\n        /* \"#utility.yul\":8232:8233   */\n      dup3\n        /* \"#utility.yul\":8229:8230   */\n      dup3\n        /* \"#utility.yul\":8225:8234   */\n      div\n        /* \"#utility.yul\":8220:8234   */\n      swap1\n      pop\n        /* \"#utility.yul\":8055:8240   */\n      swap3\n      swap2\n      pop\n      pop\n      jump\t// out\n        /* \"#utility.yul\":8246:8351   */\n    tag_120:\n        /* \"#utility.yul\":8282:8289   */\n      0x00\n        /* \"#utility.yul\":8322:8344   */\n      0xffffffffffffffffffff\n        /* \"#utility.yul\":8315:8320   */\n      dup3\n        /* \"#utility.yul\":8311:8345   */\n      and\n        /* \"#utility.yul\":8300:8345   */\n      swap1\n      pop\n        /* \"#utility.yul\":8246:8351   */\n      swap2\n      swap1\n      pop\n      jump\t// out\n        /* \"#utility.yul\":8357:8477   */\n    tag_121:\n        /* \"#utility.yul\":8429:8452   */\n      tag_207\n        /* \"#utility.yul\":8446:8451   */\n      dup2\n        /* \"#utility.yul\":8429:8452   */\n      tag_120\n      jump\t// in\n    tag_207:\n        /* \"#utility.yul\":8422:8427   */\n      dup2\n        /* \"#utility.yul\":8419:8453   */\n      eq\n        /* \"#utility.yul\":8409:8471   */\n      tag_208\n      jumpi\n        /* \"#utility.yul\":8467:8468   */\n      0x00\n        /* \"#utility.yul\":8464:8465   */\n      dup1\n        /* \"#utility.yul\":8457:8469   */\n      revert\n        /* \"#utility.yul\":8409:8471   */\n    tag_208:\n        /* \"#utility.yul\":8357:8477   */\n      pop\n      jump\t// out\n        /* \"#utility.yul\":8483:8624   */\n    tag_122:\n        /* \"#utility.yul\":8539:8544   */\n      0x00\n        /* \"#utility.yul\":8570:8576   */\n      dup2\n        /* \"#utility.yul\":8564:8577   */\n      mload\n        /* \"#utility.yul\":8555:8577   */\n      swap1\n      pop\n        /* \"#utility.yul\":8586:8618   */\n      tag_210\n        /* \"#utility.yul\":8612:8617   */\n      dup2\n        /* \"#utility.yul\":8586:8618   */\n      tag_121\n      jump\t// in\n    tag_210:\n        /* \"#utility.yul\":8483:8624   */\n      swap3\n      swap2\n      pop\n      pop\n      jump\t// out\n        /* \"#utility.yul\":8630:8706   */\n    tag_123:\n        /* \"#utility.yul\":8666:8673   */\n      0x00\n        /* \"#utility.yul\":8695:8700   */\n      dup2\n        /* \"#utility.yul\":8684:8700   */\n      swap1\n      pop\n        /* \"#utility.yul\":8630:8706   */\n      swap2\n      swap1\n      pop\n      jump\t// out\n        /* \"#utility.yul\":8712:8832   */\n    tag_124:\n        /* \"#utility.yul\":8784:8807   */\n      tag_213\n        /* \"#utility.yul\":8801:8806   */\n      dup2\n        /* \"#utility.yul\":8784:8807   */\n      tag_123\n      jump\t// in\n    tag_213:\n        /* \"#utility.yul\":8777:8782   */\n      dup2\n        /* \"#utility.yul\":8774:8808   */\n      eq\n        /* \"#utility.yul\":8764:8826   */\n      tag_214\n      jumpi\n        /* \"#utility.yul\":8822:8823   */\n      0x00\n        /* \"#utility.yul\":8819:8820   */\n      dup1\n        /* \"#utility.yul\":8812:8824   */\n      revert\n        /* \"#utility.yul\":8764:8826   */\n    tag_214:\n        /* \"#utility.yul\":8712:8832   */\n      pop\n      jump\t// out\n        /* \"#utility.yul\":8838:8979   */\n    tag_125:\n        /* \"#utility.yul\":8894:8899   */\n      0x00\n        /* \"#utility.yul\":8925:8931   */\n      dup2\n        /* \"#utility.yul\":8919:8932   */\n      mload\n        /* \"#utility.yul\":8910:8932   */\n      swap1\n      pop\n        /* \"#utility.yul\":8941:8973   */\n      tag_216\n        /* \"#utility.yul\":8967:8972   */\n      dup2\n        /* \"#utility.yul\":8941:8973   */\n      tag_124\n      jump\t// in\n    tag_216:\n        /* \"#utility.yul\":8838:8979   */\n      swap3\n      swap2\n      pop\n      pop\n      jump\t// out\n        /* \"#utility.yul\":8985:9128   */\n    tag_126:\n        /* \"#utility.yul\":9042:9047   */\n      0x00\n        /* \"#utility.yul\":9073:9079   */\n      dup2\n        /* \"#utility.yul\":9067:9080   */\n      mload\n        /* \"#utility.yul\":9058:9080   */\n      swap1\n      pop\n        /* \"#utility.yul\":9089:9122   */\n      tag_218\n        /* \"#utility.yul\":9116:9121   */\n      dup2\n        /* \"#utility.yul\":9089:9122   */\n      tag_106\n      jump\t// in\n    tag_218:\n        /* \"#utility.yul\":8985:9128   */\n      swap3\n      swap2\n      pop\n      pop\n      jump\t// out\n        /* \"#utility.yul\":9134:10105   */\n    tag_86:\n        /* \"#utility.yul\":9237:9243   */\n      0x00\n        /* \"#utility.yul\":9245:9251   */\n      dup1\n        /* \"#utility.yul\":9253:9259   */\n      0x00\n        /* \"#utility.yul\":9261:9267   */\n      dup1\n        /* \"#utility.yul\":9269:9275   */\n      0x00\n        /* \"#utility.yul\":9318:9321   */\n      0xa0\n        /* \"#utility.yul\":9306:9315   */\n      dup7\n        /* \"#utility.yul\":9297:9304   */\n      dup9\n        /* \"#utility.yul\":9293:9316   */\n      sub\n        /* \"#utility.yul\":9289:9322   */\n      slt\n        /* \"#utility.yul\":9286:9406   */\n      iszero\n      tag_220\n      jumpi\n        /* \"#utility.yul\":9325:9404   */\n      tag_221\n      tag_99\n      jump\t// in\n    tag_221:\n        /* \"#utility.yul\":9286:9406   */\n    tag_220:\n        /* \"#utility.yul\":9445:9446   */\n      0x00\n        /* \"#utility.yul\":9470:9533   */\n      tag_222\n        /* \"#utility.yul\":9525:9532   */\n      dup9\n        /* \"#utility.yul\":9516:9522   */\n      dup3\n        /* \"#utility.yul\":9505:9514   */\n      dup10\n        /* \"#utility.yul\":9501:9523   */\n      add\n        /* \"#utility.yul\":9470:9533   */\n      tag_122\n      jump\t// in\n    tag_222:\n        /* \"#utility.yul\":9460:9533   */\n      swap6\n      pop\n        /* \"#utility.yul\":9416:9543   */\n      pop\n        /* \"#utility.yul\":9582:9584   */\n      0x20\n        /* \"#utility.yul\":9608:9671   */\n      tag_223\n        /* \"#utility.yul\":9663:9670   */\n      dup9\n        /* \"#utility.yul\":9654:9660   */\n      dup3\n        /* \"#utility.yul\":9643:9652   */\n      dup10\n        /* \"#utility.yul\":9639:9661   */\n      add\n        /* \"#utility.yul\":9608:9671   */\n      tag_125\n      jump\t// in\n    tag_223:\n        /* \"#utility.yul\":9598:9671   */\n      swap5\n      pop\n        /* \"#utility.yul\":9553:9681   */\n      pop\n        /* \"#utility.yul\":9720:9722   */\n      0x40\n        /* \"#utility.yul\":9746:9810   */\n      tag_224\n        /* \"#utility.yul\":9802:9809   */\n      dup9\n        /* \"#utility.yul\":9793:9799   */\n      dup3\n        /* \"#utility.yul\":9782:9791   */\n      dup10\n        /* \"#utility.yul\":9778:9800   */\n      add\n        /* \"#utility.yul\":9746:9810   */\n      tag_126\n      jump\t// in\n    tag_224:\n        /* \"#utility.yul\":9736:9810   */\n      swap4\n      pop\n        /* \"#utility.yul\":9691:9820   */\n      pop\n        /* \"#utility.yul\":9859:9861   */\n      0x60\n        /* \"#utility.yul\":9885:9949   */\n      tag_225\n        /* \"#utility.yul\":9941:9948   */\n      dup9\n        /* \"#utility.yul\":9932:9938   */\n      dup3\n        /* \"#utility.yul\":9921:9930   */\n      dup10\n        /* \"#utility.yul\":9917:9939   */\n      add\n        /* \"#utility.yul\":9885:9949   */\n      tag_126\n      jump\t// in\n    tag_225:\n        /* \"#utility.yul\":9875:9949   */\n      swap3\n      pop\n        /* \"#utility.yul\":9830:9959   */\n      pop\n        /* \"#utility.yul\":9998:10001   */\n      0x80\n        /* \"#utility.yul\":10025:10088   */\n      tag_226\n        /* \"#utility.yul\":10080:10087   */\n      dup9\n        /* \"#utility.yul\":10071:10077   */\n      dup3\n        /* \"#utility.yul\":10060:10069   */\n      dup10\n        /* \"#utility.yul\":10056:10078   */\n      add\n        /* \"#utility.yul\":10025:10088   */\n      tag_122\n      jump\t// in\n    tag_226:\n        /* \"#utility.yul\":10015:10088   */\n      swap2\n      pop\n        /* \"#utility.yul\":9969:10098   */\n      pop\n        /* \"#utility.yul\":9134:10105   */\n      swap3\n      swap6\n      pop\n      swap3\n      swap6\n      swap1\n      swap4\n      pop\n      jump\t// out\n        /* \"#utility.yul\":10111:11102   */\n    tag_88:\n        /* \"#utility.yul\":10150:10157   */\n      0x00\n        /* \"#utility.yul\":10173:10192   */\n      tag_228\n        /* \"#utility.yul\":10190:10191   */\n      dup3\n        /* \"#utility.yul\":10173:10192   */\n      tag_123\n      jump\t// in\n    tag_228:\n        /* \"#utility.yul\":10168:10192   */\n      swap2\n      pop\n        /* \"#utility.yul\":10206:10225   */\n      tag_229\n        /* \"#utility.yul\":10223:10224   */\n      dup4\n        /* \"#utility.yul\":10206:10225   */\n      tag_123\n      jump\t// in\n    tag_229:\n        /* \"#utility.yul\":10201:10225   */\n      swap3\n      pop\n        /* \"#utility.yul\":10407:10408   */\n      dup3\n        /* \"#utility.yul\":10339:10405   */\n      0x7fffffffffffffffffffffffffffffffffffffffffffffffffffffffffffffff\n        /* \"#utility.yul\":10335:10409   */\n      div\n        /* \"#utility.yul\":10332:10333   */\n      dup3\n        /* \"#utility.yul\":10329:10410   */\n      gt\n        /* \"#utility.yul\":10324:10325   */\n      0x00\n        /* \"#utility.yul\":10321:10322   */\n      dup5\n        /* \"#utility.yul\":10317:10326   */\n      sgt\n        /* \"#utility.yul\":10313:10314   */\n      0x00\n        /* \"#utility.yul\":10310:10311   */\n      dup5\n        /* \"#utility.yul\":10306:10315   */\n      sgt\n        /* \"#utility.yul\":10302:10327   */\n      and\n        /* \"#utility.yul\":10298:10411   */\n      and\n        /* \"#utility.yul\":10295:10434   */\n      iszero\n      tag_230\n      jumpi\n        /* \"#utility.yul\":10414:10432   */\n      tag_231\n      tag_111\n      jump\t// in\n    tag_231:\n        /* \"#utility.yul\":10295:10434   */\n    tag_230:\n        /* \"#utility.yul\":10618:10619   */\n      dup2\n        /* \"#utility.yul\":10550:10616   */\n      0x8000000000000000000000000000000000000000000000000000000000000000\n        /* \"#utility.yul\":10545:10620   */\n      sdiv\n        /* \"#utility.yul\":10542:10543   */\n      dup4\n        /* \"#utility.yul\":10538:10621   */\n      slt\n        /* \"#utility.yul\":10533:10534   */\n      0x00\n        /* \"#utility.yul\":10530:10531   */\n      dup5\n        /* \"#utility.yul\":10526:10535   */\n      slt\n        /* \"#utility.yul\":10522:10523   */\n      0x00\n        /* \"#utility.yul\":10519:10520   */\n      dup5\n        /* \"#utility.yul\":10515:10524   */\n      sgt\n        /* \"#utility.yul\":10511:10536   */\n      and\n        /* \"#utility.yul\":10507:10622   */\n      and\n        /* \"#utility.yul\":10504:10645   */\n      iszero\n      tag_232\n      jumpi\n        /* \"#utility.yul\":10625:10643   */\n      tag_233\n      tag_111\n      jump\t// in\n    tag_233:\n        /* \"#utility.yul\":10504:10645   */\n    tag_232:\n        /* \"#utility.yul\":10829:10830   */\n      dup3\n        /* \"#utility.yul\":10761:10827   */\n      0x8000000000000000000000000000000000000000000000000000000000000000\n        /* \"#utility.yul\":10756:10831   */\n      sdiv\n        /* \"#utility.yul\":10753:10754   */\n      dup3\n        /* \"#utility.yul\":10749:10832   */\n      slt\n        /* \"#utility.yul\":10744:10745   */\n      0x00\n        /* \"#utility.yul\":10741:10742   */\n      dup5\n        /* \"#utility.yul\":10737:10746   */\n      sgt\n        /* \"#utility.yul\":10733:10734   */\n      0x00\n        /* \"#utility.yul\":10730:10731   */\n      dup5\n        /* \"#utility.yul\":10726:10735   */\n      slt\n        /* \"#utility.yul\":10722:10747   */\n      and\n        /* \"#utility.yul\":10718:10833   */\n      and\n        /* \"#utility.yul\":10715:10856   */\n      iszero\n      tag_234\n      jumpi\n        /* \"#utility.yul\":10836:10854   */\n      tag_235\n      tag_111\n      jump\t// in\n    tag_235:\n        /* \"#utility.yul\":10715:10856   */\n    tag_234:\n        /* \"#utility.yul\":11039:11040   */\n      dup3\n        /* \"#utility.yul\":10971:11037   */\n      0x7fffffffffffffffffffffffffffffffffffffffffffffffffffffffffffffff\n        /* \"#utility.yul\":10966:11041   */\n      sdiv\n        /* \"#utility.yul\":10963:10964   */\n      dup3\n        /* \"#utility.yul\":10959:11042   */\n      slt\n        /* \"#utility.yul\":10954:10955   */\n      0x00\n        /* \"#utility.yul\":10951:10952   */\n      dup5\n        /* \"#utility.yul\":10947:10956   */\n      slt\n        /* \"#utility.yul\":10943:10944   */\n      0x00\n        /* \"#utility.yul\":10940:10941   */\n      dup5\n        /* \"#utility.yul\":10936:10945   */\n      slt\n        /* \"#utility.yul\":10932:10957   */\n      and\n        /* \"#utility.yul\":10928:11043   */\n      and\n        /* \"#utility.yul\":10925:11066   */\n      iszero\n      tag_236\n      jumpi\n        /* \"#utility.yul\":11046:11064   */\n      tag_237\n      tag_111\n      jump\t// in\n    tag_237:\n        /* \"#utility.yul\":10925:11066   */\n    tag_236:\n        /* \"#utility.yul\":11094:11095   */\n      dup3\n        /* \"#utility.yul\":11091:11092   */\n      dup3\n        /* \"#utility.yul\":11087:11096   */\n      mul\n        /* \"#utility.yul\":11076:11096   */\n      swap1\n      pop\n        /* \"#utility.yul\":10111:11102   */\n      swap3\n      swap2\n      pop\n      pop\n      jump\t// out\n\n    auxdata: 0xa264697066735822122003380b09bddf7d9e3512aaf92df186c8f818319182daa0c66702e7b566b74fc864736f6c63430008080033\n}\n",
				"bytecode": {
					"linkReferences": {},
					"object": "60806040526802b5e3af16b188000060005534801561001d57600080fd5b5033600360006101000a81548173ffffffffffffffffffffffffffffffffffffffff021916908373ffffffffffffffffffffffffffffffffffffffff160217905550610d7d8061006e6000396000f3fe6080604052600436106100555760003560e01c8063098de8201461005a5780633ccfd60b146100855780633e47d6f31461009c5780638da5cb5b146100d9578063b60d428814610104578063dc0d3dff1461010e575b600080fd5b34801561006657600080fd5b5061006f61014b565b60405161007c91906106cf565b60405180910390f35b34801561009157600080fd5b5061009a610151565b005b3480156100a857600080fd5b506100c360048036038101906100be919061074d565b6103aa565b6040516100d091906106cf565b60405180910390f35b3480156100e557600080fd5b506100ee6103c2565b6040516100fb9190610789565b60405180910390f35b61010c6103e8565b005b34801561011a57600080fd5b50610135600480360381019061013091906107d0565b6104de565b6040516101429190610789565b60405180910390f35b60005481565b600360009054906101000a900473ffffffffffffffffffffffffffffffffffffffff1673ffffffffffffffffffffffffffffffffffffffff163373ffffffffffffffffffffffffffffffffffffffff16146101e1576040517f08c379a00000000000000000000000000000000000000000000000000000000081526004016101d89061085a565b60405180910390fd5b600047116101ee57600080fd5b60005b60018054905081101561029a576000600182815481106102145761021361087a565b5b9060005260206000200160009054906101000a900473ffffffffffffffffffffffffffffffffffffffff1690506000600260008373ffffffffffffffffffffffffffffffffffffffff1673ffffffffffffffffffffffffffffffffffffffff16815260200190815260200160002081905550508080610292906108d8565b9150506101f1565b50600067ffffffffffffffff8111156102b6576102b5610921565b5b6040519080825280602002602001820160405280156102e45781602001602082028036833780820191505090505b50600190805190602001906102fa92919061060f565b5060003373ffffffffffffffffffffffffffffffffffffffff164760405161032190610981565b60006040518083038185875af1925050503d806000811461035e576040519150601f19603f3d011682016040523d82523d6000602084013e610363565b606091505b50509050806103a7576040517f08c379a000000000000000000000000000000000000000000000000000000000815260040161039e906109e2565b60405180910390fd5b50565b60026020528060005260406000206000915090505481565b600360009054906101000a900473ffffffffffffffffffffffffffffffffffffffff1681565b6000546103f43461051d565b1015610435576040517f08c379a000000000000000000000000000000000000000000000000000000000815260040161042c90610a4e565b60405180910390fd5b6001339080600181540180825580915050600190039060005260206000200160009091909190916101000a81548173ffffffffffffffffffffffffffffffffffffffff021916908373ffffffffffffffffffffffffffffffffffffffff16021790555034600260003373ffffffffffffffffffffffffffffffffffffffff1673ffffffffffffffffffffffffffffffffffffffff16815260200190815260200160002081905550565b600181815481106104ee57600080fd5b906000526020600020016000915054906101000a900473ffffffffffffffffffffffffffffffffffffffff1681565b600080610528610557565b90506000670de0b6b3a764000084836105419190610a6e565b61054b9190610af7565b90508092505050919050565b600080738a753747a1fa494ec906ce90e9f37563a8af630e905060008173ffffffffffffffffffffffffffffffffffffffff1663feaf968c6040518163ffffffff1660e01b815260040160a06040518083038186803b1580156105b957600080fd5b505afa1580156105cd573d6000803e3d6000fd5b505050506040513d601f19601f820116820180604052508101906105f19190610bb5565b5050509150506402540be400816106089190610c30565b9250505090565b828054828255906000526020600020908101928215610688579160200282015b828111156106875782518260006101000a81548173ffffffffffffffffffffffffffffffffffffffff021916908373ffffffffffffffffffffffffffffffffffffffff1602179055509160200191906001019061062f565b5b5090506106959190610699565b5090565b5b808211156106b257600081600090555060010161069a565b5090565b6000819050919050565b6106c9816106b6565b82525050565b60006020820190506106e460008301846106c0565b92915050565b600080fd5b600073ffffffffffffffffffffffffffffffffffffffff82169050919050565b600061071a826106ef565b9050919050565b61072a8161070f565b811461073557600080fd5b50565b60008135905061074781610721565b92915050565b600060208284031215610763576107626106ea565b5b600061077184828501610738565b91505092915050565b6107838161070f565b82525050565b600060208201905061079e600083018461077a565b92915050565b6107ad816106b6565b81146107b857600080fd5b50565b6000813590506107ca816107a4565b92915050565b6000602082840312156107e6576107e56106ea565b5b60006107f4848285016107bb565b91505092915050565b600082825260208201905092915050565b7f53656e646572206973206e6f74206f776e657221000000000000000000000000600082015250565b60006108446014836107fd565b915061084f8261080e565b602082019050919050565b6000602082019050818103600083015261087381610837565b9050919050565b7f4e487b7100000000000000000000000000000000000000000000000000000000600052603260045260246000fd5b7f4e487b7100000000000000000000000000000000000000000000000000000000600052601160045260246000fd5b60006108e3826106b6565b91507fffffffffffffffffffffffffffffffffffffffffffffffffffffffffffffffff821415610916576109156108a9565b5b600182019050919050565b7f4e487b7100000000000000000000000000000000000000000000000000000000600052604160045260246000fd5b600081905092915050565b50565b600061096b600083610950565b91506109768261095b565b600082019050919050565b600061098c8261095e565b9150819050919050565b7f53656e64206661696c6564000000000000000000000000000000000000000000600082015250565b60006109cc600b836107fd565b91506109d782610996565b602082019050919050565b600060208201905081810360008301526109fb816109bf565b9050919050565b7f446964206e6f742073656e6420656e6f75676821000000000000000000000000600082015250565b6000610a386014836107fd565b9150610a4382610a02565b602082019050919050565b60006020820190508181036000830152610a6781610a2b565b9050919050565b6000610a79826106b6565b9150610a84836106b6565b9250817fffffffffffffffffffffffffffffffffffffffffffffffffffffffffffffffff0483118215151615610abd57610abc6108a9565b5b828202905092915050565b7f4e487b7100000000000000000000000000000000000000000000000000000000600052601260045260246000fd5b6000610b02826106b6565b9150610b0d836106b6565b925082610b1d57610b1c610ac8565b5b828204905092915050565b600069ffffffffffffffffffff82169050919050565b610b4781610b28565b8114610b5257600080fd5b50565b600081519050610b6481610b3e565b92915050565b6000819050919050565b610b7d81610b6a565b8114610b8857600080fd5b50565b600081519050610b9a81610b74565b92915050565b600081519050610baf816107a4565b92915050565b600080600080600060a08688031215610bd157610bd06106ea565b5b6000610bdf88828901610b55565b9550506020610bf088828901610b8b565b9450506040610c0188828901610ba0565b9350506060610c1288828901610ba0565b9250506080610c2388828901610b55565b9150509295509295909350565b6000610c3b82610b6a565b9150610c4683610b6a565b9250827f7fffffffffffffffffffffffffffffffffffffffffffffffffffffffffffffff0482116000841360008413161615610c8557610c846108a9565b5b817f80000000000000000000000000000000000000000000000000000000000000000583126000841260008413161615610cc257610cc16108a9565b5b827f80000000000000000000000000000000000000000000000000000000000000000582126000841360008412161615610cff57610cfe6108a9565b5b827f7fffffffffffffffffffffffffffffffffffffffffffffffffffffffffffffff0582126000841260008412161615610d3c57610d3b6108a9565b5b82820290509291505056fea264697066735822122003380b09bddf7d9e3512aaf92df186c8f818319182daa0c66702e7b566b74fc864736f6c63430008080033",
					"opcodes": "PUSH1 0x80 PUSH1 0x40 MSTORE PUSH9 0x2B5E3AF16B1880000 PUSH1 0x0 SSTORE CALLVALUE DUP1 ISZERO PUSH2 0x1D JUMPI PUSH1 0x0 DUP1 REVERT JUMPDEST POP CALLER PUSH1 0x3 PUSH1 0x0 PUSH2 0x100 EXP DUP2 SLOAD DUP2 PUSH20 0xFFFFFFFFFFFFFFFFFFFFFFFFFFFFFFFFFFFFFFFF MUL NOT AND SWAP1 DUP4 PUSH20 0xFFFFFFFFFFFFFFFFFFFFFFFFFFFFFFFFFFFFFFFF AND MUL OR SWAP1 SSTORE POP PUSH2 0xD7D DUP1 PUSH2 0x6E PUSH1 0x0 CODECOPY PUSH1 0x0 RETURN INVALID PUSH1 0x80 PUSH1 0x40 MSTORE PUSH1 0x4 CALLDATASIZE LT PUSH2 0x55 JUMPI PUSH1 0x0 CALLDATALOAD PUSH1 0xE0 SHR DUP1 PUSH4 0x98DE820 EQ PUSH2 0x5A JUMPI DUP1 PUSH4 0x3CCFD60B EQ PUSH2 0x85 JUMPI DUP1 PUSH4 0x3E47D6F3 EQ PUSH2 0x9C JUMPI DUP1 PUSH4 0x8DA5CB5B EQ PUSH2 0xD9 JUMPI DUP1 PUSH4 0xB60D4288 EQ PUSH2 0x104 JUMPI DUP1 PUSH4 0xDC0D3DFF EQ PUSH2 0x10E JUMPI JUMPDEST PUSH1 0x0 DUP1 REVERT JUMPDEST CALLVALUE DUP1 ISZERO PUSH2 0x66 JUMPI PUSH1 0x0 DUP1 REVERT JUMPDEST POP PUSH2 0x6F PUSH2 0x14B JUMP JUMPDEST PUSH1 0x40 MLOAD PUSH2 0x7C SWAP2 SWAP1 PUSH2 0x6CF JUMP JUMPDEST PUSH1 0x40 MLOAD DUP1 SWAP2 SUB SWAP1 RETURN JUMPDEST CALLVALUE DUP1 ISZERO PUSH2 0x91 JUMPI PUSH1 0x0 DUP1 REVERT JUMPDEST POP PUSH2 0x9A PUSH2 0x151 JUMP JUMPDEST STOP JUMPDEST CALLVALUE DUP1 ISZERO PUSH2 0xA8 JUMPI PUSH1 0x0 DUP1 REVERT JUMPDEST POP PUSH2 0xC3 PUSH1 0x4 DUP1 CALLDATASIZE SUB DUP2 ADD SWAP1 PUSH2 0xBE SWAP2 SWAP1 PUSH2 0x74D JUMP JUMPDEST PUSH2 0x3AA JUMP JUMPDEST PUSH1 0x40 MLOAD PUSH2 0xD0 SWAP2 SWAP1 PUSH2 0x6CF JUMP JUMPDEST PUSH1 0x40 MLOAD DUP1 SWAP2 SUB SWAP1 RETURN JUMPDEST CALLVALUE DUP1 ISZERO PUSH2 0xE5 JUMPI PUSH1 0x0 DUP1 REVERT JUMPDEST POP PUSH2 0xEE PUSH2 0x3C2 JUMP JUMPDEST PUSH1 0x40 MLOAD PUSH2 0xFB SWAP2 SWAP1 PUSH2 0x789 JUMP JUMPDEST PUSH1 0x40 MLOAD DUP1 SWAP2 SUB SWAP1 RETURN JUMPDEST PUSH2 0x10C PUSH2 0x3E8 JUMP JUMPDEST STOP JUMPDEST CALLVALUE DUP1 ISZERO PUSH2 0x11A JUMPI PUSH1 0x0 DUP1 REVERT JUMPDEST POP PUSH2 0x135 PUSH1 0x4 DUP1 CALLDATASIZE SUB DUP2 ADD SWAP1 PUSH2 0x130 SWAP2 SWAP1 PUSH2 0x7D0 JUMP JUMPDEST PUSH2 0x4DE JUMP JUMPDEST PUSH1 0x40 MLOAD PUSH2 0x142 SWAP2 SWAP1 PUSH2 0x789 JUMP JUMPDEST PUSH1 0x40 MLOAD DUP1 SWAP2 SUB SWAP1 RETURN JUMPDEST PUSH1 0x0 SLOAD DUP2 JUMP JUMPDEST PUSH1 0x3 PUSH1 0x0 SWAP1 SLOAD SWAP1 PUSH2 0x100 EXP SWAP1 DIV PUSH20 0xFFFFFFFFFFFFFFFFFFFFFFFFFFFFFFFFFFFFFFFF AND PUSH20 0xFFFFFFFFFFFFFFFFFFFFFFFFFFFFFFFFFFFFFFFF AND CALLER PUSH20 0xFFFFFFFFFFFFFFFFFFFFFFFFFFFFFFFFFFFFFFFF AND EQ PUSH2 0x1E1 JUMPI PUSH1 0x40 MLOAD PUSH32 0x8C379A000000000000000000000000000000000000000000000000000000000 DUP2 MSTORE PUSH1 0x4 ADD PUSH2 0x1D8 SWAP1 PUSH2 0x85A JUMP JUMPDEST PUSH1 0x40 MLOAD DUP1 SWAP2 SUB SWAP1 REVERT JUMPDEST PUSH1 0x0 SELFBALANCE GT PUSH2 0x1EE JUMPI PUSH1 0x0 DUP1 REVERT JUMPDEST PUSH1 0x0 JUMPDEST PUSH1 0x1 DUP1 SLOAD SWAP1 POP DUP2 LT ISZERO PUSH2 0x29A JUMPI PUSH1 0x0 PUSH1 0x1 DUP3 DUP2 SLOAD DUP2 LT PUSH2 0x214 JUMPI PUSH2 0x213 PUSH2 0x87A JUMP JUMPDEST JUMPDEST SWAP1 PUSH1 0x0 MSTORE PUSH1 0x20 PUSH1 0x0 KECCAK256 ADD PUSH1 0x0 SWAP1 SLOAD SWAP1 PUSH2 0x100 EXP SWAP1 DIV PUSH20 0xFFFFFFFFFFFFFFFFFFFFFFFFFFFFFFFFFFFFFFFF AND SWAP1 POP PUSH1 0x0 PUSH1 0x2 PUSH1 0x0 DUP4 PUSH20 0xFFFFFFFFFFFFFFFFFFFFFFFFFFFFFFFFFFFFFFFF AND PUSH20 0xFFFFFFFFFFFFFFFFFFFFFFFFFFFFFFFFFFFFFFFF AND DUP2 MSTORE PUSH1 0x20 ADD SWAP1 DUP2 MSTORE PUSH1 0x20 ADD PUSH1 0x0 KECCAK256 DUP2 SWAP1 SSTORE POP POP DUP1 DUP1 PUSH2 0x292 SWAP1 PUSH2 0x8D8 JUMP JUMPDEST SWAP2 POP POP PUSH2 0x1F1 JUMP JUMPDEST POP PUSH1 0x0 PUSH8 0xFFFFFFFFFFFFFFFF DUP2 GT ISZERO PUSH2 0x2B6 JUMPI PUSH2 0x2B5 PUSH2 0x921 JUMP JUMPDEST JUMPDEST PUSH1 0x40 MLOAD SWAP1 DUP1 DUP3 MSTORE DUP1 PUSH1 0x20 MUL PUSH1 0x20 ADD DUP3 ADD PUSH1 0x40 MSTORE DUP1 ISZERO PUSH2 0x2E4 JUMPI DUP2 PUSH1 0x20 ADD PUSH1 0x20 DUP3 MUL DUP1 CALLDATASIZE DUP4 CALLDATACOPY DUP1 DUP3 ADD SWAP2 POP POP SWAP1 POP JUMPDEST POP PUSH1 0x1 SWAP1 DUP1 MLOAD SWAP1 PUSH1 0x20 ADD SWAP1 PUSH2 0x2FA SWAP3 SWAP2 SWAP1 PUSH2 0x60F JUMP JUMPDEST POP PUSH1 0x0 CALLER PUSH20 0xFFFFFFFFFFFFFFFFFFFFFFFFFFFFFFFFFFFFFFFF AND SELFBALANCE PUSH1 0x40 MLOAD PUSH2 0x321 SWAP1 PUSH2 0x981 JUMP JUMPDEST PUSH1 0x0 PUSH1 0x40 MLOAD DUP1 DUP4 SUB DUP2 DUP6 DUP8 GAS CALL SWAP3 POP POP POP RETURNDATASIZE DUP1 PUSH1 0x0 DUP2 EQ PUSH2 0x35E JUMPI PUSH1 0x40 MLOAD SWAP2 POP PUSH1 0x1F NOT PUSH1 0x3F RETURNDATASIZE ADD AND DUP3 ADD PUSH1 0x40 MSTORE RETURNDATASIZE DUP3 MSTORE RETURNDATASIZE PUSH1 0x0 PUSH1 0x20 DUP5 ADD RETURNDATACOPY PUSH2 0x363 JUMP JUMPDEST PUSH1 0x60 SWAP2 POP JUMPDEST POP POP SWAP1 POP DUP1 PUSH2 0x3A7 JUMPI PUSH1 0x40 MLOAD PUSH32 0x8C379A000000000000000000000000000000000000000000000000000000000 DUP2 MSTORE PUSH1 0x4 ADD PUSH2 0x39E SWAP1 PUSH2 0x9E2 JUMP JUMPDEST PUSH1 0x40 MLOAD DUP1 SWAP2 SUB SWAP1 REVERT JUMPDEST POP JUMP JUMPDEST PUSH1 0x2 PUSH1 0x20 MSTORE DUP1 PUSH1 0x0 MSTORE PUSH1 0x40 PUSH1 0x0 KECCAK256 PUSH1 0x0 SWAP2 POP SWAP1 POP SLOAD DUP2 JUMP JUMPDEST PUSH1 0x3 PUSH1 0x0 SWAP1 SLOAD SWAP1 PUSH2 0x100 EXP SWAP1 DIV PUSH20 0xFFFFFFFFFFFFFFFFFFFFFFFFFFFFFFFFFFFFFFFF AND DUP2 JUMP JUMPDEST PUSH1 0x0 SLOAD PUSH2 0x3F4 CALLVALUE PUSH2 0x51D JUMP JUMPDEST LT ISZERO PUSH2 0x435 JUMPI PUSH1 0x40 MLOAD PUSH32 0x8C379A000000000000000000000000000000000000000000000000000000000 DUP2 MSTORE PUSH1 0x4 ADD PUSH2 0x42C SWAP1 PUSH2 0xA4E JUMP JUMPDEST PUSH1 0x40 MLOAD DUP1 SWAP2 SUB SWAP1 REVERT JUMPDEST PUSH1 0x1 CALLER SWAP1 DUP1 PUSH1 0x1 DUP2 SLOAD ADD DUP1 DUP3 SSTORE DUP1 SWAP2 POP POP PUSH1 0x1 SWAP1 SUB SWAP1 PUSH1 0x0 MSTORE PUSH1 0x20 PUSH1 0x0 KECCAK256 ADD PUSH1 0x0 SWAP1 SWAP2 SWAP1 SWAP2 SWAP1 SWAP2 PUSH2 0x100 EXP DUP2 SLOAD DUP2 PUSH20 0xFFFFFFFFFFFFFFFFFFFFFFFFFFFFFFFFFFFFFFFF MUL NOT AND SWAP1 DUP4 PUSH20 0xFFFFFFFFFFFFFFFFFFFFFFFFFFFFFFFFFFFFFFFF AND MUL OR SWAP1 SSTORE POP CALLVALUE PUSH1 0x2 PUSH1 0x0 CALLER PUSH20 0xFFFFFFFFFFFFFFFFFFFFFFFFFFFFFFFFFFFFFFFF AND PUSH20 0xFFFFFFFFFFFFFFFFFFFFFFFFFFFFFFFFFFFFFFFF AND DUP2 MSTORE PUSH1 0x20 ADD SWAP1 DUP2 MSTORE PUSH1 0x20 ADD PUSH1 0x0 KECCAK256 DUP2 SWAP1 SSTORE POP JUMP JUMPDEST PUSH1 0x1 DUP2 DUP2 SLOAD DUP2 LT PUSH2 0x4EE JUMPI PUSH1 0x0 DUP1 REVERT JUMPDEST SWAP1 PUSH1 0x0 MSTORE PUSH1 0x20 PUSH1 0x0 KECCAK256 ADD PUSH1 0x0 SWAP2 POP SLOAD SWAP1 PUSH2 0x100 EXP SWAP1 DIV PUSH20 0xFFFFFFFFFFFFFFFFFFFFFFFFFFFFFFFFFFFFFFFF AND DUP2 JUMP JUMPDEST PUSH1 0x0 DUP1 PUSH2 0x528 PUSH2 0x557 JUMP JUMPDEST SWAP1 POP PUSH1 0x0 PUSH8 0xDE0B6B3A7640000 DUP5 DUP4 PUSH2 0x541 SWAP2 SWAP1 PUSH2 0xA6E JUMP JUMPDEST PUSH2 0x54B SWAP2 SWAP1 PUSH2 0xAF7 JUMP JUMPDEST SWAP1 POP DUP1 SWAP3 POP POP POP SWAP2 SWAP1 POP JUMP JUMPDEST PUSH1 0x0 DUP1 PUSH20 0x8A753747A1FA494EC906CE90E9F37563A8AF630E SWAP1 POP PUSH1 0x0 DUP2 PUSH20 0xFFFFFFFFFFFFFFFFFFFFFFFFFFFFFFFFFFFFFFFF AND PUSH4 0xFEAF968C PUSH1 0x40 MLOAD DUP2 PUSH4 0xFFFFFFFF AND PUSH1 0xE0 SHL DUP2 MSTORE PUSH1 0x4 ADD PUSH1 0xA0 PUSH1 0x40 MLOAD DUP1 DUP4 SUB DUP2 DUP7 DUP1 EXTCODESIZE ISZERO DUP1 ISZERO PUSH2 0x5B9 JUMPI PUSH1 0x0 DUP1 REVERT JUMPDEST POP GAS STATICCALL ISZERO DUP1 ISZERO PUSH2 0x5CD JUMPI RETURNDATASIZE PUSH1 0x0 DUP1 RETURNDATACOPY RETURNDATASIZE PUSH1 0x0 REVERT JUMPDEST POP POP POP POP PUSH1 0x40 MLOAD RETURNDATASIZE PUSH1 0x1F NOT PUSH1 0x1F DUP3 ADD AND DUP3 ADD DUP1 PUSH1 0x40 MSTORE POP DUP2 ADD SWAP1 PUSH2 0x5F1 SWAP2 SWAP1 PUSH2 0xBB5 JUMP JUMPDEST POP POP POP SWAP2 POP POP PUSH5 0x2540BE400 DUP2 PUSH2 0x608 SWAP2 SWAP1 PUSH2 0xC30 JUMP JUMPDEST SWAP3 POP POP POP SWAP1 JUMP JUMPDEST DUP3 DUP1 SLOAD DUP3 DUP3 SSTORE SWAP1 PUSH1 0x0 MSTORE PUSH1 0x20 PUSH1 0x0 KECCAK256 SWAP1 DUP2 ADD SWAP3 DUP3 ISZERO PUSH2 0x688 JUMPI SWAP2 PUSH1 0x20 MUL DUP3 ADD JUMPDEST DUP3 DUP2 GT ISZERO PUSH2 0x687 JUMPI DUP3 MLOAD DUP3 PUSH1 0x0 PUSH2 0x100 EXP DUP2 SLOAD DUP2 PUSH20 0xFFFFFFFFFFFFFFFFFFFFFFFFFFFFFFFFFFFFFFFF MUL NOT AND SWAP1 DUP4 PUSH20 0xFFFFFFFFFFFFFFFFFFFFFFFFFFFFFFFFFFFFFFFF AND MUL OR SWAP1 SSTORE POP SWAP2 PUSH1 0x20 ADD SWAP2 SWAP1 PUSH1 0x1 ADD SWAP1 PUSH2 0x62F JUMP JUMPDEST JUMPDEST POP SWAP1 POP PUSH2 0x695 SWAP2 SWAP1 PUSH2 0x699 JUMP JUMPDEST POP SWAP1 JUMP JUMPDEST JUMPDEST DUP1 DUP3 GT ISZERO PUSH2 0x6B2 JUMPI PUSH1 0x0 DUP2 PUSH1 0x0 SWAP1 SSTORE POP PUSH1 0x1 ADD PUSH2 0x69A JUMP JUMPDEST POP SWAP1 JUMP JUMPDEST PUSH1 0x0 DUP2 SWAP1 POP SWAP2 SWAP1 POP JUMP JUMPDEST PUSH2 0x6C9 DUP2 PUSH2 0x6B6 JUMP JUMPDEST DUP3 MSTORE POP POP JUMP JUMPDEST PUSH1 0x0 PUSH1 0x20 DUP3 ADD SWAP1 POP PUSH2 0x6E4 PUSH1 0x0 DUP4 ADD DUP5 PUSH2 0x6C0 JUMP JUMPDEST SWAP3 SWAP2 POP POP JUMP JUMPDEST PUSH1 0x0 DUP1 REVERT JUMPDEST PUSH1 0x0 PUSH20 0xFFFFFFFFFFFFFFFFFFFFFFFFFFFFFFFFFFFFFFFF DUP3 AND SWAP1 POP SWAP2 SWAP1 POP JUMP JUMPDEST PUSH1 0x0 PUSH2 0x71A DUP3 PUSH2 0x6EF JUMP JUMPDEST SWAP1 POP SWAP2 SWAP1 POP JUMP JUMPDEST PUSH2 0x72A DUP2 PUSH2 0x70F JUMP JUMPDEST DUP2 EQ PUSH2 0x735 JUMPI PUSH1 0x0 DUP1 REVERT JUMPDEST POP JUMP JUMPDEST PUSH1 0x0 DUP2 CALLDATALOAD SWAP1 POP PUSH2 0x747 DUP2 PUSH2 0x721 JUMP JUMPDEST SWAP3 SWAP2 POP POP JUMP JUMPDEST PUSH1 0x0 PUSH1 0x20 DUP3 DUP5 SUB SLT ISZERO PUSH2 0x763 JUMPI PUSH2 0x762 PUSH2 0x6EA JUMP JUMPDEST JUMPDEST PUSH1 0x0 PUSH2 0x771 DUP5 DUP3 DUP6 ADD PUSH2 0x738 JUMP JUMPDEST SWAP2 POP POP SWAP3 SWAP2 POP POP JUMP JUMPDEST PUSH2 0x783 DUP2 PUSH2 0x70F JUMP JUMPDEST DUP3 MSTORE POP POP JUMP JUMPDEST PUSH1 0x0 PUSH1 0x20 DUP3 ADD SWAP1 POP PUSH2 0x79E PUSH1 0x0 DUP4 ADD DUP5 PUSH2 0x77A JUMP JUMPDEST SWAP3 SWAP2 POP POP JUMP JUMPDEST PUSH2 0x7AD DUP2 PUSH2 0x6B6 JUMP JUMPDEST DUP2 EQ PUSH2 0x7B8 JUMPI PUSH1 0x0 DUP1 REVERT JUMPDEST POP JUMP JUMPDEST PUSH1 0x0 DUP2 CALLDATALOAD SWAP1 POP PUSH2 0x7CA DUP2 PUSH2 0x7A4 JUMP JUMPDEST SWAP3 SWAP2 POP POP JUMP JUMPDEST PUSH1 0x0 PUSH1 0x20 DUP3 DUP5 SUB SLT ISZERO PUSH2 0x7E6 JUMPI PUSH2 0x7E5 PUSH2 0x6EA JUMP JUMPDEST JUMPDEST PUSH1 0x0 PUSH2 0x7F4 DUP5 DUP3 DUP6 ADD PUSH2 0x7BB JUMP JUMPDEST SWAP2 POP POP SWAP3 SWAP2 POP POP JUMP JUMPDEST PUSH1 0x0 DUP3 DUP3 MSTORE PUSH1 0x20 DUP3 ADD SWAP1 POP SWAP3 SWAP2 POP POP JUMP JUMPDEST PUSH32 0x53656E646572206973206E6F74206F776E657221000000000000000000000000 PUSH1 0x0 DUP3 ADD MSTORE POP JUMP JUMPDEST PUSH1 0x0 PUSH2 0x844 PUSH1 0x14 DUP4 PUSH2 0x7FD JUMP JUMPDEST SWAP2 POP PUSH2 0x84F DUP3 PUSH2 0x80E JUMP JUMPDEST PUSH1 0x20 DUP3 ADD SWAP1 POP SWAP2 SWAP1 POP JUMP JUMPDEST PUSH1 0x0 PUSH1 0x20 DUP3 ADD SWAP1 POP DUP2 DUP2 SUB PUSH1 0x0 DUP4 ADD MSTORE PUSH2 0x873 DUP2 PUSH2 0x837 JUMP JUMPDEST SWAP1 POP SWAP2 SWAP1 POP JUMP JUMPDEST PUSH32 0x4E487B7100000000000000000000000000000000000000000000000000000000 PUSH1 0x0 MSTORE PUSH1 0x32 PUSH1 0x4 MSTORE PUSH1 0x24 PUSH1 0x0 REVERT JUMPDEST PUSH32 0x4E487B7100000000000000000000000000000000000000000000000000000000 PUSH1 0x0 MSTORE PUSH1 0x11 PUSH1 0x4 MSTORE PUSH1 0x24 PUSH1 0x0 REVERT JUMPDEST PUSH1 0x0 PUSH2 0x8E3 DUP3 PUSH2 0x6B6 JUMP JUMPDEST SWAP2 POP PUSH32 0xFFFFFFFFFFFFFFFFFFFFFFFFFFFFFFFFFFFFFFFFFFFFFFFFFFFFFFFFFFFFFFFF DUP3 EQ ISZERO PUSH2 0x916 JUMPI PUSH2 0x915 PUSH2 0x8A9 JUMP JUMPDEST JUMPDEST PUSH1 0x1 DUP3 ADD SWAP1 POP SWAP2 SWAP1 POP JUMP JUMPDEST PUSH32 0x4E487B7100000000000000000000000000000000000000000000000000000000 PUSH1 0x0 MSTORE PUSH1 0x41 PUSH1 0x4 MSTORE PUSH1 0x24 PUSH1 0x0 REVERT JUMPDEST PUSH1 0x0 DUP2 SWAP1 POP SWAP3 SWAP2 POP POP JUMP JUMPDEST POP JUMP JUMPDEST PUSH1 0x0 PUSH2 0x96B PUSH1 0x0 DUP4 PUSH2 0x950 JUMP JUMPDEST SWAP2 POP PUSH2 0x976 DUP3 PUSH2 0x95B JUMP JUMPDEST PUSH1 0x0 DUP3 ADD SWAP1 POP SWAP2 SWAP1 POP JUMP JUMPDEST PUSH1 0x0 PUSH2 0x98C DUP3 PUSH2 0x95E JUMP JUMPDEST SWAP2 POP DUP2 SWAP1 POP SWAP2 SWAP1 POP JUMP JUMPDEST PUSH32 0x53656E64206661696C6564000000000000000000000000000000000000000000 PUSH1 0x0 DUP3 ADD MSTORE POP JUMP JUMPDEST PUSH1 0x0 PUSH2 0x9CC PUSH1 0xB DUP4 PUSH2 0x7FD JUMP JUMPDEST SWAP2 POP PUSH2 0x9D7 DUP3 PUSH2 0x996 JUMP JUMPDEST PUSH1 0x20 DUP3 ADD SWAP1 POP SWAP2 SWAP1 POP JUMP JUMPDEST PUSH1 0x0 PUSH1 0x20 DUP3 ADD SWAP1 POP DUP2 DUP2 SUB PUSH1 0x0 DUP4 ADD MSTORE PUSH2 0x9FB DUP2 PUSH2 0x9BF JUMP JUMPDEST SWAP1 POP SWAP2 SWAP1 POP JUMP JUMPDEST PUSH32 0x446964206E6F742073656E6420656E6F75676821000000000000000000000000 PUSH1 0x0 DUP3 ADD MSTORE POP JUMP JUMPDEST PUSH1 0x0 PUSH2 0xA38 PUSH1 0x14 DUP4 PUSH2 0x7FD JUMP JUMPDEST SWAP2 POP PUSH2 0xA43 DUP3 PUSH2 0xA02 JUMP JUMPDEST PUSH1 0x20 DUP3 ADD SWAP1 POP SWAP2 SWAP1 POP JUMP JUMPDEST PUSH1 0x0 PUSH1 0x20 DUP3 ADD SWAP1 POP DUP2 DUP2 SUB PUSH1 0x0 DUP4 ADD MSTORE PUSH2 0xA67 DUP2 PUSH2 0xA2B JUMP JUMPDEST SWAP1 POP SWAP2 SWAP1 POP JUMP JUMPDEST PUSH1 0x0 PUSH2 0xA79 DUP3 PUSH2 0x6B6 JUMP JUMPDEST SWAP2 POP PUSH2 0xA84 DUP4 PUSH2 0x6B6 JUMP JUMPDEST SWAP3 POP DUP2 PUSH32 0xFFFFFFFFFFFFFFFFFFFFFFFFFFFFFFFFFFFFFFFFFFFFFFFFFFFFFFFFFFFFFFFF DIV DUP4 GT DUP3 ISZERO ISZERO AND ISZERO PUSH2 0xABD JUMPI PUSH2 0xABC PUSH2 0x8A9 JUMP JUMPDEST JUMPDEST DUP3 DUP3 MUL SWAP1 POP SWAP3 SWAP2 POP POP JUMP JUMPDEST PUSH32 0x4E487B7100000000000000000000000000000000000000000000000000000000 PUSH1 0x0 MSTORE PUSH1 0x12 PUSH1 0x4 MSTORE PUSH1 0x24 PUSH1 0x0 REVERT JUMPDEST PUSH1 0x0 PUSH2 0xB02 DUP3 PUSH2 0x6B6 JUMP JUMPDEST SWAP2 POP PUSH2 0xB0D DUP4 PUSH2 0x6B6 JUMP JUMPDEST SWAP3 POP DUP3 PUSH2 0xB1D JUMPI PUSH2 0xB1C PUSH2 0xAC8 JUMP JUMPDEST JUMPDEST DUP3 DUP3 DIV SWAP1 POP SWAP3 SWAP2 POP POP JUMP JUMPDEST PUSH1 0x0 PUSH10 0xFFFFFFFFFFFFFFFFFFFF DUP3 AND SWAP1 POP SWAP2 SWAP1 POP JUMP JUMPDEST PUSH2 0xB47 DUP2 PUSH2 0xB28 JUMP JUMPDEST DUP2 EQ PUSH2 0xB52 JUMPI PUSH1 0x0 DUP1 REVERT JUMPDEST POP JUMP JUMPDEST PUSH1 0x0 DUP2 MLOAD SWAP1 POP PUSH2 0xB64 DUP2 PUSH2 0xB3E JUMP JUMPDEST SWAP3 SWAP2 POP POP JUMP JUMPDEST PUSH1 0x0 DUP2 SWAP1 POP SWAP2 SWAP1 POP JUMP JUMPDEST PUSH2 0xB7D DUP2 PUSH2 0xB6A JUMP JUMPDEST DUP2 EQ PUSH2 0xB88 JUMPI PUSH1 0x0 DUP1 REVERT JUMPDEST POP JUMP JUMPDEST PUSH1 0x0 DUP2 MLOAD SWAP1 POP PUSH2 0xB9A DUP2 PUSH2 0xB74 JUMP JUMPDEST SWAP3 SWAP2 POP POP JUMP JUMPDEST PUSH1 0x0 DUP2 MLOAD SWAP1 POP PUSH2 0xBAF DUP2 PUSH2 0x7A4 JUMP JUMPDEST SWAP3 SWAP2 POP POP JUMP JUMPDEST PUSH1 0x0 DUP1 PUSH1 0x0 DUP1 PUSH1 0x0 PUSH1 0xA0 DUP7 DUP9 SUB SLT ISZERO PUSH2 0xBD1 JUMPI PUSH2 0xBD0 PUSH2 0x6EA JUMP JUMPDEST JUMPDEST PUSH1 0x0 PUSH2 0xBDF DUP9 DUP3 DUP10 ADD PUSH2 0xB55 JUMP JUMPDEST SWAP6 POP POP PUSH1 0x20 PUSH2 0xBF0 DUP9 DUP3 DUP10 ADD PUSH2 0xB8B JUMP JUMPDEST SWAP5 POP POP PUSH1 0x40 PUSH2 0xC01 DUP9 DUP3 DUP10 ADD PUSH2 0xBA0 JUMP JUMPDEST SWAP4 POP POP PUSH1 0x60 PUSH2 0xC12 DUP9 DUP3 DUP10 ADD PUSH2 0xBA0 JUMP JUMPDEST SWAP3 POP POP PUSH1 0x80 PUSH2 0xC23 DUP9 DUP3 DUP10 ADD PUSH2 0xB55 JUMP JUMPDEST SWAP2 POP POP SWAP3 SWAP6 POP SWAP3 SWAP6 SWAP1 SWAP4 POP JUMP JUMPDEST PUSH1 0x0 PUSH2 0xC3B DUP3 PUSH2 0xB6A JUMP JUMPDEST SWAP2 POP PUSH2 0xC46 DUP4 PUSH2 0xB6A JUMP JUMPDEST SWAP3 POP DUP3 PUSH32 0x7FFFFFFFFFFFFFFFFFFFFFFFFFFFFFFFFFFFFFFFFFFFFFFFFFFFFFFFFFFFFFFF DIV DUP3 GT PUSH1 0x0 DUP5 SGT PUSH1 0x0 DUP5 SGT AND AND ISZERO PUSH2 0xC85 JUMPI PUSH2 0xC84 PUSH2 0x8A9 JUMP JUMPDEST JUMPDEST DUP2 PUSH32 0x8000000000000000000000000000000000000000000000000000000000000000 SDIV DUP4 SLT PUSH1 0x0 DUP5 SLT PUSH1 0x0 DUP5 SGT AND AND ISZERO PUSH2 0xCC2 JUMPI PUSH2 0xCC1 PUSH2 0x8A9 JUMP JUMPDEST JUMPDEST DUP3 PUSH32 0x8000000000000000000000000000000000000000000000000000000000000000 SDIV DUP3 SLT PUSH1 0x0 DUP5 SGT PUSH1 0x0 DUP5 SLT AND AND ISZERO PUSH2 0xCFF JUMPI PUSH2 0xCFE PUSH2 0x8A9 JUMP JUMPDEST JUMPDEST DUP3 PUSH32 0x7FFFFFFFFFFFFFFFFFFFFFFFFFFFFFFFFFFFFFFFFFFFFFFFFFFFFFFFFFFFFFFF SDIV DUP3 SLT PUSH1 0x0 DUP5 SLT PUSH1 0x0 DUP5 SLT AND AND ISZERO PUSH2 0xD3C JUMPI PUSH2 0xD3B PUSH2 0x8A9 JUMP JUMPDEST JUMPDEST DUP3 DUP3 MUL SWAP1 POP SWAP3 SWAP2 POP POP JUMP INVALID LOG2 PUSH5 0x6970667358 0x22 SLT KECCAK256 SUB CODESIZE SIGNEXTEND MULMOD 0xBD 0xDF PUSH30 0x9E3512AAF92DF186C8F818319182DAA0C66702E7B566B74FC864736F6C63 NUMBER STOP ADDMOD ADDMOD STOP CALLER "
				},
				"gasEstimates": {
					"creation": {
						"codeDepositCost": "690600",
						"executionCost": "47093",
						"totalCost": "737693"
					},
					"external": {
						"addressToAmountFunded(address)": "2836",
						"fund()": "infinite",
						"funders(uint256)": "5044",
						"minimumUsd()": "2407",
						"owner()": "2558",
						"withdraw()": "infinite"
					}
				},
				"methodIdentifiers": {
					"addressToAmountFunded(address)": "3e47d6f3",
					"fund()": "b60d4288",
					"funders(uint256)": "dc0d3dff",
					"minimumUsd()": "098de820",
					"owner()": "8da5cb5b",
					"withdraw()": "3ccfd60b"
				}
			},
			"storageLayout": {
				"storage": [
					{
						"astId": 56,
						"contract": "contracts/FundMe.sol:FundMe",
						"label": "minimumUsd",
						"offset": 0,
						"slot": "0",
						"type": "t_uint256"
					},
					{
						"astId": 59,
						"contract": "contracts/FundMe.sol:FundMe",
						"label": "funders",
						"offset": 0,
						"slot": "1",
						"type": "t_array(t_address)dyn_storage"
					},
					{
						"astId": 63,
						"contract": "contracts/FundMe.sol:FundMe",
						"label": "addressToAmountFunded",
						"offset": 0,
						"slot": "2",
						"type": "t_mapping(t_address,t_uint256)"
					},
					{
						"astId": 65,
						"contract": "contracts/FundMe.sol:FundMe",
						"label": "owner",
						"offset": 0,
						"slot": "3",
						"type": "t_address"
					}
				],
				"types": {
					"t_address": {
						"encoding": "inplace",
						"label": "address",
						"numberOfBytes": "20"
					},
					"t_array(t_address)dyn_storage": {
						"base": "t_address",
						"encoding": "dynamic_array",
						"label": "address[]",
						"numberOfBytes": "32"
					},
					"t_mapping(t_address,t_uint256)": {
						"encoding": "mapping",
						"key": "t_address",
						"label": "mapping(address => uint256)",
						"numberOfBytes": "32",
						"value": "t_uint256"
					},
					"t_uint256": {
						"encoding": "inplace",
						"label": "uint256",
						"numberOfBytes": "32"
					}
				}
			},
			"userdoc": {
				"kind": "user",
				"methods": {},
				"version": 1
			}
		}
	}
}